:020000040800F2
:10000000002800202D0D0008D10C0008D70C000896
:10001000DD0C0008E30C0008E90C000800000000FB
:10002000000000000000000000000000EF0C0008CD
:10003000FB0C000800000000070D0008130D00086D
:10004000750D0008750D0008750D0008750D000888
:10005000750D0008750D0008750D0008750D000878
:10006000750D0008750D0008750D0008750D000868
:10007000750D0008750D0008750D0008750D000858
:10008000750D0008750D0008750D0008750D000848
:10009000750D0008750D0008750D0008750D000838
:1000A000750D0008750D0008750D0008750D000828
:1000B000750D0008750D000800000000750D0008A2
:1000C000750D00080000000000000000750D00081C
:1000D00000000000750D0008750D0008000000000C
:1000E000750D0008750D0008750D00080000000072
:1000F0000000000000000000000000000000000000
:0C01000000000000000000005FF808F1A3
:10010C0010B5054C237833B9044B13B10448AFF345
:10011C0000800123237010BD0C00002000000000A3
:10012C00B41B000808B5034B1BB103490348AFF3DC
:10013C00008008BD0000000010000020B41B000867
:10014C0080B584B000AF00F011FE00F013FD00F09C
:10015C004DFD0023FB600023BB6000237B6001226C
:10016C001021C54801F0E6F801222021C24801F017
:10017C00E1F801224021C04801F0DCF80122802185
:10018C00BD4801F0D7F801224FF48071BA4801F054
:10019C00D1F801224FF40071B74801F0CBF80122DD
:1001AC004FF48061B44801F0C5F801224FF40061AE
:1001BC00B14801F0BFF801224FF48051AE4801F074
:1001CC00B9F801224FF40051AB4801F0B3F8012209
:1001DC004FF48041A84801F0ADF800224FF40041E3
:1001EC00A54801F0A7F80821A34801F0BBF8FB686B
:1001FC00053B372B00F2898101A252F823F000BF96
:10020C00ED0200081705000817050008170500087F
:10021C00170500081B030008170500081705000840
:10022C001705000817050008470300081705000804
:10023C0017050008170500081705000873030008C8
:10024C001705000817050008170500081705000812
:10025C009F0300081705000817050008170500087C
:10026C0017050008CD03000817050008170500083E
:10027C001705000817050008FD03000817050008FE
:10028C001705000817050008170500082D040008BD
:10029C0017050008170500081705000817050008C2
:1002AC005904000817050008170500081705000871
:1002BC001705000889040008170500081705000831
:1002CC001705000817050008B504000817050008F5
:1002DC00170500081705000817050008E1040008B9
:1002EC0000221021644801F025F87B68002B00F0F7
:1002FC000E81BB68002B03DBBB68042B40F307812A
:10030C0001224FF400415C4801F014F8FFE0002298
:10031C002021594801F00EF87B68012B00F0F98080
:10032C00BB68042B03DDBB68092B40F3F280012270
:10033C001021514800F0FEFFEBE0002240214E4816
:10034C0000F0F8FF7B68022B00F0E580BB68092BFE
:10035C0003DDBB680E2B40F3DE80012220214648D2
:10036C0000F0E8FFD7E000228021434800F0E2FFD4
:10037C007B68032B00F0D180BB680E2B03DDBB68C0
:10038C00132B40F3CA80012240213B4800F0D2FFDE
:10039C00C3E000224FF48071374800F0CBFF7B683C
:1003AC00042B00F0BC80BB68132B03DDBB68182B3F
:1003BC0040F3B580012280212F4800F0BBFFAEE056
:1003CC0000224FF400712C4800F0B4FF7B68052B21
:1003DC0000F0A780BB68182B03DDBB681D2B40F316
:1003EC00A08001224FF48071234800F0A3FF98E015
:1003FC0000224FF48061204800F09CFF7B68062BA4
:10040C0000F09180BB681D2B03DDBB68222B40F3F1
:10041C008A8001224FF40071174800F08BFF82E0B4
:10042C0000224FF40061144800F084FF7B68072B16
:10043C007BD0BB68222B02DDBB68272B75DD01222C
:10044C004FF480610C4800F075FF6EE000224FF411
:10045C008051094800F06EFF7B68082B67D0BB68A1
:10046C00272B02DDBB682C2B61DD01224FF40061D0
:10047C00014800F05FFF5AE00008014000224FF4F1
:10048C000051C44800F056FF7B68092B51D0BB6863
:10049C002C2B02DDBB68312B4BDD01224FF480513C
:1004AC00BC4800F047FF44E000224FF48041B948BB
:1004BC0000F040FF7B680A2B3DD0BB68312B02DD7E
:1004CC00BB68362B37DD01224FF40051B14800F0E8
:1004DC0031FF30E000224FF40041AE4800F02AFF1B
:1004EC007B680B2B0BD0BB68362B02DDBB683B2B20
:1004FC0005DD01224FF48041A64800F01BFFBB68CC
:10050C000133BB600023FB6016E000BF14E000BFAA
:10051C0012E000BF10E000BF0EE000BF0CE000BF17
:10052C000AE000BF08E000BF06E000BF04E000BF27
:10053C0002E000BF00E000BFBB68053B372B00F2B8
:10054C00888101A252F823F0350600085F080008E4
:10055C005F0800085F0800085F08000863060008D1
:10056C005F0800085F0800085F0800085F080008C3
:10057C008F0600085F0800085F0800085F08000885
:10058C005F080008BB0600085F0800085F08000849
:10059C005F0800085F080008E70600085F0800080D
:1005AC005F0800085F0800085F08000815070008CE
:1005BC005F0800085F0800085F0800085F08000873
:1005CC00450700085F0800085F0800085F0800087E
:1005DC005F080008750700085F0800085F0800083E
:1005EC005F0800085F080008A50700085F080008FE
:1005FC005F0800085F0800085F080008D1070008C2
:10060C005F0800085F0800085F0800085F08000822
:10061C00FD0700085F0800085F0800085F08000875
:10062C005F0800082908000800221021594800F032
:10063C0081FE7B68002B00F00E81FB68002B03DB36
:10064C00FB68042B40F3078101224FF40041514811
:10065C0000F070FEFFE0002220214E4800F06AFE00
:10066C007B68012B00F0F980FB68042B03DDFB6831
:10067C00092B40F3F28001221021464800F05AFE6B
:10068C00EBE000224021434800F054FE7B68022B33
:10069C0000F0E580FB68092B03DDFB680E2B40F3B3
:1006AC00DE80012220213B4800F044FED7E00022EE
:1006BC008021384800F03EFE7B68032B00F0D1808F
:1006CC00FB680E2B03DDFB68132B40F3CA80012261
:1006DC004021304800F02EFEC3E000224FF4807120
:1006EC002C4800F027FE7B68042B00F0BC80FB68D4
:1006FC00132B03DDFB68182B40F3B58001228021FE
:10070C00244800F017FEAEE000224FF4007121489F
:10071C0000F010FE7B68052B00F0A780FB68182BFF
:10072C0003DDFB681D2B40F3A08001224FF4807188
:10073C00184800F0FFFD98E000224FF48061154846
:10074C0000F0F8FD7B68062B00F09180FB681D2BF8
:10075C0003DDFB68222B40F38A8001224FF40071E9
:10076C000C4800F0E7FD82E000224FF400610948DC
:10077C0000F0E0FD7B68072B7BD0FB68222B02DDB1
:10078C00FB68272B75DD01224FF48061014800F0D6
:10079C00D1FD6EE00008014000224FF48051B048BA
:1007AC0000F0C8FD7B68082B65D0FB68272B02DDA9
:1007BC00FB682C2B5FDD01224FF40061A84800F090
:1007CC00B9FD58E000224FF40051A54800F0B2FDED
:1007DC007B68092B51D0FB682C2B02DDFB68312B7D
:1007EC004BDD01224FF480519D4800F0A3FD44E005
:1007FC0000224FF480419A4800F09CFD7B680A2B44
:10080C003DD0FB68312B02DDFB68362B37DD012236
:10081C004FF40051924800F08DFD30E000224FF46F
:10082C0000418F4800F086FD7B680B2B0BD0FB68DA
:10083C00362B02DDFB683B2B05DD01224FF480419A
:10084C00874800F077FD7B6801337B600023BB6039
:10085C0016E000BF14E000BF12E000BF10E000BFC4
:10086C000EE000BF0CE000BF0AE000BF08E000BFD4
:10087C0006E000BF04E000BF02E000BF00E000BFE4
:10088C007B68013B0B2B00F2538101A252F823F041
:10089C00CD080008010900083309000865090008A3
:1008AC0097090008CB090008010A0008370A00085C
:1008BC00710A0008A30A0008D50A0008070B0008F3
:1008CC0000221021664800F035FDFB68002B03DB8D
:1008DC00FB68042B40F32E81BB68002B03DBBB6849
:1008EC00042B40F3278101224FF400415C4800F0B7
:1008FC0021FD1FE100222021594800F01BFDFB685F
:10090C00042B03DDFB68092B40F31681BB68042B19
:10091C0003DDBB68092B40F30F81012210215048E5
:10092C0000F008FD08E1002240214D4800F002FDD6
:10093C00FB68092B03DDFB680E2B40F3FF80BB68C3
:10094C00092B03DDBB680E2B40F3F880012220211C
:10095C00434800F0EFFCF1E000228021404800F019
:10096C00E9FCFB680E2B03DDFB68132B40F3E880DE
:10097C00BB680E2B03DDBB68132B40F3E180012217
:10098C004021374800F0D6FCDAE000224FF48071A9
:10099C00334800F0CFFCFB68132B03DDFB68182BEE
:1009AC0040F3D080BB68132B03DDBB68182B40F3DE
:1009BC00C980012280212A4800F0BCFCC2E0002240
:1009CC004FF40071264800F0B5FCFB68182B03DDD2
:1009DC00FB681D2B40F3B880BB68182B03DDBB688C
:1009EC001D2B40F3B18001224FF480711C4800F0A4
:1009FC00A1FCA9E000224FF48061194800F09AFC98
:100A0C00FB681D2B03DDFB68222B40F39F80BB682A
:100A1C001D2B03DDBB68222B40F3988001224FF481
:100A2C0000710F4800F086FC90E000224FF400614A
:100A3C000B4800F07FFCFB68222B03DDFB68272BA7
:100A4C0040F38680BB68222B02DDBB68272B7FDD41
:100A5C0001224FF48061024800F06CFC78E000BF8A
:100A6C000008014000224FF48051414800F062FC24
:100A7C00FB68272B02DDFB682C2B6BDDBB68272B5F
:100A8C0002DDBB682C2B65DD01224FF40061384878
:100A9C0000F050FC5EE000224FF40051344800F0AE
:100AAC0049FCFB682C2B02DDFB68312B54DDBB6849
:100ABC002C2B02DDBB68312B4EDD01224FF4805113
:100ACC002B4800F037FC47E000224FF480412848C7
:100ADC0000F030FCFB68312B02DDFB68362B3DDD72
:100AEC00BB68312B02DDBB68362B37DD01224FF49E
:100AFC0000511F4800F01EFC30E000224FF4004172
:100B0C001B4800F017FCFB68362B02DDFB683B2B07
:100B1C000BDDBB68362B02DDBB683B2B05DD0122F0
:100B2C004FF48041124800F005FC00237B6016E076
:100B3C0000BF14E000BF12E000BF10E000BF0EE0E9
:100B4C0000BF0CE000BF0AE000BF08E000BF06E0F9
:100B5C0000BF04E000BF02E000BF00E000BF4FF4A4
:100B6C007A7000F065F9FB680133FB60FFF73BBB63
:100B7C000008014080B590B000AF07F1180328229F
:100B8C000021184601F008F83B1D00221A605A603B
:100B9C009A60DA601A610223BB610123BB621023E5
:100BAC00FB6200237B6307F11803184600F0F4FB8B
:100BBC000346002B01D000F04DF80F237B6000237F
:100BCC00BB600023FB6000233B6100237B613B1D6A
:100BDC000021184600F060FE0346002B01D000F007
:100BEC0039F800BF4037BD4680BD000080B586B0E7
:100BFC0000AF07F1080300221A605A609A60DA60AD
:100C0C00124B9B69114A43F0040393610F4B9B6990
:100C1C0003F004037B607B6800224FF6F8710C48EC
:100C2C0000F088FB4FF6F873BB600123FB600023D8
:100C3C003B6102237B6107F108031946044800F06D
:100C4C00FFF900BF1837BD4680BD00BF0010024041
:100C5C000008014080B400AF72B600BFFEE7000090
:100C6C0080B485B000AF154B9B69144A43F0010367
:100C7C009361124B9B6903F00103BB60BB680F4B84
:100C8C00DB690E4A43F08053D3610C4BDB6903F0F4
:100C9C0080537B607B680A4B5B68FB60FB6823F0CE
:100CAC00E063FB60FB6843F08063FB60044AFB6815
:100CBC00536000BF1437BD4680BC70470010024023
:100CCC000000014080B400AFFEE780B400AFFEE747
:100CDC0080B400AFFEE780B400AFFEE780B400AF95
:100CEC00FEE780B400AF00BFBD4680BC704780B447
:100CFC0000AF00BFBD4680BC704780B400AF00BFE2
:100D0C00BD4680BC704780B500AF00F075F800BFE1
:100D1C0080BD80B400AF00BFBD4680BC70470000F2
:100D2C00FFF7F7FF0B480C490C4A002302E0D4589C
:100D3C00C4500433C4188C42F9D3094A094C00231B
:100D4C0001E013600432A242FBD300F001FFFFF775
:100D5C00F7F97047000000200C000020F81B000879
:100D6C000C0000202C000020FEE7000080B500AF36
:100D7C00084B1B68074A43F010031360032000F074
:100D8C002BF90F2000F008F8FFF76AFF0023184634
:100D9C0080BD00BF0020024080B582B000AF7860FB
:100DAC00124B1A68124B1B7819464FF47A73B3FB2B
:100DBC00F1F3B2FBF3F3184600F035F90346002BC0
:100DCC0001D001230EE07B680F2B0AD80022796832
:100DDC004FF0FF3000F00BF9064A7B6813600023DC
:100DEC0000E0012318460837BD4680BD00000020F6
:100DFC00080000200400002080B400AF054B1B78D5
:100E0C001A46054B1B681344034A136000BFBD46CA
:100E1C0080BC7047080000202800002080B400AF80
:100E2C00024B1B681846BD4680BC7047280000204A
:100E3C0080B584B000AF7860FFF7F0FFB8607B68D6
:100E4C00FB60FB68B3F1FF3F05D00A4B1B781A46D9
:100E5C00FB681344FB6000BFFFF7E0FF0246BB6872
:100E6C00D31AFA689A42F7D800BF00BF1037BD46B4
:100E7C0080BD00BF0800002080B485B000AF786052
:100E8C007B6803F00703FB600C4BDB68BB60BA6844
:100E9C004FF6FF031340BB60FB681A02BB68134399
:100EAC0043F0BF6343F40033BB60044ABB68D360B8
:100EBC0000BF1437BD4680BC704700BF00ED00E09A
:100ECC0080B400AF044BDB681B0A03F00703184621
:100EDC00BD4680BC704700BF00ED00E080B483B01D
:100EEC0000AF03463960FB7197F90730002B0ADB22
:100EFC003B68DAB20C4997F907301201D2B20B44B5
:100F0C0083F800230AE03B68DAB20849FB7903F066
:100F1C000F03043B1201D2B20B441A7600BF0C37FC
:100F2C00BD4680BC704700BF00E100E000ED00E072
:100F3C0080B489B000AFF860B9607A60FB6803F0E8
:100F4C000703FB61FB69C3F10703042B28BF0423D0
:100F5C00BB61FB690433062B02D9FB69033B00E040
:100F6C0000237B614FF0FF32BB6902FA03F3DA43D3
:100F7C00BB681A407B699A404FF0FF317B6901FADC
:100F8C0003F3D9437B680B40134318462437BD4603
:100F9C0080BC704780B582B000AF78607B68013B45
:100FAC00B3F1807F01D301230FE00A4A7B68013B38
:100FBC0053600F214FF0FF30FFF790FF054B0022DD
:100FCC009A60044B07221A60002318460837BD4666
:100FDC0080BD00BF10E000E080B582B000AF78604B
:100FEC007868FFF749FF00BF0837BD4680BD80B564
:100FFC0086B000AF0346B9607A60FB7300237B6157
:10100C00FFF75EFF78617A68B9687869FFF790FF3F
:10101C00024697F90F3011461846FFF75FFF00BFE5
:10102C001837BD4680BD80B582B000AF7860786857
:10103C00FFF7B0FF034618460837BD4680BD0000D9
:10104C0080B48BB000AF7860396000237B620023E2
:10105C003B6248E101227B6A02FA03F3FB613B68C5
:10106C001B68FA691340BB61BA69FB699A4240F08C
:10107C0037813B685B68A34A93425ED0A14A934296
:10108C0075D8A14A934258D09F4A93426FD89F4A31
:10109C00934252D09D4A934269D89D4A93424CD078
:1010AC009B4A934263D89B4A934246D0994A9342B7
:1010BC005DD8122B2AD8122B59D801A252F823F042
:1010CC0047110008211100083311000875110008A0
:1010DC007B1100087B1100087B1100087B110008B4
:1010EC007B1100087B1100087B1100087B110008A4
:1010FC007B1100087B1100087B1100087B11000894
:10110C007B110008291100083D110008824A934206
:10111C0013D02CE03B68DB683B6229E03B68DB6862
:10112C0004333B6224E03B68DB6808333B621FE01E
:10113C003B68DB680C333B621AE03B689B68002B16
:10114C0002D104233B6213E03B689B68012B05D161
:10115C0008233B627B68FA691A6109E008233B6249
:10116C007B68FA695A6103E000233B6200E000BF30
:10117C00BB69FF2B01D87B6801E07B6804337B6182
:10118C00BB69FF2B02D87B6A9B0002E07B6A083BA1
:10119C009B003B617B691A680F213B6901FA03F3E1
:1011AC00DB431A40396A3B6901FA03F31A437B6942
:1011BC001A603B685B6803F08053002B00F0908052
:1011CC00564B9B69554A43F001039361534B9B6902
:1011DC0003F00103BB60BB68514A7B6A9B08023376
:1011EC0052F82330FB607B6A03F003039B000F2251
:1011FC0002FA03F3DB43FA681340FB607B68494A4D
:10120C0093420DD07B68484A934207D07B68474A8B
:10121C00934201D1022304E0032302E0012300E006
:10122C0000237A6A02F0030292009340FA68134397
:10123C00FB603B497B6A9B080233FA6841F8232028
:10124C003B685B6803F48013002B06D0384B9A681C
:10125C003749BB6913438B6006E0354B9A68BB6911
:10126C00DB43334913408B603B685B6803F400132A
:10127C00002B06D02E4BDA682D49BB691343CB608B
:10128C0006E02B4BDA68BB69DB4329491340CB6082
:10129C003B685B6803F40033002B06D0244B5A6880
:1012AC002349BB6913434B6006E0214B5A68BB6969
:1012BC00DB431F4913404B603B685B6803F480338E
:1012CC00002B06D01A4B1A681949BB6913430B60E3
:1012DC0006E0174B1A68BB69DB43154913400B60DA
:1012EC007B6A01337B623B681A687B6A22FA03F3E0
:1012FC00002B7FF4AFAE00BF00BF2C37BD4680BCC7
:10130C00704700BF000032100000311000002210A6
:10131C0000002110000012100000111000100240FB
:10132C000000014000080140000C01400010014089
:10133C000004014080B483B000AF78600B467B8022
:10134C0013467B707B78002B03D07A887B681A61FC
:10135C0003E07B881A047B681A6100BF0C37BD461A
:10136C0080BC704780B485B000AF78600B467B8042
:10137C007B68DB68FB607A88FB6813401A04FB68A7
:10138C00D9437B880B401A437B681A6100BF143722
:10139C00BD4680BC7047000080B586B000AF786059
:1013AC007B68002B01D101236CE27B681B6803F086
:1013BC000103002B00F08780924B5B6803F00C0359
:1013CC00042B0CD08F4B5B6803F00C03082B12D151
:1013DC008C4B5B6803F48033B3F5803F0BD1894BA6
:1013EC001B6803F40033002B6CD07B685B68002B0C
:1013FC0068D1012346E27B685B68B3F5803F06D178
:10140C00804B1B687F4A43F4803313602EE07B686B
:10141C005B68002B0CD17B4B1B687A4A23F480331E
:10142C001360784B1B68774A23F4802313601DE00C
:10143C007B685B68B3F5A02F0CD1724B1B68714AAB
:10144C0043F4802313606F4B1B686E4A43F4803364
:10145C0013600BE06B4B1B686A4A23F480331360F8
:10146C00684B1B68674A23F4802313607B685B68B6
:10147C00002B13D0FFF7D2FC386108E0FFF7CEFC4D
:10148C0002463B69D31A642B01D90323FAE15D4B65
:10149C001B6803F40033002BF0D014E0FFF7BEFC04
:1014AC00386108E0FFF7BAFC02463B69D31A642B9B
:1014BC0001D90323E6E1534B1B6803F40033002BE3
:1014CC00F0D100E000BF7B681B6803F00203002B27
:1014DC0063D04C4B5B6803F00C03002B0BD0494BD7
:1014EC005B6803F00C03082B1CD1464B5B6803F4C0
:1014FC008033002B16D1434B1B6803F00203002BE7
:10150C0005D07B681B69012B01D00123BAE13D4B4F
:10151C001B6823F0F8027B685B69DB0039491343D5
:10152C000B603AE07B681B69002B20D0364B012204
:10153C001A60FFF773FC386108E0FFF76FFC024696
:10154C003B69D31A022B01D903239BE12D4B1B685A
:10155C0003F00203002BF0D02A4B1B6823F0F80297
:10156C007B685B69DB00274913430B6015E0264B56
:10157C0000221A60FFF752FC386108E0FFF74EFCBE
:10158C0002463B69D31A022B01D903237AE11D4B86
:10159C001B6803F00203002BF0D17B681B6803F07F
:1015AC000803002B3AD07B689B69002B19D0174B92
:1015BC0001221A60FFF732FC386108E0FFF72EFCBD
:1015CC0002463B69D31A022B01D903235AE10D4B76
:1015DC005B6A03F00203002BF0D0012000F09AFAB2
:1015EC001CE00A4B00221A60FFF718FC38610FE070
:1015FC00FFF714FC02463B69D31A022B08D90323CC
:10160C0040E100BF00100240000042428004424210
:10161C009E4B5B6A03F00203002BE9D17B681B68CD
:10162C0003F00403002B00F0A6800023FB75974BFE
:10163C00DB6903F08053002B0DD1944BDB69934A8B
:10164C0043F08053D361914BDB6903F08053BB6053
:10165C00BB680123FB758E4B1B6803F48073002B56
:10166C0018D18B4B1B688A4A43F480731360FFF7C5
:10167C00D5FB386108E0FFF7D1FB02463B69D31A72
:10168C00642B01D90323FDE0814B1B6803F48073A9
:10169C00002BF0D07B68DB68012B06D17B4B1B6ADF
:1016AC007A4A43F0010313622DE07B68DB68002B60
:1016BC000CD1764B1B6A754A23F001031362734BF2
:1016CC001B6A724A23F0040313621CE07B68DB681C
:1016DC00052B0CD16D4B1B6A6C4A43F0040313624F
:1016EC006A4B1B6A694A43F0010313620BE0674BB8
:1016FC001B6A664A23F001031362644B1B6A634A3C
:10170C0023F0040313627B68DB68002B15D0FFF712
:10171C0085FB38610AE0FFF781FB02463B69D31A6F
:10172C0041F28832934201D90323ABE0574B1B6A39
:10173C0003F00203002BEED014E0FFF76FFB3861CF
:10174C000AE0FFF76BFB02463B69D31A41F2883281
:10175C00934201D9032395E04C4B1B6A03F002031F
:10176C00002BEED1FB7D012B05D1484BDB69474AA1
:10177C0023F08053D3617B68DB69002B00F0818000
:10178C00424B5B6803F00C03082B61D07B68DB6970
:10179C00022B46D13F4B00221A60FFF73FFB38610A
:1017AC0008E0FFF73BFB02463B69D31A022B01D939
:1017BC00032367E0354B1B6803F00073002BF0D15B
:1017CC007B681B6AB3F5803F08D1304B5B6823F410
:1017DC0000327B689B682D4913434B602B4B5B6835
:1017EC0023F474127B68196A7B685B6A0B43274984
:1017FC0013434B60274B01221A60FFF70FFB386134
:10180C0008E0FFF70BFB02463B69D31A022B01D908
:10181C00032337E01D4B1B6803F00073002BF0D043
:10182C002FE01C4B00221A60FFF7F8FA386108E031
:10183C00FFF7F4FA02463B69D31A022B01D90323B2
:10184C0020E0124B1B6803F00073002BF0D118E062
:10185C007B68DB69012B01D1012313E00B4B5B6827
:10186C00FB60FB6803F480327B681B6A9A4206D1EA
:10187C00FB6803F470127B685B6A9A4201D0012307
:10188C0000E0002318461837BD4680BD001002400A
:10189C00007000406000424280B584B000AF7860B8
:1018AC0039607B68002B01D10123D0E06A4B1B68A7
:1018BC0003F007033A689A4210D9674B1B6823F070
:1018CC00070265493B6813430B60634B1B6803F0CD
:1018DC0007033A689A4201D00123B8E07B681B6881
:1018EC0003F00203002B20D07B681B6803F0040379
:1018FC00002B05D0594B5B68584A43F4E0635360A6
:10190C007B681B6803F00803002B05D0534B5B6806
:10191C00524A43F460535360504B5B6823F0F0021F
:10192C007B689B684D4913434B607B681B6803F0D5
:10193C000103002B40D07B685B68012B07D1474B20
:10194C001B6803F40033002B15D101237FE07B6867
:10195C005B68022B07D1414B1B6803F00073002B13
:10196C0009D1012373E03D4B1B6803F00203002BEC
:10197C0001D101236BE0394B5B6823F003027B68D8
:10198C005B68364913434B60FFF748FAF8600AE08E
:10199C00FFF744FA0246FB68D31A41F288329342AD
:1019AC0001D9032353E02D4B5B6803F00C027B68D9
:1019BC005B689B009A42EBD1274B1B6803F0070333
:1019CC003A689A4210D2244B1B6823F00702224932
:1019DC003B6813430B60204B1B6803F007033A680A
:1019EC009A4201D0012332E07B681B6803F00403A8
:1019FC00002B08D0194B5B6823F4E0627B68DB6832
:101A0C00164913434B607B681B6803F00803002BDB
:101A1C0009D0124B5B6823F460527B681B69DB00B6
:101A2C000E4913434B6000F021F802460B4B5B68E8
:101A3C001B0903F00F030A49CB5C22FA03F3094A92
:101A4C001360094B1B681846FFF7A6F900231846CC
:101A5C001037BD4680BD00BF002002400010024080
:101A6C00CC1B0008000000200400002080B487B0CC
:101A7C0000AF0023FB600023BB6000237B610023CD
:101A8C007B6000233B611E4B5B68FB60FB6803F0D3
:101A9C000C03042B02D0082B03D027E0194B3B611D
:101AAC0027E0FB689B0C03F00F03174AD35C7B60A9
:101ABC00FB6803F48033002B10D0114B5B685B0C7C
:101ACC0003F00103114AD35CBB607B680D4A02FB37
:101ADC0003F2BB68B2FBF3F37B6104E07B680C4A56
:101AEC0002FB03F37B617B693B6102E0054B3B61CD
:101AFC0000BF3B6918461C37BD4680BC704700BF11
:101B0C000010024000127A00DC1B0008EC1B0008DD
:101B1C0000093D0080B485B000AF78600A4B1B68AB
:101B2C000A4AA2FB03235B0A7A6802FB03F3FB60FD
:101B3C0000BFFB685A1EFA60002BF9D100BF00BF32
:101B4C001437BD4680BC704700000020D34D621096
:101B5C0070B500260C4D0D4C641BA410A64209D187
:101B6C0000F022F800260A4D0A4C641BA410A64271
:101B7C0005D170BD55F8043B98470136EEE755F892
:101B8C00043B98470136F2E7F01B0008F01B0008F5
:101B9C00F01B0008F41B000803460244934200D1DA
:101BAC00704703F8011BF9E7F8B500BFF8BC08BC97
:101BBC009E467047F8B500BFF8BC08BC9E467047FF
:101BCC0000000000000000000102030406070809E1
:101BDC0002030405060708090A0B0C0D0E0F101062
:041BEC0001020000F2
:041BF00031010008B7
:041BF4000D010008D7
:0C1BF80000127A00100000000100000044
:0400000508000D2DB5
:00000001FF
