:020000040800F2
:1000000000280020351B0008C51A0008CB1A00087C
:10001000D11A0008D71A0008DD1A000800000000F5
:10002000000000000000000000000000E31A0008CB
:10003000EF1A000800000000FB1A0008071B000868
:100040007D1B00087D1B00087D1B00087D1B000830
:100050007D1B00087D1B00087D1B00087D1B000820
:100060007D1B00087D1B00087D1B00087D1B000810
:100070007D1B00087D1B00087D1B00087D1B000800
:100080007D1B00087D1B00087D1B00087D1B0008F0
:100090007D1B00087D1B00087D1B00087D1B0008E0
:1000A0007D1B00087D1B00087D1B00087D1B0008D0
:1000B000151B00087D1B0008000000007D1B0008C8
:1000C0007D1B000800000000000000007D1B0008F0
:1000D000000000007D1B00087D1B000800000000E0
:1000E0007D1B00087D1B00087D1B00080000000030
:1000F0000000000000000000000000000000000000
:0C01000000000000000000005FF808F1A3
:10010C0010B5054C237833B9044B13B10448AFF345
:10011C0000800123237010BD4C0000200000000063
:10012C00AC31000808B5034B1BB103490348AFF3CE
:10013C00008008BD0000000050000020AC31000819
:10014C0080B483B000AF00237B6048E028497A6814
:10015C001346DB009B1A9B000B4401221A602449B6
:10016C007A681346DB009B1A9B000B440433012274
:10017C001A601F497A681346DB009B1A9B000B44DC
:10018C00083301221A601A497A681346DB009B1A5D
:10019C009B000B440C3301221A6015497A681346F4
:1001AC00DB009B1A9B000B4410334FF4FA721A605D
:1001BC000F497A681346DB009B1A9B000B441433DF
:1001CC0000221A600A497A681346DB009B1A9B00CE
:1001DC000B44183300221A607B6801337B607B6808
:1001EC00032BB3DD00BF00BF0C37BD4680BC70478E
:1001FC009400002080B483B000AF78600E497A6818
:10020C001346DB009B1A9B000B4414331B68012B19
:10021C000BD109497A681346DB009B1A9B000B44EF
:10022C00143300221A60012300E0002318460C3717
:10023C00BD4680BC704700BF9400002080B483B0E2
:10024C0000AF786007497A681346DB009B1A9B0065
:10025C000B44143300221A6000BF0C37BD4680BC1F
:10026C00704700BF9400002080B582B000AF00231F
:10027C007B60E9E079497A681346DB009B1A9B00A6
:10028C000B440433196875487A681346DB009B1AD3
:10029C009B0003440833196070497A681346DB00ED
:1002AC009B1A9B000B4419686C487A681346DB0058
:1002BC009B1A9B00034404331960694A7B6852F80B
:1002CC00232068497B6831F813301946104601F039
:1002DC003BFF0346184661497A681346DB009B1ABC
:1002EC009B000B4418605D497A681346DB009B1A2F
:1002FC009B000B440433196858487A681346DB009A
:10030C009B1A9B0003441B68994240F09A80534906
:10031C007A681346DB009B1A9B000B440433196864
:10032C004E487A681346DB009B1A9B000344083343
:10033C001B68994240F0858048497A681346DB0077
:10034C009B1A9B000B440833196844487A6813467F
:10035C00DB009B1A9B0003440C331B68994232D080
:10036C003E497A681346DB009B1A9B000B4408330A
:10037C0019683A487A681346DB009B1A9B000344C1
:10038C000C33196035497A681346DB009B1A9B00C5
:10039C000B440C331B68002B53D130497A6813463D
:1003AC00DB009B1A9B000B4410334FF4FA721A605B
:1003BC002A497A681346DB009B1A9B000B441433C2
:1003CC0001221A603DE025497A681346DB009B1A2E
:1003DC009B000B4410331B68591E20487A68134647
:1003EC00DB009B1A9B000344103319601B497A688D
:1003FC001346DB009B1A9B000B4410331B68002B2D
:10040C001FD116497A681346DB009B1A9B000B44DC
:10041C0010334FF4FA721A6010497A681346DB00F5
:10042C009B1A9B000B440C331B68002B09D10B4906
:10043C007A681346DB009B1A9B000B441433012291
:10044C001A607B6801337B607B68032B7FF712AFEC
:10045C0000BF00BF0837BD4680BD00BF9400002020
:10046C00000000201000002080B500AF0122082100
:10047C00094801F080FE01221021074801F07BFEA3
:10048C0001224021044801F076FE0122802102481D
:10049C0001F071FE00BF80BD0008014080B582B044
:1004AC0000AF78607B68092B00F2808101A252F8C2
:1004BC0023F000BFE90400083105000879050008A5
:1004CC00C105000809060008510600089906000835
:1004DC00E106000829070008710700080022012125
:1004EC00B54801F048FE00220221B34801F043FE5A
:1004FC0000220421B04801F03EFE00220821AE4843
:10050C0001F039FE00221021AB4801F034FE00222C
:10051C002021A94801F02FFE01224021A64801F01C
:10052C002AFE44E101220121A34801F024FE00220D
:10053C000221A14801F01FFE002204219E4801F077
:10054C001AFE012208219C4801F015FE01221021FF
:10055C00994801F010FE01222021974801F00BFE72
:10056C0001224021944801F006FE20E100220121E5
:10057C00914801F000FE002202218F4801F0FBFDA2
:10058C00012204218C4801F0F6FD002208218A4842
:10059C0001F0F1FD00221021874801F0ECFD012251
:1005AC002021854801F0E7FD00224021824801F01E
:1005BC00E2FDFCE0002201217F4801F0DCFD00227D
:1005CC0002217D4801F0D7FD002204217A4801F078
:1005DC00D2FD00220821784801F0CDFD0122102126
:1005EC00754801F0C8FD01222021734801F0C3FDBC
:1005FC0000224021704801F0BEFDD8E0012201210B
:10060C006D4801F0B8FD002202216B4801F0B3FDEA
:10061C0000220421684801F0AEFD01220821664841
:10062C0001F0A9FD01221021634801F0A4FD002274
:10063C002021614801F09FFD002240215E4801F01D
:10064C009AFDB4E0002201215B4801F094FD0122E7
:10065C000221594801F08FFD00220421564801F077
:10066C008AFD00220821544801F085FD0122102149
:10067C00514801F080FD002220214F4801F07BFD04
:10068C00002240214C4801F076FD90E0002201212F
:10069C00494801F070FD01220221474801F06BFD31
:1006AC0000220421444801F066FD00220821424842
:1006BC0001F061FD002210213F4801F05CFD002299
:1006CC0020213D4801F057FD002240213A4801F01D
:1006DC0052FD6CE000220121374801F04CFD002254
:1006EC000221354801F047FD00220421324801F077
:1006FC0042FD01220821304801F03DFD012210216C
:10070C002D4801F038FD012220212B4801F033FD4A
:10071C0001224021284801F02EFD48E00022012151
:10072C00254801F028FD00220221234801F023FD79
:10073C0000220421204801F01EFD002208211E4841
:10074C0001F019FD002210211B4801F014FD0022BC
:10075C002021194801F00FFD00224021164801F01C
:10076C000AFD24E000220121134801F004FD0022BF
:10077C000221114801F0FFFC002204210E4801F077
:10078C00FAFC002208210C4801F0F5FC0122102192
:10079C00094801F0F0FC00222021074801F0EBFC95
:1007AC0000224021044801F0E6FC00E000BF00BF3D
:1007BC000837BD4680BD00BF000C014080B485B039
:1007CC0000AFF860B9607A603B60084AFB68136060
:1007DC00064ABB685360054A7B689360034A3B68D2
:1007EC00D36000BF1437BD4680BC70471800002092
:1007FC0080B500AF504B1B68032B00F2998001A20F
:10080C0052F823F02108000869080008B108000814
:10081C00F9080008FFF728FE01221021474801F0D3
:10082C00AAFC01224021454801F0A5FC01228021AF
:10083C00424801F0A0FC00220821404801F09BFC3A
:10084C003D4B1B683E4A52F823301846FFF726FEF4
:10085C00394B1B680133384A13606AE0FFF704FE1A
:10086C0001220821354801F086FC01224021334841
:10087C0001F081FC01228021304801F07CFC002237
:10088C0010212E4801F077FC2B4B1B682C4A52F898
:10089C0023301846FFF702FE274B1B680133264A0C
:1008AC00136046E0FFF7E0FD01220821234801F028
:1008BC0062FC01221021214801F05DFC0122802103
:1008CC001E4801F058FC002240211C4801F053FC4A
:1008DC00194B1B681A4A52F823301846FFF7DEFDF5
:1008EC00154B1B680133144A136022E0FFF7BCFD63
:1008FC0001220821114801F03EFC012210210F4871
:10090C0001F039FC012240210C4801F034FC00229A
:10091C0080210A4801F02FFC074B1B68084A52F84B
:10092C0023301846FFF7BAFD034B00221A6000E093
:10093C0000BF00BF80BD00BF680000200008014060
:10094C001800002080B500AF01224FF480611148DF
:10095C0001F011FC01224FF400510E4801F00BFC88
:10096C0001224FF480710B4801F005FC01224FF479
:10097C000061084801F0FFFB01224FF400710548AB
:10098C0001F0F9FB01224FF48051024801F0F3FB16
:10099C0000BF80BD0008014080B500AF01224FF4BC
:1009AC000051114801F0E7FB01224FF480710E4811
:1009BC0001F0E1FB01224FF400710B4801F0DBFB6D
:1009CC0001224FF48051084801F0D5FB00224FF46E
:1009DC008061054801F0CFFB00224FF40061024812
:1009EC0001F0C9FB00BF80BD0008014080B500AF1D
:1009FC0001224FF40051114801F0BDFB01224FF4CC
:100A0C0080710E4801F0B7FB01224FF400610B48D6
:100A1C0001F0B1FB01224FF40071084801F0ABFB6F
:100A2C0000224FF48061054801F0A5FB00224FF431
:100A3C008051024801F09FFB00BF80BD00080140BF
:100A4C0080B500AF01224FF48061114801F093FB97
:100A5C0001224FF400610E4801F08DFB01224FF48E
:100A6C0000710B4801F087FB01224FF480510848BC
:100A7C0001F081FB00224FF48071054801F07BFBF3
:100A8C0000224FF40051024801F075FB00BF80BDFD
:100A9C000008014080B500AF01224FF4806111487D
:100AAC0001F069FB01224FF480710E4801F063FBE9
:100ABC0001224FF400610B4801F05DFB01224FF461
:100ACC008051084801F057FB00224FF40071054893
:100ADC0001F051FB00224FF40051024801F04BFB96
:100AEC0000BF80BD0008014080B500AF01224FF46B
:100AFC0080711F4801F03FFB01224FF400611C483C
:100B0C0001F039FB01224FF48051194801F033FBFD
:100B1C0001224FF40071164801F02DFB154B1B6898
:100B2C00002B02D0012B10D01FE000224FF480616B
:100B3C000F4801F020FB00224FF400510C4801F04B
:100B4C001AFB0C4B01221A600FE001224FF480615A
:100B5C00074801F010FB01224FF40051044801F04A
:100B6C000AFB044B00221A6000BF00BF80BD00BF0F
:100B7C00000801406C00002080B500AF01224FF44A
:100B8C0080711F4801F0F7FA01224FF400611C48F4
:100B9C0001F0F1FA01224FF48061194801F0EBFAEF
:100BAC0001224FF40051164801F0E5FA154B1B6871
:100BBC00002B02D0012B10D01FE000224FF48051EB
:100BCC000F4801F0D8FA00224FF400710C4801F0E4
:100BDC00D2FA0C4B01221A600FE001224FF4805123
:100BEC00074801F0C8FA01224FF40071044801F0E3
:100BFC00C2FA044B00221A6000BF00BF80BD00BFC8
:100C0C00000801407000002080B500AF01224FF4B5
:100C1C0080511F4801F0AFFA01224FF400711C48BB
:100C2C0001F0A9FA01224FF48061194801F0A3FAEE
:100C3C0001224FF40051164801F09DFA154B1B6828
:100C4C00002B02D0012B10D01FE000224FF480713A
:100C5C000F4801F090FA00224FF400610C4801F0AB
:100C6C008AFA0C4B01221A600FE001224FF48071BA
:100C7C00074801F080FA01224FF40061044801F0AA
:100C8C007AFA044B00221A6000BF00BF80BD00BF7F
:100C9C00000801407400002080B485B000AFF860FB
:100CAC00B9607A607A68BB681344FA689A4201D1D9
:100CBC00012300E0002318461437BD4680BC704762
:100CCC0080B483B000AF78607B680D4A82FB03125E
:100CDC009210DB17D31A0B4A13607968084B83FB0D
:100CEC0001239A10CB17D21A13469B0013445B00B6
:100CFC00CA1A054B1A6000BF0C37BD4680BC704742
:100D0C00676666668C00002090000020B0B500AFCE
:100D1C00C14B1B68042B00F29A8201A252F823F0FB
:100D2C00410D00080B0E0008170F000845100008B5
:100D3C0051110008FFF706FEFFF796FB002000F0AC
:100D4C0021FE0346012B13D1B34B01221A60B34B86
:100D5C001B68B34A1360B34B1B68B34A1360B14BA7
:100D6C001B68642202FB03F31946002000F0F2FD1D
:100D7C00012000F007FE0346012B32D1A84B1B6863
:100D8C00AA4A82FB03129210DB17D41AA44B1A68DE
:100D9C00A64B83FB02139910D317C91A0B469B0061
:100DAC000B445B00D11AA04B1B68A04A82FB0302C8
:100DBC009210DB17D51A9C4B1A689C4B83FB0203D1
:100DCC009810D317C01A03469B0003445B00D01A3B
:100DDC0003462A462046FFF7F1FC6421012000F06F
:100DEC00B9FD122000F0CEFD0346012B40F03182FC
:100DFC00FFF7FEFC0A21122000F0ACFD29E20020D6
:100E0C00FFF7F8F90346012B12D1894B02221A6025
:100E1C000020FFF713FA0121002000F09BFD0521B3
:100E2C00012000F097FD0A21122000F093FD19E239
:100E3C00FFF7B2FD122000F0A5FD0346012B05D1F2
:100E4C00FFF7D6FC0A21122000F084FD012000F0EF
:100E5C0099FD0346012B3CD1714B1B68013B704A39
:100E6C001360714B1B68013B6F4A13606C4B1B6822
:100E7C006E4A82FB03129210DB17D41A684B1A6865
:100E8C006A4B83FB02139910D317C91A0B469B00AC
:100E9C000B445B00D11A644B1B68644A82FB03024F
:100EAC009210DB17D51A604B1A68604B83FB020358
:100EBC009810D317C01A03469B0003445B00D01A4A
:100ECC0003462A462046FFF779FC6421012000F0F6
:100EDC0041FD002000F056FD0346012B40F0BB8184
:100EEC004D4B02221A60534B1B684D4A1360514BF9
:100EFC001B684D4A13604F4B1B68642202FB03F3C3
:100F0C001946002000F026FDA5E10020FFF772F93C
:100F1C000346012B12D1464B02221A600020FFF728
:100F2C008DF90121002000F015FD0521012000F0B4
:100F3C0011FD0A21122000F00DFD93E1FFF756FD83
:100F4C00122000F01FFD0346012B05D1FFF750FCCA
:100F5C000A21122000F0FEFC012000F013FD0346D4
:100F6C00012B3CD12E4B1B68013B2D4A13602E4BA1
:100F7C001B68013B2C4A1360294B1B682B4A82FBD4
:100F8C0003129210DB17D41A254B1A68274B83FBDC
:100F9C0002139910D317C91A0B469B000B445B0024
:100FAC00D11A214B1B68214A82FB03029210DB17DA
:100FBC00D51A1D4B1A681D4B83FB02039810D317CF
:100FCC00C01A03469B0003445B00D01A03462A4612
:100FDC002046FFF7F3FB6421012000F0BBFC00204E
:100FEC0000F0D0FC0346012B40F037810A4B032262
:100FFC001A600C4B1B680A4A1360084B1B680A4AA0
:10100C001360084B1B68642202FB03F31946002093
:10101C0000F0A0FC21E100BF78000020340000208B
:10102C00800000203C00002084000020676666667B
:10103C007C000020380000200020FFF7DBF803467E
:10104C00012B12D1884B02221A600020FFF7F6F810
:10105C000121002000F07EFC0521012000F07AFC2B
:10106C000A21122000F076FCFCE0FFF7E9FC1220CC
:10107C0000F088FC0346012B05D1FFF7B9FB0A21D0
:10108C00122000F067FC012000F07CFC0346012BD1
:10109C003CD1764B1B68013B744A1360744B1B6844
:1010AC00013B734A1360714B1B68724A82FB03123B
:1010BC009210DB17D41A6D4B1A686E4B83FB02131C
:1010CC009910D317C91A0B469B000B445B00D11A1D
:1010DC00674B1B68674A82FB03029210DB17D51A19
:1010EC00634B1A68634B83FB02039810D317C01A27
:1010FC0003469B0003445B00D01A03462A46204655
:10110C00FFF75CFB6421012000F024FC002000F0C0
:10111C0039FC0346012B40F0A280574B04221A6085
:10112C00564B1B68514A1360544B1B68504A136052
:10113C00524B1B68642202FB03F31946002000F09B
:10114C0009FC8CE00020FFF755F80346012B12D167
:10115C00454B02221A600020FFF770F80121002095
:10116C0000F0F8FB0521012000F0F4FB0A2112200D
:10117C0000F0F0FB76E0FFF78DFC122000F002FC93
:10118C000346012B05D1FFF733FB0A21122000F097
:10119C00E1FB012000F0F6FB0346012B3CD1334B65
:1011AC001B68013B314A1360314B1B68013B304AD1
:1011BC0013602E4B1B682F4A82FB03129210DB1715
:1011CC00D41A2A4B1A682B4B83FB02139910D31792
:1011DC00C91A0B469B000B445B00D11A244B1B68AD
:1011EC00244A82FB03029210DB17D51A204B1A6893
:1011FC00204B83FB02039810D317C01A03469B00A5
:10120C0003445B00D01A03462A462046FFF7D6FA61
:10121C006421012000F09EFB002000F0B3FB03468C
:10122C00012B1ED1144B01221A60154B1B680F4A5F
:10123C001360144B1B680E4A1360124B1B6864221C
:10124C0002FB03F31946002000F084FB09E000BF09
:10125C0008E000BF06E000BF04E000BF02E000BFF2
:10126C0000E000BF00BFB0BD7C000020800000206B
:10127C008400002067666666780000203800002035
:10128C00340000203C00002080B500AF002000F0AE
:10129C0079FB0346012B05D1FFF726FC32210020F8
:1012AC0000F058FB012000F06DFB0346002B0BD126
:1012BC000C4B1A680C4B1B6802210020FFF77EFABE
:1012CC000A21012000F046FB122000F05BFB0346D4
:1012DC00012B05D1FFF78CFA1921122000F03AFBF3
:1012EC0000BF80BD8C0000209000002080B500AFB6
:1012FC00002000F047FB0346012B05D1FFF73CFC17
:10130C003221002000F026FB012000F03BFB0346BD
:10131C00002B0BD10C4B1A680C4B1B6803210020C3
:10132C00FFF74CFA0A21012000F014FB122000F008
:10133C0029FB0346012B05D1FFF75AFA192112207C
:10134C0000F008FB00BF80BD8C0000209000002046
:10135C0080B500AF002000F015FB0346012B05D132
:10136C00FFF752FC3221002000F0F4FA012000F0CB
:10137C0009FB0346002B0BD10C4B1A680C4B1B685A
:10138C0004210020FFF71AFA0A21012000F0E2FAEA
:10139C00122000F0F7FA0346012B05D1FFF728FACB
:1013AC001921122000F0D6FA00BF80BD8C0000205D
:1013BC009000002080B500AF132000F0E3FA034644
:1013CC00012B07D13221132000F0C4FA2021BE4892
:1013DC0000F0E9FE0020FEF731FF01220421BA489B
:1013EC0000F0C9FEB94B1B68042B00F27F8101A2EF
:1013FC0052F823F01514000865140008D9140008DD
:10140C00831500082B160008002300220021002061
:10141C00FFF7D4F9122000F0B5FA0346012B05D1E1
:10142C00FFF7E6F91921122000F094FA0020FEF7DC
:10143C00E1FE0346012B40F05B81A44B01221A60B4
:10144C000020FEF7FBFE0121002000F083FA0521AD
:10145C00012000F07FFA54E19D4B1B689C4A5168B7
:10146C009B4A92681846FFF717FC0346002B0BD0DB
:10147C00974B1B68974A1360954B5B68964A1360B1
:10148C00934B9B68954A1360FFF740FC0020FEF7D6
:10149C00B1FE0346012B40F02D818C4B02221A60C9
:1014AC000020FEF7CBFE0120FEF7C8FE0220FEF75F
:1014BC00C5FE0121002000F04DFA0521012000F0AD
:1014CC0049FA1921122000F045FA1AE1FFF7DCFE67
:1014DC000020FEF78FFE0346012B1BD17B4B032212
:1014EC001A600020FEF7AAFE0121002000F032FA5B
:1014FC000521012000F02EFA1921122000F02AFA01
:10150C00774B00221A60774B00221A60764B002230
:10151C001A60F6E00120FEF76DFE0346012B1BD18D
:10152C00714B1B680133704A13606F4B1B68632B44
:10153C0002DD6D4B00221A606B4B1B681846FFF7DF
:10154C00BFFB674B1A68674B1B6802210020FFF733
:10155C0035F90120FEF772FE0220FEF74BFE034622
:10156C00012B40F0C980604B1B68594A1360022064
:10157C00FEF764FEC0E0FFF7B9FE0020FEF73AFE6E
:10158C000346012B1BD1514B04221A600020FEF79D
:10159C0055FE0121002000F0DDF90521012000F0AD
:1015AC00D9F90A21122000F0D5F94D4B00221A600E
:1015BC004C4B00221A604C4B00221A60A1E0012017
:1015CC00FEF718FE0346012B1BD1474B1B6801335A
:1015DC00454A1360444B1B68632B02DD424B0022CF
:1015EC001A60414B1B681846FFF76AFB3C4B1A68A4
:1015FC003C4B1B6803210020FFF7E0F80120FEF7AD
:10160C001DFE0220FEF7F6FD0346012B76D1364B6C
:10161C001B682F4A53600220FEF710FE6EE0FFF7A6
:10162C0097FE0020FEF7E6FD0346012B1BD1274B4E
:10163C0001221A600020FEF701FE0121002000F0BB
:10164C0089F90521012000F085F90A21122000F00A
:10165C0081F9234B00221A60224B00221A60224B84
:10166C0000221A604DE00120FEF7C4FD0346012B59
:10167C001BD11D4B1B6801331B4A13601A4B1B6893
:10168C00632B02DD184B00221A60174B1B6818469F
:10169C00FFF716FB124B1A68124B1B680421002033
:1016AC00FFF78CF80120FEF7C9FD0220FEF7A2FD22
:1016BC000346012B24D10C4B1B68054A9360022076
:1016CC00FEF7BCFD1CE000BF000801407C000020C0
:1016DC002800002034000020380000203C000020AE
:1016EC008C000020900000208800002000BF08E043
:1016FC0000BF06E000BF04E000BF02E000BF00E056
:10170C0000BF00BF80BD00BF80B500AF00F032FA53
:10171C00FEF716FD00F014F800F04EF800F098F803
:10172C00064801F085F90121132000F013F90A2174
:10173C00122000F00FF9FFF73DFEFCE7040100203A
:10174C0080B590B000AF07F118032822002118468D
:10175C0001F01EFD3B1D00221A605A609A60DA608F
:10176C001A610223BB610123BB621023FB620023BD
:10177C007B6307F11803184600F02EFD0346002B7F
:10178C0001D000F0E1F80F237B600023BB60002345
:10179C00FB6000233B6100237B613B1D002118464D
:1017AC0000F09AFF0346002B01D000F0CDF800BFEB
:1017BC004037BD4680BD000080B586B000AF07F154
:1017CC00080300221A605A609A60DA603B460022D5
:1017DC001A605A601D4B4FF080421A601B4B41F649
:1017EC003F725A60194B00229A60184B0922DA603A
:1017FC00164B00221A61154B00229A61134801F016
:10180C00C7F80346002B01D000F09EF84FF480532C
:10181C00BB6007F1080319460C4801F045FA034672
:10182C00002B01D000F090F800233B6000237B607C
:10183C003B461946054801F01DFC0346002B01D020
:10184C0000F082F800BF1837BD4680BD04010020AF
:10185C0080B586B000AF07F1080300221A605A6009
:10186C009A60DA602F4B9B692E4A43F00403936114
:10187C002C4B9B6903F004037B607B68294B9B69B1
:10188C00284A43F008039361264B9B6903F0080335
:10189C003B603B68002243F6FC71234800F06BFC74
:1018AC0000227F21214800F066FC0423BB60012349
:1018BC00FB6001233B6102237B6107F1080319469E
:1018CC00194800F0C7FA43F6F873BB600123FB60BC
:1018DC0000233B6102237B6107F108031946124880
:1018EC0000F0B8FA7F23BB600123FB6000233B614F
:1018FC0002237B6107F1080319460C4800F0AAFA91
:10190C004FF46043BB600023FB6001233B6107F194
:10191C0008031946054800F09DFA00BF1837BD466C
:10192C0080BD00BF0010024000080140000C0140C7
:10193C0080B582B000AF786000F038F8FEF794FC08
:10194C0000BF0837BD4680BD80B400AF72B600BF83
:10195C00FEE7000080B483B000AF786039600749BF
:10196C007B683A6841F82320054A7B68002142F8DD
:10197C00231000BF0C37BD4680BC70474C010020C3
:10198C009C01002080B483B000AF7860064A7B686D
:10199C0052F82330012B01D1012300E0002318461B
:1019AC000C37BD4680BC70479C01002080B483B0CE
:1019BC0000AF00237B601CE0124A7B6852F8233096
:1019CC00002B13DD0F4A7B6852F823305A1E0D4949
:1019DC007B6841F823200B4A7B6852F82330002B9C
:1019EC0004DC094A7B68012142F823107B6801332F
:1019FC007B607B68132BDFDD00BF00BF0C37BD465F
:101A0C0080BC70474C0100209C01002080B485B044
:101A1C0000AF154B9B69144A43F001039361124BC1
:101A2C009B6903F00103BB60BB680F4BDB690E4A7B
:101A3C0043F08053D3610C4BDB6903F080537B6024
:101A4C007B680A4B5B68FB60FB6823F0E063FB6020
:101A5C00FB6843F08063FB60044AFB68536000BF83
:101A6C001437BD4680BC7047001002400000014096
:101A7C0080B584B000AF78607B681B68B3F1804F91
:101A8C0013D10C4BDB690B4A43F00103D361094BB7
:101A9C00DB6903F00103FB60FB68002200211C20C2
:101AAC0000F0A1F91C2000F0BAF900BF1037BD46B8
:101ABC0080BD00BF0010024080B400AFFEE780B4D0
:101ACC0000AFFEE780B400AFFEE780B400AFFEE7E6
:101ADC0080B400AFFEE780B400AF00BFBD4680BC51
:101AEC00704780B400AF00BFBD4680BC704780B467
:101AFC0000AF00BFBD4680BC704780B500AF00F0A2
:101B0C007FF800BF80BD000080B500AF024800F038
:101B1C00DBFF00BF80BD00BF0401002080B400AF1C
:101B2C0000BFBD4680BC7047FFF7F8FF0B480C495F
:101B3C000C4A002302E0D458C4500433C4188C421D
:101B4C00F9D3094A094C002301E013600432A24284
:101B5C00FBD301F0F9FAFFF7D7FD70470000002026
:101B6C004C000020F03100084C000020F001002057
:101B7C00FEE7000080B500AF084B1B68074A43F036
:101B8C0010031360032000F023F90F2000F008F875
:101B9C00FFF73CFF0023184680BD00BF0020024029
:101BAC0080B582B000AF7860124B1A68124B1B786C
:101BBC0019464FF47A73B3FBF1F3B2FBF3F3184607
:101BCC0000F03BF90346002B01D001230EE07B68AB
:101BDC000F2B0AD8002279684FF0FF3000F003F980
:101BEC00064A7B681360002300E00123184608377F
:101BFC00BD4680BD4000002048000020440000206D
:101C0C0080B400AF054B1B781A46054B1B68134478
:101C1C00034A136000BFBD4680BC704748000020DB
:101C2C00EC01002080B400AF024B1B681846BD4687
:101C3C0080BC7047EC01002080B485B000AF7860A8
:101C4C007B6803F00703FB600C4BDB68BB60BA6876
:101C5C004FF6FF031340BB60FB681A02BB681343CB
:101C6C0043F0BF6343F40033BB60044ABB68D360EA
:101C7C0000BF1437BD4680BC704700BF00ED00E0CC
:101C8C0080B400AF044BDB681B0A03F00703184653
:101C9C00BD4680BC704700BF00ED00E080B483B04F
:101CAC0000AF0346FB7197F90730002B0BDBFB7978
:101CBC0003F01F02064997F907305B09012000FA6F
:101CCC0002F241F8232000BF0C37BD4680BC7047A0
:101CDC0000E100E080B483B000AF03463960FB71D3
:101CEC0097F90730002B0ADB3B68DAB20C4997F9FD
:101CFC0007301201D2B20B4483F800230AE03B6890
:101D0C00DAB20849FB7903F00F03043B1201D2B29B
:101D1C000B441A7600BF0C37BD4680BC704700BF21
:101D2C0000E100E000ED00E080B489B000AFF860A5
:101D3C00B9607A60FB6803F00703FB61FB69C3F1D0
:101D4C000703042B28BF0423BB61FB690433062B58
:101D5C0002D9FB69033B00E000237B614FF0FF32AB
:101D6C00BB6902FA03F3DA43BB681A407B699A40F9
:101D7C004FF0FF317B6901FA03F3D9437B680B40C9
:101D8C00134318462437BD4680BC704780B582B0DB
:101D9C0000AF78607B68013BB3F1807F01D30123F6
:101DAC000FE00A4A7B68013B53600F214FF0FF3074
:101DBC00FFF790FF054B00229A60044B07221A6034
:101DCC00002318460837BD4680BD00BF10E000E078
:101DDC0080B582B000AF78607868FFF72DFF00BF48
:101DEC000837BD4680BD80B586B000AF0346B960EC
:101DFC007A60FB7300237B61FFF742FF78617A689E
:101E0C00B9687869FFF790FF024697F90F301146D1
:101E1C001846FFF75FFF00BF1837BD4680BD80B581
:101E2C0082B000AF0346FB7197F907301846FFF7F5
:101E3C0035FF00BF0837BD4680BD80B582B000AF0E
:101E4C0078607868FFF7A2FF034618460837BD464E
:101E5C0080BD000080B48BB000AF78603960002387
:101E6C007B6200233B6248E101227B6A02FA03F3A6
:101E7C00FB613B681B68FA691340BB61BA69FB697B
:101E8C009A4240F037813B685B68A34A93425ED02C
:101E9C00A14A934275D8A14A934258D09F4A934283
:101EAC006FD89F4A934252D09D4A934269D89D4A1B
:101EBC0093424CD09B4A934263D89B4A934246D060
:101ECC00994A93425DD8122B2AD8122B59D801A2C9
:101EDC0052F823F05B1F0008351F0008471F00084D
:101EEC00891F00088F1F00088F1F00088F1F000814
:101EFC008F1F00088F1F00088F1F00088F1F0008FE
:101F0C008F1F00088F1F00088F1F00088F1F0008ED
:101F1C008F1F00088F1F00083D1F0008511F00086D
:101F2C00824A934213D02CE03B68DB683B6229E089
:101F3C003B68DB6804333B6224E03B68DB680833B6
:101F4C003B621FE03B68DB680C333B621AE03B688A
:101F5C009B68002B02D104233B6213E03B689B6817
:101F6C00012B05D108233B627B68FA691A6109E0F1
:101F7C0008233B627B68FA695A6103E000233B62E9
:101F8C0000E000BFBB69FF2B01D87B6801E07B68D8
:101F9C0004337B61BB69FF2B02D87B6A9B0002E098
:101FAC007B6A083B9B003B617B691A680F213B698C
:101FBC0001FA03F3DB431A40396A3B6901FA03F374
:101FCC001A437B691A603B685B6803F08053002BF3
:101FDC0000F09080564B9B69554A43F00103936186
:101FEC00534B9B6903F00103BB60BB68514A7B6A8E
:101FFC009B08023352F82330FB607B6A03F0030327
:10200C009B000F2202FA03F3DB43FA681340FB60D8
:10201C007B68494A93420DD07B68484A934207D06B
:10202C007B68474A934201D1022304E0032302E078
:10203C00012300E000237A6A02F00302920093402D
:10204C00FA681343FB603B497B6A9B080233FA68CE
:10205C0041F823203B685B6803F48013002B06D007
:10206C00384B9A683749BB6913438B6006E0354B94
:10207C009A68BB69DB43334913408B603B685B68F0
:10208C0003F40013002B06D02E4BDA682D49BB69E4
:10209C001343CB6006E02B4BDA68BB69DB43294961
:1020AC001340CB603B685B6803F40033002B06D015
:1020BC00244B5A682349BB6913434B6006E0214B00
:1020CC005A68BB69DB431F4913404B603B685B6834
:1020DC0003F48033002B06D01A4B1A681949BB69DC
:1020EC0013430B6006E0174B1A68BB69DB431549B9
:1020FC0013400B607B6A01337B623B681A687B6A16
:10210C0022FA03F3002B7FF4AFAE00BF00BF2C37D5
:10211C00BD4680BC704700BF00003210000031107B
:10212C0000002210000021100000121000001110FD
:10213C00001002400000014000080140000C01406A
:10214C00001001400004014080B485B000AF7860FD
:10215C000B467B807B689A687B881340002B02D0EF
:10216C000123FB7301E00023FB73FB7B1846143740
:10217C00BD4680BC704780B483B000AF78600B461E
:10218C007B8013467B707B78002B03D07A887B682E
:10219C001A6103E07B881A047B681A6100BF0C3754
:1021AC00BD4680BC704780B485B000AF78600B46EC
:1021BC007B807B68DB68FB607A88FB6813401A04C1
:1021CC00FB68D9437B880B401A437B681A6100BFBC
:1021DC001437BD4680BC704780B586B000AF7860C0
:1021EC007B68002B01D101236CE27B681B6803F038
:1021FC000103002B00F08780924B5B6803F00C030B
:10220C00042B0CD08F4B5B6803F00C03082B12D102
:10221C008C4B5B6803F48033B3F5803F0BD1894B57
:10222C001B6803F40033002B6CD07B685B68002BBD
:10223C0068D1012346E27B685B68B3F5803F06D129
:10224C00804B1B687F4A43F4803313602EE07B681D
:10225C005B68002B0CD17B4B1B687A4A23F48033D0
:10226C001360784B1B68774A23F4802313601DE0BE
:10227C007B685B68B3F5A02F0CD1724B1B68714A5D
:10228C0043F4802313606F4B1B686E4A43F4803316
:10229C0013600BE06B4B1B686A4A23F480331360AA
:1022AC00684B1B68674A23F4802313607B685B6868
:1022BC00002B13D0FFF7B6FC386108E0FFF7B2FC37
:1022CC0002463B69D31A642B01D90323FAE15D4B17
:1022DC001B6803F40033002BF0D014E0FFF7A2FCD2
:1022EC00386108E0FFF79EFC02463B69D31A642B69
:1022FC0001D90323E6E1534B1B6803F40033002B95
:10230C00F0D100E000BF7B681B6803F00203002BD8
:10231C0063D04C4B5B6803F00C03002B0BD0494B88
:10232C005B6803F00C03082B1CD1464B5B6803F471
:10233C008033002B16D1434B1B6803F00203002B98
:10234C0005D07B681B69012B01D00123BAE13D4B01
:10235C001B6823F0F8027B685B69DB003949134387
:10236C000B603AE07B681B69002B20D0364B0122B6
:10237C001A60FFF757FC386108E0FFF753FC024680
:10238C003B69D31A022B01D903239BE12D4B1B680C
:10239C0003F00203002BF0D02A4B1B6823F0F80249
:1023AC007B685B69DB00274913430B6015E0264B08
:1023BC0000221A60FFF736FC386108E0FFF732FCA8
:1023CC0002463B69D31A022B01D903237AE11D4B38
:1023DC001B6803F00203002BF0D17B681B6803F031
:1023EC000803002B3AD07B689B69002B19D0174B44
:1023FC0001221A60FFF716FC386108E0FFF712FCA7
:10240C0002463B69D31A022B01D903235AE10D4B27
:10241C005B6A03F00203002BF0D0012000F09AFA63
:10242C001CE00A4B00221A60FFF7FCFB38610FE03E
:10243C00FFF7F8FB02463B69D31A022B08D903239A
:10244C0040E100BF001002400000424280044242C2
:10245C009E4B5B6A03F00203002BE9D17B681B687F
:10246C0003F00403002B00F0A6800023FB75974BB0
:10247C00DB6903F08053002B0DD1944BDB69934A3D
:10248C0043F08053D361914BDB6903F08053BB6005
:10249C00BB680123FB758E4B1B6803F48073002B08
:1024AC0018D18B4B1B688A4A43F480731360FFF777
:1024BC00B9FB386108E0FFF7B5FB02463B69D31A5C
:1024CC00642B01D90323FDE0814B1B6803F480735B
:1024DC00002BF0D07B68DB68012B06D17B4B1B6A91
:1024EC007A4A43F0010313622DE07B68DB68002B12
:1024FC000CD1764B1B6A754A23F001031362734BA4
:10250C001B6A724A23F0040313621CE07B68DB68CD
:10251C00052B0CD16D4B1B6A6C4A43F00403136200
:10252C006A4B1B6A694A43F0010313620BE0674B69
:10253C001B6A664A23F001031362644B1B6A634AED
:10254C0023F0040313627B68DB68002B15D0FFF7C4
:10255C0069FB38610AE0FFF765FB02463B69D31A59
:10256C0041F28832934201D90323ABE0574B1B6AEB
:10257C0003F00203002BEED014E0FFF753FB38619D
:10258C000AE0FFF74FFB02463B69D31A41F288324F
:10259C00934201D9032395E04C4B1B6A03F00203D1
:1025AC00002BEED1FB7D012B05D1484BDB69474A53
:1025BC0023F08053D3617B68DB69002B00F08180B2
:1025CC00424B5B6803F00C03082B61D07B68DB6922
:1025DC00022B46D13F4B00221A60FFF723FB3861D8
:1025EC0008E0FFF71FFB02463B69D31A022B01D907
:1025FC00032367E0354B1B6803F00073002BF0D10D
:10260C007B681B6AB3F5803F08D1304B5B6823F4C1
:10261C0000327B689B682D4913434B602B4B5B68E6
:10262C0023F474127B68196A7B685B6A0B43274935
:10263C0013434B60274B01221A60FFF7F3FA386102
:10264C0008E0FFF7EFFA02463B69D31A022B01D9D7
:10265C00032337E01D4B1B6803F00073002BF0D0F5
:10266C002FE01C4B00221A60FFF7DCFA386108E0FF
:10267C00FFF7D8FA02463B69D31A022B01D9032380
:10268C0020E0124B1B6803F00073002BF0D118E014
:10269C007B68DB69012B01D1012313E00B4B5B68D9
:1026AC00FB60FB6803F480327B681B6A9A4206D19C
:1026BC00FB6803F470127B685B6A9A4201D00123B9
:1026CC0000E0002318461837BD4680BD00100240BC
:1026DC00007000406000424280B584B000AF78606A
:1026EC0039607B68002B01D10123D0E06A4B1B6859
:1026FC0003F007033A689A4210D9674B1B6823F022
:10270C00070265493B6813430B60634B1B6803F07E
:10271C0007033A689A4201D00123B8E07B681B6832
:10272C0003F00203002B20D07B681B6803F004032A
:10273C00002B05D0594B5B68584A43F4E063536057
:10274C007B681B6803F00803002B05D0534B5B68B8
:10275C00524A43F460535360504B5B6823F0F002D1
:10276C007B689B684D4913434B607B681B6803F087
:10277C000103002B40D07B685B68012B07D1474BD2
:10278C001B6803F40033002B15D101237FE07B6819
:10279C005B68022B07D1414B1B6803F00073002BC5
:1027AC0009D1012373E03D4B1B6803F00203002B9E
:1027BC0001D101236BE0394B5B6823F003027B688A
:1027CC005B68364913434B60FFF72CFAF8600AE05C
:1027DC00FFF728FA0246FB68D31A41F2883293427B
:1027EC0001D9032353E02D4B5B6803F00C027B688B
:1027FC005B689B009A42EBD1274B1B6803F00703E5
:10280C003A689A4210D2244B1B6823F007022249E3
:10281C003B6813430B60204B1B6803F007033A68BB
:10282C009A4201D0012332E07B681B6803F0040359
:10283C00002B08D0194B5B6823F4E0627B68DB68E3
:10284C00164913434B607B681B6803F00803002B8D
:10285C0009D0124B5B6823F460527B681B69DB0068
:10286C000E4913434B6000F021F802460B4B5B689A
:10287C001B0903F00F030A49CB5C22FA03F3094A44
:10288C001360094B1B681846FFF78AF9002318469A
:10289C001037BD4680BD00BF002002400010024032
:1028AC00C4310008400000204400002080B487B0F0
:1028BC0000AF0023FB600023BB6000237B6100237F
:1028CC007B6000233B611E4B5B68FB60FB6803F085
:1028DC000C03042B02D0082B03D027E0194B3B61CF
:1028EC0027E0FB689B0C03F00F03174AD35C7B605B
:1028FC00FB6803F48033002B10D0114B5B685B0C2E
:10290C0003F00103114AD35CBB607B680D4A02FBE8
:10291C0003F2BB68B2FBF3F37B6104E07B680C4A07
:10292C0002FB03F37B617B693B6102E0054B3B617E
:10293C0000BF3B6918461C37BD4680BC704700BFC2
:10294C000010024000127A00D4310008E431000873
:10295C0000093D0080B485B000AF78600A4B1B685D
:10296C000A4AA2FB03235B0A7A6802FB03F3FB60AF
:10297C0000BFFB685A1EFA60002BF9D100BF00BFE4
:10298C001437BD4680BC704740000020D34D621008
:10299C0080B582B000AF78607B68002B01D1012339
:1029AC0041E07B6893F83D30DBB2002B06D17B68AD
:1029BC00002283F83C207868FFF75AF87B680222E3
:1029CC0083F83D207B681A687B68043319461046EF
:1029DC0000F056FA7B68012283F846207B680122BE
:1029EC0083F83E207B68012283F83F207B6801221C
:1029FC0083F840207B68012283F841207B68012208
:102A0C0083F842207B68012283F843207B680122F3
:102A1C0083F844207B68012283F845207B680122DF
:102A2C0083F83D20002318460837BD4680BD0000C2
:102A3C0080B485B000AF78607B6893F83D30DBB232
:102A4C00012B01D0012335E07B68022283F83D2065
:102A5C007B681B68DA687B681B6842F00102DA60ED
:102A6C007B681B68164A934209D07B681B68B3F1DC
:102A7C00804F04D07B681B68124A934211D17B684B
:102A8C001B689B6803F00703FB60FB68062B10D0E8
:102A9C007B681B681A687B681B6842F001021A602D
:102AAC0007E07B681B681A687B681B6842F00102B0
:102ABC001A60002318461437BD4680BC704700BF0F
:102ACC00002C01400004004080B584B000AF786059
:102ADC007B681B68DB68FB607B681B681B69BB60E1
:102AEC00BB6803F00203002B20D0FB6803F0020349
:102AFC00002B1BD07B681B686FF002021A617B688D
:102B0C0001221A777B681B689B6903F00303002B77
:102B1C0003D0786800F098F905E0786800F08BF93C
:102B2C00786800F09AF97B6800221A77BB6803F08A
:102B3C000403002B20D0FB6803F00403002B1BD0F4
:102B4C007B681B686FF004021A617B6802221A779B
:102B5C007B681B689B6903F44073002B03D0786877
:102B6C0000F072F905E0786800F065F9786800F01B
:102B7C0074F97B6800221A77BB6803F00803002BFA
:102B8C0020D0FB6803F00803002B1BD07B681B686C
:102B9C006FF008021A617B6804221A777B681B6845
:102BAC00DB6903F00303002B03D0786800F04CF9C9
:102BBC0005E0786800F03FF9786800F04EF97B6822
:102BCC0000221A77BB6803F01003002B20D0FB689F
:102BDC0003F01003002B1BD07B681B686FF01002F6
:102BEC001A617B6808221A777B681B68DB6903F41F
:102BFC004073002B03D0786800F026F905E0786864
:102C0C0000F019F9786800F028F97B6800221A772F
:102C1C00BB6803F00103002B0CD0FB6803F001032D
:102C2C00002B07D07B681B686FF001021A61786873
:102C3C00FEF77EFEBB6803F08003002B0CD0FB6814
:102C4C0003F08003002B07D07B681B686FF08002B9
:102C5C001A61786800F06FFABB6803F04003002B30
:102C6C000CD0FB6803F04003002B07D07B681B687B
:102C7C006FF040021A61786800F0F8F8BB6803F056
:102C8C002003002B0CD0FB6803F02003002B07D093
:102C9C007B681B686FF020021A61786800F042FABA
:102CAC0000BF1037BD4680BD80B584B000AF7860E2
:102CBC0039600023FB737B6893F83C30012B01D106
:102CCC000223B4E07B68012283F83C207B6802225B
:102CDC0083F83D207B681B689B68BB60BB6823F056
:102CEC007703BB60BB6823F47F43BB607B681B68C6
:102CFC00BA689A603B681B68B3F5005F3ED0B3F5C9
:102D0C00005F00F28780B3F5805F00F08680B3F53A
:102D1C00805F7FD8702B1AD0702B7BD8602B50D053
:102D2C00602B77D8502B3CD0502B73D8402B58D0DD
:102D3C00402B6FD8302B64D0302B6BD8202B60D02D
:102D4C00202B67D8002B5CD0102B5AD062E07B680C
:102D5C0018683B6899683B685A683B68DB6800F008
:102D6C006AF97B681B689B68BB60BB6843F07703A0
:102D7C00BB607B681B68BA689A604FE07B68186818
:102D8C003B6899683B685A683B68DB6800F053F90C
:102D9C007B681B689A687B681B6842F480429A6067
:102DAC003CE07B6818683B6859683B68DB681A46EE
:102DBC0000F0CAF87B681B685021184600F021F916
:102DCC002CE07B6818683B6859683B68DB681A46DE
:102DDC0000F0E8F87B681B686021184600F011F9D8
:102DEC001CE07B6818683B6859683B68DB681A46CE
:102DFC0000F0AAF87B681B684021184600F001F926
:102E0C000CE07B681A683B681B681946104600F09A
:102E1C00F8F803E00123FB7300E000BF7B6801229C
:102E2C0083F83D207B68002283F83C20FB7B18460E
:102E3C001037BD4680BD80B483B000AF786000BF52
:102E4C000C37BD4680BC704780B483B000AF78604F
:102E5C0000BF0C37BD4680BC704780B483B000AF58
:102E6C00786000BF0C37BD4680BC704780B483B01F
:102E7C0000AF786000BF0C37BD4680BC70470000C7
:102E8C0080B485B000AF786039607B681B68FB60EC
:102E9C007B682B4A934207D07B68B3F1804F03D0F9
:102EAC007B68284A934208D1FB6823F07003FB60CF
:102EBC003B685B68FA681343FB607B68204A93426B
:102ECC0007D07B68B3F1804F03D07B681D4A9342D7
:102EDC0008D1FB6823F44073FB603B68DB68FA683D
:102EEC001343FB60FB6823F080023B685B69134370
:102EFC00FB607B68FA681A603B689A687B68DA62E8
:102F0C003B681A687B689A627B680D4A934203D1CE
:102F1C003B681A697B681A637B6801225A617B687B
:102F2C001B6903F00103002B05D07B681B6923F0A0
:102F3C0001027B681A6100BF1437BD4680BC704724
:102F4C00002C01400004004080B487B000AFF86052
:102F5C00B9607A60FB681B6A7B61FB681B6A23F0B3
:102F6C000102FB681A62FB689B693B613B6923F0B9
:102F7C00F0033B617B681B013A6913433B617B693E
:102F8C0023F00A037B617A69BB6813437B61FB689E
:102F9C003A699A61FB687A691A6200BF1C37BD46B0
:102FAC0080BC704780B487B000AFF860B9607A60BD
:102FBC00FB681B6A7B61FB681B6A23F01002FB68D1
:102FCC001A62FB689B693B613B6923F470433B616C
:102FDC007B681B033A6913433B617B6923F0A003B5
:102FEC007B61BB681B017A6913437B61FB683A699F
:102FFC009A61FB687A691A6200BF1C37BD4680BCB7
:10300C00704780B485B000AF786039607B689B688E
:10301C00FB60FB6823F07003FB603A68FB681343AA
:10302C0043F00703FB607B68FA689A6000BF1437B3
:10303C00BD4680BC704780B487B000AFF860B96003
:10304C007A603B60FB689B687B617B6923F47F4300
:10305C007B613B681A027B681A43BB6813437A692D
:10306C0013437B61FB687A699A6000BF1C37BD46CD
:10307C0080BC704780B485B000AF786039607B68E5
:10308C0093F83C30012B01D1022341E07B680122F3
:10309C0083F83C207B68022283F83D207B681B6808
:1030AC005B68FB607B681B689B68BB60FB6823F0FC
:1030BC007003FB603B681B68FA681343FB607B681A
:1030CC001B68FA685A607B681B68144A934209D0E3
:1030DC007B681B68B3F1804F04D07B681B68104A77
:1030EC0093420CD1BB6823F08003BB603B685B68E8
:1030FC00BA681343BB607B681B68BA689A607B68CC
:10310C00012283F83D207B68002283F83C200023B9
:10311C0018461437BD4680BC704700BF002C0140D8
:10312C000004004080B483B000AF786000BF0C375F
:10313C00BD4680BC704780B483B000AF786000BFE0
:10314C000C37BD4680BC704770B500260C4D0D4C3D
:10315C00641BA410A64209D100F022F800260A4DE7
:10316C000A4C641BA410A64205D170BD55F8043B53
:10317C0098470136EEE755F8043B98470136F2E7DD
:10318C00E8310008E8310008E8310008EC310008AB
:10319C0003460244934200D1704703F8011BF9E740
:1031AC00F8B500BFF8BC08BC9E467047F8B500BF28
:0831BC00F8BC08BC9E467047F8
:1031C40000000000000000000102030406070809D3
:1031D40002030405060708090A0B0C0D0E0F101054
:0431E40001020000E4
:0431E80031010008A9
:0431EC000D010008C9
:1031F000000C0140000C0140000C014000000000E8
:1032000000200040008000000100000002000000DB
:10321000030000000400000007000000020000009E
:10322000050000000700000002000000050000008B
:0C32300000127A001000000001000000F5
:0400000508001B359F
:00000001FF
