:020000040800F2
:100000000028002099110008291100082F1100086C
:10001000351100083B1100084111000800000000E4
:100020000000000000000000000000004711000870
:1000300053110008000000005F1100086B11000858
:10004000E1110008E1110008E1110008E1110008C8
:10005000E1110008E1110008E1110008E1110008B8
:10006000E1110008E1110008E1110008E1110008A8
:10007000E1110008E1110008E1110008E111000898
:10008000E1110008E1110008E1110008E111000888
:10009000E1110008E1110008E1110008E111000878
:1000A000E1110008E1110008E1110008E111000868
:1000B00079110008E111000800000000E1110008BA
:1000C000E11100080000000000000000E11100083C
:1000D00000000000E1110008E1110008000000002C
:1000E000E1110008E1110008E11100080000000022
:1000F0000000000000000000000000000000000000
:0C01000000000000000000005FF808F1A3
:10010C0010B5054C237833B9044B13B10448AFF345
:10011C0000800123237010BD30000020000000007F
:10012C001028000808B5034B1BB103490348AFF373
:10013C00008008BD000000003400002010280008DA
:10014C0080B400AF064B1B68012B04D1044B00227A
:10015C001A60012300E000231846BD4680BC70479E
:10016C004C00002080B500AF244B1B68244A136060
:10017C00244B1B68214A13604FF40051224801F0B4
:10018C0015FB03461A461F4B1A601C4B1A681D4B75
:10019C001B689A422FD1194B1A68194B1B689A424B
:1001AC0029D1174B1A68194B1B689A420FD0144B64
:1001BC001B68164A1360154B1B68002B1BD1144B84
:1001CC004FF4FA721A60134B01221A6013E0104BB1
:1001DC001B68013B0E4A13600D4B1B68002B0AD1A8
:1001EC000B4B4FF4FA721A60084B1B68002B02D1B0
:1001FC00084B01221A6000BF80BD00BF0400002024
:10020C000800002000000020000C01400C00002021
:10021C00100000204C00002080B500AF0122082106
:10022C00094801F0DAFA01221021074801F0D5FA49
:10023C0001224021044801F0D0FA01228021024819
:10024C0001F0CBFA00BF80BD0008014080B582B040
:10025C0000AF78607B68092B00F2808101A252F814
:10026C0023F000BF99020008E102000829030008EE
:10027C0071030008B90300080104000849040008D0
:10028C0091040008D904000821050008002201216E
:10029C00B54801F0A2FA00220221B34801F09DFA00
:1002AC0000220421B04801F098FA00220821AE483F
:1002BC0001F093FA00221021AB4801F08EFA0022D3
:1002CC002021A94801F089FA01224021A64801F019
:1002DC0084FA44E101220121A34801F07EFA0022B4
:1002EC000221A14801F079FA002204219E4801F074
:1002FC0074FA012208219C4801F06FFA01221021A6
:10030C00994801F06AFA01222021974801F065FA18
:10031C0001224021944801F060FA20E100220121E1
:10032C00914801F05AFA002202218F4801F055FA47
:10033C00012204218C4801F050FA002208218A483D
:10034C0001F04BFA00221021874801F046FA0122F5
:10035C002021854801F041FA00224021824801F019
:10036C003CFAFCE0002201217F4801F036FA002221
:10037C0002217D4801F031FA002204217A4801F073
:10038C002CFA00220821784801F027FA01221021CA
:10039C00754801F022FA01222021734801F01DFA60
:1003AC0000224021704801F018FAD8E00122012106
:1003BC006D4801F012FA002202216B4801F00DFA8F
:1003CC0000220421684801F008FA0122082166483D
:1003DC0001F003FA01221021634801F0FEF900221A
:1003EC002021614801F0F9F9002240215E4801F01A
:1003FC00F4F9B4E0002201215B4801F0EEF901228E
:10040C000221594801F0E9F900220421564801F073
:10041C00E4F900220821544801F0DFF901221021EF
:10042C00514801F0DAF9002220214F4801F0D5F9AA
:10043C00002240214C4801F0D0F990E0002201212B
:10044C00494801F0CAF901220221474801F0C5F9D7
:10045C0000220421444801F0C0F90022082142483E
:10046C0001F0BBF9002210213F4801F0B6F900223F
:10047C0020213D4801F0B1F9002240213A4801F019
:10048C00ACF96CE000220121374801F0A6F90022FA
:10049C000221354801F0A1F900220421324801F073
:1004AC009CF901220821304801F097F90122102112
:1004BC002D4801F092F9012220212B4801F08DF9F1
:1004CC0001224021284801F088F948E0002201214E
:1004DC00254801F082F900220221234801F07DF920
:1004EC0000220421204801F078F9002208211E483E
:1004FC0001F073F9002210211B4801F06EF9002263
:10050C002021194801F069F900224021164801F018
:10051C0064F924E000220121134801F05EF9002265
:10052C000221114801F059F9002204210E4801F072
:10053C0054F9002208210C4801F04FF90122102136
:10054C00094801F04AF900222021074801F045F939
:10055C0000224021044801F040F900E000BF00BF38
:10056C000837BD4680BD00BF000C014080B485B08B
:10057C0000AFF860B9607A603B60084AFB681360B2
:10058C00064ABB685360054A7B689360034A3B6824
:10059C00D36000BF1437BD4680BC704714000020E8
:1005AC0080B500AF4C4B1B68032B00F2918001A26D
:1005BC0052F823F0D105000815060008590600086A
:1005CC009D06000800220821444801F006F901228A
:1005DC001021424801F001F9012240213F4801F06D
:1005EC00FCF8012280213D4801F0F7F83A4B1B68DA
:1005FC003B4A52F823301846FFF728FE364B1B684F
:10060C000133354A136064E001220821334801F0BC
:10061C00E4F800221021314801F0DFF801224021DA
:10062C002E4801F0DAF8012280212C4801F0D5F88F
:10063C00294B1B682A4A52F823301846FFF706FE4E
:10064C00254B1B680133244A136042E00122082128
:10065C00224801F0C2F801221021204801F0BDF817
:10066C00002240211D4801F0B8F8012280211B48CE
:10067C0001F0B3F8184B1B68194A52F8233018468E
:10068C00FFF7E4FD144B1B680133134A136020E0A1
:10069C0001220821114801F0A0F8012210210F4875
:1006AC0001F09BF8012240210C4801F096F8002241
:1006BC0080210A4801F091F8074B1B68084A52F850
:1006CC0023301846FFF7C2FD034B00221A6000E0EE
:1006DC0000BF00BF80BD00BF5000002000080140DB
:1006EC001400002080B500AF01224FF48061114846
:1006FC0001F073F801224FF400510E4801F06DF82F
:10070C0001224FF480710B4801F067F801224FF47D
:10071C000061084801F061F801224FF400710548AE
:10072C0001F05BF801224FF48051024801F055F8BA
:10073C0000BF80BD0008014080B500AF01224FF41E
:10074C000051114801F049F801224FF480710E4814
:10075C0001F043F801224FF400710B4801F03DF811
:10076C0001224FF48051084801F037F800224FF471
:10077C008061054801F031F800224FF40061024815
:10078C0001F02BF800BF80BD0008014080B500AF20
:10079C0001224FF40051114801F01FF801224FF4CF
:1007AC0080710E4801F019F801224FF400610B48DA
:1007BC0001F013F801224FF40071084801F00DF814
:1007CC0000224FF48061054801F007F800224FF435
:1007DC008051024801F001F800BF80BD00080140C3
:1007EC0080B500AF01224FF48061114800F0F5FF95
:1007FC0001224FF400610E4800F0EFFF01224FF48C
:10080C0000710B4800F0E9FF01224FF480510848B9
:10081C0000F0E3FF00224FF48071054800F0DDFF8B
:10082C0000224FF40051024800F0D7FF00BF80BDFA
:10083C000008014080B500AF01224FF480611148DF
:10084C0000F0CBFF01224FF480710E4800F0C5FF81
:10085C0001224FF400610B4800F0BFFF01224FF45E
:10086C008051084800F0B9FF00224FF40071054890
:10087C0000F0B3FF00224FF40051024800F0ADFF2E
:10088C0000BF80BD0008014080B500AF01224FF4CD
:10089C0080711F4800F0A1FF01224FF400611C4839
:1008AC0000F09BFF01224FF48051194800F095FF96
:1008BC0001224FF40071164800F08FFF154B1B6896
:1008CC00002B02D0012B10D01FE000224FF48061CE
:1008DC000F4800F082FF00224FF400510C4800F04A
:1008EC007CFF0C4B01221A600FE001224FF4806157
:1008FC00074800F072FF01224FF40051044800F049
:10090C006CFF044B00221A6000BF00BF80BD00BF0B
:10091C00000801405400002080B500AFAE4B1B68AE
:10092C00042B00F24B8101A252F823F04D09000870
:10093C00C1090008430A0008C70A0008470B000851
:10094C00FFF7D0FEFFF768FC002000F04DFB0346DC
:10095C00012B0DD1A04B01221A60A04B07221A606B
:10096C009F4B05221A604FF4FA71002000F024FB13
:10097C00012000F039FB0346012B0DD1974B186871
:10098C00974B1968954B1A68954B1B68FFF7EEFD52
:10099C006421012000F010FB122000F025FB03461F
:1009AC00012B40F00D81FFF7FBFD0A21122000F016
:1009BC0003FB05E1FFF7C0FE122000F015FB034618
:1009CC00012B05D1FFF7ECFD0A21122000F0F4FAFF
:1009DC00012000F009FB0346012B17D17F4B1B684C
:1009EC00013B7E4A13607E4B1B68013B7C4A1360C3
:1009FC007A4B18687A4B1968784B1A68784B1B68D5
:100A0C00FFF7B4FD6421012000F0D6FA002000F0BD
:100A1C00EBFA0346012B40F0D5806F4B02221A6093
:100A2C006E4B02221A606E4B02221A60C821002003
:100A3C0000F0C2FAC6E0FFF7A9FE122000F0D4FACB
:100A4C000346012B05D1FFF7ABFD1421122000F05A
:100A5C00B3FA012000F0C8FA0346012B17D15F4B03
:100A6C001B68013B5D4A13605D4B1B68013B5C4A94
:100A7C0013605A4B18685A4B1968584B1A68584BE4
:100A8C001B68FFF773FD6421012000F095FA00202C
:100A9C0000F0AAFA0346012B40F096804E4B03223D
:100AAC001A604E4B05221A604D4B07221A604FF408
:100ABC00FA71002000F080FA86E0FFF791FE122018
:100ACC0000F092FA0346012B05D1FFF769FD0A21CC
:100ADC00122000F071FA012000F086FA0346012B77
:100AEC0017D13E4B1B68013B3C4A13603C4B1B68C7
:100AFC00013B3B4A1360394B1868394B1968374B2B
:100B0C001A68374B1B68FFF731FD6421012000F098
:100B1C0053FA002000F068FA0346012B56D12E4BF5
:100B2C0004221A602D4B02221A602D4B02221A60ED
:100B3C00C821002000F040FA48E0FFF77BFE1220AD
:100B4C0000F052FA0346012B05D1FFF729FD0A21CB
:100B5C00122000F031FA012000F046FA0346012B76
:100B6C0017D11E4B1B68013B1C4A13601C4B1B68A6
:100B7C00013B1B4A1360194B1868194B1968174B2A
:100B8C001A68174B1B68FFF7F1FC6421012000F079
:100B9C0013FA002000F028FA0346012B18D10E4B53
:100BAC0001221A600D4B07221A600D4B05221A60A8
:100BBC004FF4FA71002000F0FFF909E000BF08E0E3
:100BCC0000BF06E000BF04E000BF02E000BF00E091
:100BDC0000BF00BF80BD00BF580000206000002097
:100BEC006400002080B500AF002000F0FDF9034642
:100BFC00012B05D1FFF748FE3221002000F0DCF973
:100C0C00012000F0F1F90346002B0BD1184B1A68A8
:100C1C00184B1B6802210020FFF7A8FC0A210120B9
:100C2C0000F0CAF9122000F0DFF90346012B05D1C0
:100C3C00FFF7B6FC0A21122000F0BEF9FFF780FA8C
:100C4C000346012B11D10C4B03221A600B4B0022D3
:100C5C001A600121002000F0AFF90521012000F0FD
:100C6C00ABF90A21122000F0A7F900BF80BD00BF2C
:100C7C00680000206C0000205C0000204C0000206C
:100C8C0080B400AF00BFBD4680BC704780B400AFDD
:100C9C0000BFBD4680BC704780B500AF132000F08C
:100CAC00A3F90346012B07D13221132000F084F95C
:100CBC002021334800F0A9FD324B00221A60324B40
:100CCC001B68042B55D801A252F823F0ED0C000838
:100CDC00390D00086D0D0008730D0008790D000822
:100CEC000023002200210020FFF740FC122000F01E
:100CFC007BF90346012B05D1FFF752FC0A21122088
:100D0C0000F05AF9FFF71CFA0346012B33D11E4BA6
:100D1C0001221A601B4B00221A600121002000F0F6
:100D2C004BF90521012000F047F924E0FFF7F4FD11
:100D3C00FFF706FA0346012B1FD1134B02221A6050
:100D4C00104B00221A600121002000F035F905211A
:100D5C00012000F031F90A21122000F02DF90DE0EC
:100D6C00FFF740FF0AE0FFF78BFF07E0FFF78EFF6E
:100D7C0004E000BF02E000BF00E000BF00BF80BD88
:100D8C00000801404C0000205C00002080B500AF42
:100D9C0000F022FA00F014F800F04EF800F098F889
:100DAC00064801F077F90121132000F005F96421C0
:100DBC00122000F001F9FFF76FFFFCE77000002034
:100DCC0080B590B000AF07F1180328220021184617
:100DDC0001F010FD3B1D00221A605A609A60DA6027
:100DEC001A610223BB610123BB621023FB62002347
:100DFC007B6307F11803184600F020FD0346002B17
:100E0C0001D000F0D3F80F237B600023BB600023DC
:100E1C00FB6000233B6100237B613B1D00211846D6
:100E2C0000F08CFF0346002B01D000F0BFF800BF90
:100E3C004037BD4680BD000080B586B000AF07F1DD
:100E4C00080300221A605A609A60DA603B4600225E
:100E5C001A605A601D4B4FF080421A601B4B41F6D2
:100E6C003F725A60194B00229A60184B0922DA60C3
:100E7C00164B00221A61154B00229A61134801F09F
:100E8C00B9F80346002B01D000F090F84FF48053D2
:100E9C00BB6007F1080319460C4801F037FA03460A
:100EAC00002B01D000F082F800233B6000237B6014
:100EBC003B461946054801F00FFC0346002B01D0B8
:100ECC0000F074F800BF1837BD4680BD70000020DC
:100EDC0080B586B000AF07F1080300221A605A6093
:100EEC009A60DA60284B9B69274A43F004039361AC
:100EFC00254B9B6903F004037B607B68224B9B6949
:100F0C00214A43F0080393611F4B9B6903F00803CC
:100F1C003B603B68002243F6F8711C4800F05DFC16
:100F2C0000227F211A4800F058FC43F6F873BB608E
:100F3C000123FB6000233B6102237B6107F1080363
:100F4C001946124800F0B8FA7F23BB600123FB60FE
:100F5C0000233B6102237B6107F1080319460C480F
:100F6C0000F0AAFA4FF46043BB600023FB6001233E
:100F7C003B6107F108031946054800F09DFA00BFD4
:100F8C001837BD4680BD00BF00100240000801406C
:100F9C00000C014080B582B000AF786000F038F8EA
:100FAC00FFF7E0F800BF0837BD4680BD80B400AF46
:100FBC0072B600BFFEE7000080B483B000AF78606B
:100FCC00396007497B683A6841F82320054A7B68F9
:100FDC00002142F8231000BF0C37BD4680BC70477F
:100FEC00B80000200801002080B483B000AF786006
:100FFC00064A7B6852F82330012B01D1012300E013
:10100C00002318460C37BD4680BC704708010020F1
:10101C0080B483B000AF00237B601CE0124A7B6875
:10102C0052F82330002B13DD0F4A7B6852F8233023
:10103C005A1E0D497B6841F823200B4A7B6852F8F5
:10104C002330002B04DC094A7B68012142F8231071
:10105C007B6801337B607B68132BDFDD00BF00BF37
:10106C000C37BD4680BC7047B8000020080100203A
:10107C0080B485B000AF154B9B69144A43F0010353
:10108C009361124B9B6903F00103BB60BB680F4B70
:10109C00DB690E4A43F08053D3610C4BDB6903F0E0
:1010AC0080537B607B680A4B5B68FB60FB6823F0BA
:1010BC00E063FB60FB6843F08063FB60044AFB6801
:1010CC00536000BF1437BD4680BC7047001002400F
:1010DC000000014080B584B000AF78607B681B686D
:1010EC00B3F1804F13D10C4BDB690B4A43F0010376
:1010FC00D361094BDB6903F00103FB60FB68002241
:10110C0000211C2000F0A1F91C2000F0BAF900BF4E
:10111C001037BD4680BD00BF0010024080B400AF48
:10112C00FEE780B400AFFEE780B400AFFEE780B40A
:10113C0000AFFEE780B400AFFEE780B400AF00BFA5
:10114C00BD4680BC704780B400AF00BFBD4680BCBC
:10115C00704780B400AF00BFBD4680BC704780B5FF
:10116C0000AF00F07FF800BF80BD000080B500AF7D
:10117C00024800F0DBFF00BF80BD00BF7000002004
:10118C0080B400AF00BFBD4680BC7047FFF7F8FFCE
:10119C000B480C490C4A002302E0D458C4500433C9
:1011AC00C4188C42F9D3094A094C002301E013609E
:1011BC000432A242FBD301F0F9FAFFF7E7FD7047C6
:1011CC0000000020300000205428000830000020CF
:1011DC005C010020FEE7000080B500AF084B1B68E7
:1011EC00074A43F010031360032000F023F90F208B
:1011FC0000F008F8FFF73CFF0023184680BD00BF45
:10120C000020024080B582B000AF7860124B1A68A3
:10121C00124B1B7819464FF47A73B3FBF1F3B2FB04
:10122C00F3F3184600F03BF90346002B01D00123E1
:10123C000EE07B680F2B0AD8002279684FF0FF3044
:10124C0000F003F9064A7B681360002300E00123D9
:10125C0018460837BD4680BD240000202C00002015
:10126C002800002080B400AF054B1B781A46054BB4
:10127C001B681344034A136000BFBD4680BC704713
:10128C002C0000205801002080B400AF024B1B68DA
:10129C001846BD4680BC70475801002080B485B00C
:1012AC0000AF78607B6803F00703FB600C4BDB68D6
:1012BC00BB60BA684FF6FF031340BB60FB681A02B1
:1012CC00BB68134343F0BF6343F40033BB60044A71
:1012DC00BB68D36000BF1437BD4680BC704700BFED
:1012EC0000ED00E080B400AF044BDB681B0A03F098
:1012FC0007031846BD4680BC704700BF00ED00E0F8
:10130C0080B483B000AF0346FB7197F90730002B14
:10131C000BDBFB7903F01F02064997F907305B09D9
:10132C00012000FA02F241F8232000BF0C37BD4621
:10133C0080BC704700E100E080B483B000AF03468E
:10134C003960FB7197F90730002B0ADB3B68DAB286
:10135C000C4997F907301201D2B20B4483F80023E1
:10136C000AE03B68DAB20849FB7903F00F03043B4F
:10137C001201D2B20B441A7600BF0C37BD4680BCAA
:10138C00704700BF00E100E000ED00E080B489B0E0
:10139C0000AFF860B9607A60FB6803F00703FB618B
:1013AC00FB69C3F10703042B28BF0423BB61FB6952
:1013BC000433062B02D9FB69033B00E000237B615D
:1013CC004FF0FF32BB6902FA03F3DA43BB681A40F1
:1013DC007B699A404FF0FF317B6901FA03F3D943E3
:1013EC007B680B40134318462437BD4680BC7047BE
:1013FC0080B582B000AF78607B68013BB3F1807F31
:10140C0001D301230FE00A4A7B68013B53600F2193
:10141C004FF0FF30FFF790FF054B00229A60044B12
:10142C0007221A60002318460837BD4680BD00BF4E
:10143C0010E000E080B582B000AF78607868FFF70C
:10144C002DFF00BF0837BD4680BD80B586B000AF0C
:10145C000346B9607A60FB7300237B61FFF742FFA0
:10146C0078617A68B9687869FFF790FF024697F956
:10147C000F3011461846FFF75FFF00BF1837BD4607
:10148C0080BD80B582B000AF0346FB7197F9073081
:10149C001846FFF735FF00BF0837BD4680BD80B545
:1014AC0082B000AF78607868FFF7A2FF0346184659
:1014BC000837BD4680BD000080B48BB000AF7860AB
:1014CC00396000237B6200233B6248E101227B6A86
:1014DC0002FA03F3FB613B681B68FA691340BB61BA
:1014EC00BA69FB699A4240F037813B685B68A34A52
:1014FC0093425ED0A14A934275D8A14A934258D0E8
:10150C009F4A93426FD89F4A934252D09D4A93422E
:10151C0069D89D4A93424CD09B4A934263D89B4ACC
:10152C00934246D0994A93425DD8122B2AD8122B5B
:10153C0059D801A252F823F0BF15000899150008DC
:10154C00AB150008ED150008F3150008F31500089D
:10155C00F3150008F3150008F3150008F31500083F
:10156C00F3150008F3150008F3150008F31500082F
:10157C00F3150008F3150008F3150008A115000871
:10158C00B5150008824A934213D02CE03B68DB6807
:10159C003B6229E03B68DB6804333B6224E03B6838
:1015AC00DB6808333B621FE03B68DB680C333B6253
:1015BC001AE03B689B68002B02D104233B6213E0CA
:1015CC003B689B68012B05D108233B627B68FA6959
:1015DC001A6109E008233B627B68FA695A6103E0EF
:1015EC0000233B6200E000BFBB69FF2B01D87B6886
:1015FC0001E07B6804337B61BB69FF2B02D87B6AFB
:10160C009B0002E07B6A083B9B003B617B691A688C
:10161C000F213B6901FA03F3DB431A40396A3B693A
:10162C0001FA03F31A437B691A603B685B6803F0A9
:10163C008053002B00F09080564B9B69554A43F029
:10164C0001039361534B9B6903F00103BB60BB68BF
:10165C00514A7B6A9B08023352F82330FB607B6A49
:10166C0003F003039B000F2202FA03F3DB43FA6837
:10167C001340FB607B68494A93420DD07B68484A13
:10168C00934207D07B68474A934201D1022304E07E
:10169C00032302E0012300E000237A6A02F0030234
:1016AC0092009340FA681343FB603B497B6A9B08AA
:1016BC000233FA6841F823203B685B6803F480131B
:1016CC00002B06D0384B9A683749BB6913438B60A3
:1016DC0006E0354B9A68BB69DB43334913408B609A
:1016EC003B685B6803F40013002B06D02E4BDA68C2
:1016FC002D49BB691343CB6006E02B4BDA68BB6901
:10170C00DB4329491340CB603B685B6803F400332F
:10171C00002B06D0244B5A682349BB6913434B60FA
:10172C0006E0214B5A68BB69DB431F4913404B60F1
:10173C003B685B6803F48033002B06D01A4B1A68A5
:10174C001949BB6913430B6006E0174B1A68BB6958
:10175C00DB43154913400B607B6A01337B623B68AA
:10176C001A687B6A22FA03F3002B7FF4AFAE00BF3A
:10177C0000BF2C37BD4680BC704700BF0000321044
:10178C000000311000002210000021100000121087
:10179C000000111000100240000001400008014040
:1017AC00000C0140001001400004014080B485B0E1
:1017BC0000AF78600B467B807B689A687B8813400F
:1017CC00002B02D00123FB7301E00023FB73FB7B96
:1017DC0018461437BD4680BC704780B483B000AF48
:1017EC0078600B467B8013467B707B78002B03D094
:1017FC007A887B681A6103E07B881A047B681A611B
:10180C0000BF0C37BD4680BC704780B485B000AFBC
:10181C0078600B467B807B68DB68FB607A88FB68B2
:10182C0013401A04FB68D9437B880B401A437B682E
:10183C001A6100BF1437BD4680BC704780B586B0B6
:10184C0000AF78607B68002B01D101236CE27B68D0
:10185C001B6803F00103002B00F08780924B5B6840
:10186C0003F00C03042B0CD08F4B5B6803F00C03C0
:10187C00082B12D18C4B5B6803F48033B3F5803F9B
:10188C000BD1894B1B6803F40033002B6CD07B68A5
:10189C005B68002B68D1012346E27B685B68B3F57B
:1018AC00803F06D1804B1B687F4A43F48033136022
:1018BC002EE07B685B68002B0CD17B4B1B687A4A53
:1018CC0023F480331360784B1B68774A23F480230E
:1018DC0013601DE07B685B68B3F5A02F0CD1724BD5
:1018EC001B68714A43F4802313606F4B1B686E4A6C
:1018FC0043F4803313600BE06B4B1B686A4A23F490
:10190C0080331360684B1B68674A23F48023136091
:10191C007B685B68002B13D0FFF7B6FC386108E0DE
:10192C00FFF7B2FC02463B69D31A642B01D903239F
:10193C00FAE15D4B1B6803F40033002BF0D014E08C
:10194C00FFF7A2FC386108E0FFF79EFC02463B69FA
:10195C00D31A642B01D90323E6E1534B1B6803F420
:10196C000033002BF0D100E000BF7B681B6803F054
:10197C000203002B63D04C4B5B6803F00C03002B71
:10198C000BD0494B5B6803F00C03082B1CD1464B66
:10199C005B6803F48033002B16D1434B1B6803F0B8
:1019AC000203002B05D07B681B69012B01D001239E
:1019BC00BAE13D4B1B6823F0F8027B685B69DB00E6
:1019CC00394913430B603AE07B681B69002B20D02C
:1019DC00364B01221A60FFF757FC386108E0FFF71D
:1019EC0053FC02463B69D31A022B01D903239BE11A
:1019FC002D4B1B6803F00203002BF0D02A4B1B6805
:101A0C0023F0F8027B685B69DB00274913430B600A
:101A1C0015E0264B00221A60FFF736FC386108E00F
:101A2C00FFF732FC02463B69D31A022B01D9032380
:101A3C007AE11D4B1B6803F00203002BF0D17B688D
:101A4C001B6803F00803002B3AD07B689B69002BC2
:101A5C0019D0174B01221A60FFF716FC386108E009
:101A6C00FFF712FC02463B69D31A022B01D9032360
:101A7C005AE10D4B5B6A03F00203002BF0D00120FE
:101A8C0000F09AFA1CE00A4B00221A60FFF7FCFBEC
:101A9C0038610FE0FFF7F8FB02463B69D31A022BC3
:101AAC0008D9032340E100BF00100240000042426D
:101ABC00800442429E4B5B6A03F00203002BE9D187
:101ACC007B681B6803F00403002B00F0A680002346
:101ADC00FB75974BDB6903F08053002B0DD1944BB6
:101AEC00DB69934A43F08053D361914BDB6903F07C
:101AFC008053BB60BB680123FB758E4B1B6803F4E2
:101B0C008073002B18D18B4B1B688A4A43F480736B
:101B1C001360FFF7B9FB386108E0FFF7B5FB02462D
:101B2C003B69D31A642B01D90323FDE0814B1B685D
:101B3C0003F48073002BF0D07B68DB68012B06D19B
:101B4C007B4B1B6A7A4A43F0010313622DE07B68DE
:101B5C00DB68002B0CD1764B1B6A754A23F0010312
:101B6C001362734B1B6A724A23F0040313621CE06A
:101B7C007B68DB68052B0CD16D4B1B6A6C4A43F000
:101B8C00040313626A4B1B6A694A43F00103136234
:101B9C000BE0674B1B6A664A23F001031362644B2C
:101BAC001B6A634A23F0040313627B68DB68002B17
:101BBC0015D0FFF769FB38610AE0FFF765FB0246B9
:101BCC003B69D31A41F28832934201D90323ABE02B
:101BDC00574B1B6A03F00203002BEED014E0FFF707
:101BEC0053FB38610AE0FFF74FFB02463B69D31AFF
:101BFC0041F28832934201D9032395E04C4B1B6A86
:101C0C0003F00203002BEED1FB7D012B05D1484BD9
:101C1C00DB69474A23F08053D3617B68DB69002B77
:101C2C0000F08180424B5B6803F00C03082B61D001
:101C3C007B68DB69022B46D13F4B00221A60FFF711
:101C4C0023FB386108E0FFF71FFB02463B69D31A00
:101C5C00022B01D9032367E0354B1B6803F000739B
:101C6C00002BF0D17B681B6AB3F5803F08D1304B59
:101C7C005B6823F400327B689B682D4913434B60EF
:101C8C002B4B5B6823F474127B68196A7B685B6A64
:101C9C000B43274913434B60274B01221A60FFF774
:101CAC00F3FA386108E0FFF7EFFA02463B69D31A02
:101CBC00022B01D9032337E01D4B1B6803F0007383
:101CCC00002BF0D02FE01C4B00221A60FFF7DCFA3F
:101CDC00386108E0FFF7D8FA02463B69D31A022BA9
:101CEC0001D9032320E0124B1B6803F00073002B77
:101CFC00F0D118E07B68DB69012B01D1012313E0E3
:101D0C000B4B5B68FB60FB6803F480327B681B6ADF
:101D1C009A4206D1FB6803F470127B685B6A9A42A4
:101D2C0001D0012300E0002318461837BD4680BDC2
:101D3C0000100240007000406000424280B584B048
:101D4C0000AF786039607B68002B01D10123D0E0B3
:101D5C006A4B1B6803F007033A689A4210D9674B29
:101D6C001B6823F0070265493B6813430B60634B08
:101D7C001B6803F007033A689A4201D00123B8E0CC
:101D8C007B681B6803F00203002B20D07B681B6868
:101D9C0003F00403002B05D0594B5B68584A43F4FD
:101DAC00E06353607B681B6803F00803002B05D0CD
:101DBC00534B5B68524A43F460535360504B5B681F
:101DCC0023F0F0027B689B684D4913434B607B68A2
:101DDC001B6803F00103002B40D07B685B68012B70
:101DEC0007D1474B1B6803F40033002B15D101239B
:101DFC007FE07B685B68022B07D1414B1B6803F0CB
:101E0C000073002B09D1012373E03D4B1B6803F0D9
:101E1C000203002B01D101236BE0394B5B6823F0EB
:101E2C0003027B685B68364913434B60FFF72CFA5F
:101E3C00F8600AE0FFF728FA0246FB68D31A41F271
:101E4C008832934201D9032353E02D4B5B6803F096
:101E5C000C027B685B689B009A42EBD1274B1B689A
:101E6C0003F007033A689A4210D2244B1B6823F004
:101E7C00070222493B6813430B60204B1B6803F09D
:101E8C0007033A689A4201D0012332E07B681B6851
:101E9C0003F00403002B08D0194B5B6823F4E062B9
:101EAC007B68DB68164913434B607B681B6803F047
:101EBC000803002B09D0124B5B6823F460527B683B
:101ECC001B69DB000E4913434B6000F021F80246FE
:101EDC000B4B5B681B0903F00F030A49CB5C22FA1E
:101EEC0003F3094A1360094B1B681846FFF78AF97C
:101EFC00002318461037BD4680BD00BF00200240AD
:101F0C00001002402828000824000020280000208F
:101F1C0080B487B000AF0023FB600023BB600023BC
:101F2C007B6100237B6000233B611E4B5B68FB6085
:101F3C00FB6803F00C03042B02D0082B03D027E022
:101F4C00194B3B6127E0FB689B0C03F00F03174A0E
:101F5C00D35C7B60FB6803F48033002B10D0114BF7
:101F6C005B685B0C03F00103114AD35CBB607B68BC
:101F7C000D4A02FB03F2BB68B2FBF3F37B6104E096
:101F8C007B680C4A02FB03F37B617B693B6102E0DB
:101F9C00054B3B6100BF3B6918461C37BD4680BCF6
:101FAC00704700BF0010024000127A003828000869
:101FBC004828000800093D0080B485B000AF786067
:101FCC000A4B1B680A4AA2FB03235B0A7A6802FBD2
:101FDC0003F3FB6000BFFB685A1EFA60002BF9D1BB
:101FEC0000BF00BF1437BD4680BC704724000020E2
:101FFC00D34D621080B582B000AF78607B68002B47
:10200C0001D1012341E07B6893F83D30DBB2002B1A
:10201C0006D17B68002283F83C207868FFF75AF8D9
:10202C007B68022283F83D207B681A687B68043346
:10203C001946104600F056FA7B68012283F84620B8
:10204C007B68012283F83E207B68012283F83F20C5
:10205C007B68012283F840207B68012283F84120B1
:10206C007B68012283F842207B68012283F843209D
:10207C007B68012283F844207B68012283F8452089
:10208C007B68012283F83D20002318460837BD46A3
:10209C0080BD000080B485B000AF78607B6893F899
:1020AC003D30DBB2012B01D0012335E07B680222ED
:1020BC0083F83D207B681B68DA687B681B6842F0FC
:1020CC000102DA607B681B68164A934209D07B6870
:1020DC001B68B3F1804F04D07B681B68124A934293
:1020EC0011D17B681B689B6803F00703FB60FB68DE
:1020FC00062B10D07B681B681A687B681B6842F043
:10210C0001021A6007E07B681B681A687B681B6811
:10211C0042F001021A60002318461437BD4680BCF9
:10212C00704700BF002C01400004004080B584B013
:10213C0000AF78607B681B68DB68FB607B681B68A2
:10214C001B69BB60BB6803F00203002B20D0FB684B
:10215C0003F00203002B1BD07B681B686FF002029C
:10216C001A617B6801221A777B681B689B6903F0F4
:10217C000303002B03D0786800F098F905E0786829
:10218C0000F08BF9786800F09AF97B6800221A77D6
:10219C00BB6803F00403002B20D0FB6803F004039E
:1021AC00002B1BD07B681B686FF004021A617B68E4
:1021BC0002221A777B681B689B6903F44073002B1F
:1021CC0003D0786800F072F905E0786800F065F9E2
:1021DC00786800F074F97B6800221A77BB6803F00A
:1021EC000803002B20D0FB6803F00803002B1BD046
:1021FC007B681B686FF008021A617B6804221A77EF
:10220C007B681B68DB6903F00303002B03D0786841
:10221C0000F04CF905E0786800F03FF9786800F0C0
:10222C004EF97B6800221A77BB6803F01003002B71
:10223C0020D0FB6803F01003002B1BD07B681B68BD
:10224C006FF010021A617B6808221A777B681B6892
:10225C00DB6903F44073002B03D0786800F026F997
:10226C0005E0786800F019F9786800F028F97B68C7
:10227C0000221A77BB6803F00103002B0CD0FB681B
:10228C0003F00103002B07D07B681B686FF0010281
:10229C001A617868FEF77EFEBB6803F08003002BA2
:1022AC000CD0FB6803F08003002B07D07B681B6805
:1022BC006FF080021A61786800F06FFABB6803F067
:1022CC004003002B0CD0FB6803F04003002B07D01D
:1022DC007B681B686FF040021A61786800F0F8F8B0
:1022EC00BB6803F02003002B0CD0FB6803F0200329
:1022FC00002B07D07B681B686FF020021A6178688E
:10230C0000F042FA00BF1037BD4680BD80B584B0E6
:10231C0000AF786039600023FB737B6893F83C3026
:10232C00012B01D10223B4E07B68012283F83C200D
:10233C007B68022283F83D207B681B689B68BB602E
:10234C00BB6823F07703BB60BB6823F47F43BB609F
:10235C007B681B68BA689A603B681B68B3F5005FC2
:10236C003ED0B3F5005F00F28780B3F5805F00F0DC
:10237C008680B3F5805F7FD8702B1AD0702B7BD8FA
:10238C00602B50D0602B77D8502B3CD0502B73D86F
:10239C00402B58D0402B6FD8302B64D0302B6BD8BF
:1023AC00202B60D0202B67D8002B5CD0102B5AD060
:1023BC0062E07B6818683B6899683B685A683B68C0
:1023CC00DB6800F06AF97B681B689B68BB60BB68C4
:1023DC0043F07703BB607B681B68BA689A604FE078
:1023EC007B6818683B6899683B685A683B68DB688F
:1023FC0000F053F97B681B689A687B681B6842F491
:10240C0080429A603CE07B6818683B6859683B687E
:10241C00DB681A4600F0CAF87B681B685021184626
:10242C0000F021F92CE07B6818683B6859683B6820
:10243C00DB681A4600F0E8F87B681B6860211846D8
:10244C0000F011F91CE07B6818683B6859683B6820
:10245C00DB681A4600F0AAF87B681B684021184616
:10246C0000F001F90CE07B681A683B681B681946A0
:10247C00104600F0F8F803E00123FB7300E000BF06
:10248C007B68012283F83D207B68002283F83C2086
:10249C00FB7B18461037BD4680BD80B483B000AFBF
:1024AC00786000BF0C37BD4680BC704780B483B0E9
:1024BC0000AF786000BF0C37BD4680BC704780B45D
:1024CC0083B000AF786000BF0C37BD4680BC70474E
:1024DC0080B483B000AF786000BF0C37BD4680BCC1
:1024EC007047000080B485B000AF786039607B68BD
:1024FC001B68FB607B682B4A934207D07B68B3F167
:10250C00804F03D07B68284A934208D1FB6823F0A4
:10251C007003FB603B685B68FA681343FB607B6885
:10252C00204A934207D07B68B3F1804F03D07B687D
:10253C001D4A934208D1FB6823F44073FB603B684F
:10254C00DB68FA681343FB60FB6823F080023B688E
:10255C005B691343FB607B68FA681A603B689A6896
:10256C007B68DA623B681A687B689A627B680D4A02
:10257C00934203D13B681A697B681A637B6801221A
:10258C005A617B681B6903F00103002B05D07B6843
:10259C001B6923F001027B681A6100BF1437BD462A
:1025AC0080BC7047002C01400004004080B487B010
:1025BC0000AFF860B9607A60FB681B6A7B61FB68EE
:1025CC001B6A23F00102FB681A62FB689B693B6182
:1025DC003B6923F0F0033B617B681B013A691343B1
:1025EC003B617B6923F00A037B617A69BB68134307
:1025FC007B61FB683A699A61FB687A691A6200BF71
:10260C001C37BD4680BC704780B487B000AFF86003
:10261C00B9607A60FB681B6A7B61FB681B6A23F0FC
:10262C001002FB681A62FB689B693B613B6923F4EF
:10263C0070433B617B681B033A6913433B617B69C5
:10264C0023F0A0037B61BB681B017A6913437B6198
:10265C00FB683A699A61FB687A691A6200BF1C3799
:10266C00BD4680BC704780B485B000AF78603960DF
:10267C007B689B68FB60FB6823F07003FB603A6827
:10268C00FB68134343F00703FB607B68FA689A60AE
:10269C0000BF1437BD4680BC704780B487B000AF14
:1026AC00F860B9607A603B60FB689B687B617B6912
:1026BC0023F47F437B613B681A027B681A43BB6837
:1026CC0013437A6913437B61FB687A699A6000BF94
:1026DC001C37BD4680BC704780B485B000AF7860B5
:1026EC0039607B6893F83C30012B01D1022341E027
:1026FC007B68012283F83C207B68022283F83D2012
:10270C007B681B685B68FB607B681B689B68BB60B5
:10271C00FB6823F07003FB603B681B68FA6813438B
:10272C00FB607B681B68FA685A607B681B68144AFC
:10273C00934209D07B681B68B3F1804F04D07B684F
:10274C001B68104A93420CD1BB6823F08003BB601A
:10275C003B685B68BA681343BB607B681B68BA68EC
:10276C009A607B68012283F83D207B68002283F805
:10277C003C20002318461437BD4680BC704700BF70
:10278C00002C01400004004080B483B000AF78609E
:10279C0000BF0C37BD4680BC704780B483B000AF1F
:1027AC00786000BF0C37BD4680BC704770B5002602
:1027BC000C4D0D4C641BA410A64209D100F022F85C
:1027CC0000260A4D0A4C641BA410A64205D170BD0C
:1027DC0055F8043B98470136EEE755F8043B98470B
:1027EC000136F2E74C2800084C2800084C28000859
:1027FC005028000803460244934200D1704703F866
:10280C00011BF9E7F8B500BFF8BC08BC9E46704741
:0C281C00F8B500BFF8BC08BC9E46704731
:102828000000000000000000010203040607080978
:1028380002030405060708090A0B0C0D0E0F1010F9
:042848000102000089
:04284C00310100084E
:042850000D0100086E
:102854000100000001000000010000000100000070
:10286400F401000001000000020000000300000069
:102874000400000000127A001000000001000000B3
:040000050800119945
:00000001FF
