:020000040800F2
:1000000000280020391B0008C91A0008CF1A000870
:10001000D51A0008DB1A0008E11A000800000000E9
:10002000000000000000000000000000E71A0008C7
:10003000F31A000800000000FF1A00080B1B00085C
:10004000811B0008811B0008811B0008811B000820
:10005000811B0008811B0008811B0008811B000810
:10006000811B0008811B0008811B0008811B000800
:10007000811B0008811B0008811B0008811B0008F0
:10008000811B0008811B0008811B0008811B0008E0
:10009000811B0008811B0008811B0008811B0008D0
:1000A000811B0008811B0008811B0008811B0008C0
:1000B000191B0008811B000800000000811B0008BC
:1000C000811B00080000000000000000811B0008E8
:1000D00000000000811B0008811B000800000000D8
:1000E000811B0008811B0008811B00080000000024
:1000F0000000000000000000000000000000000000
:0C01000000000000000000005FF808F1A3
:10010C0010B5054C237833B9044B13B10448AFF345
:10011C0000800123237010BD4C0000200000000063
:10012C00B031000808B5034B1BB103490348AFF3CA
:10013C00008008BD0000000050000020B031000815
:10014C0080B483B000AF00237B6048E028497A6814
:10015C001346DB009B1A9B000B4401221A602449B6
:10016C007A681346DB009B1A9B000B440433012274
:10017C001A601F497A681346DB009B1A9B000B44DC
:10018C00083301221A601A497A681346DB009B1A5D
:10019C009B000B440C3301221A6015497A681346F4
:1001AC00DB009B1A9B000B4410334FF4FA721A605D
:1001BC000F497A681346DB009B1A9B000B441433DF
:1001CC0000221A600A497A681346DB009B1A9B00CE
:1001DC000B44183300221A607B6801337B607B6808
:1001EC00032BB3DD00BF00BF0C37BD4680BC70478E
:1001FC009400002080B483B000AF78600E497A6818
:10020C001346DB009B1A9B000B4414331B68012B19
:10021C000BD109497A681346DB009B1A9B000B44EF
:10022C00143300221A60012300E0002318460C3717
:10023C00BD4680BC704700BF9400002080B483B0E2
:10024C0000AF786007497A681346DB009B1A9B0065
:10025C000B44143300221A6000BF0C37BD4680BC1F
:10026C00704700BF9400002080B582B000AF00231F
:10027C007B60E9E079497A681346DB009B1A9B00A6
:10028C000B440433196875487A681346DB009B1AD3
:10029C009B0003440833196070497A681346DB00ED
:1002AC009B1A9B000B4419686C487A681346DB0058
:1002BC009B1A9B00034404331960694A7B6852F80B
:1002CC00232068497B6831F813301946104601F039
:1002DC003DFF0346184661497A681346DB009B1ABA
:1002EC009B000B4418605D497A681346DB009B1A2F
:1002FC009B000B440433196858487A681346DB009A
:10030C009B1A9B0003441B68994240F09A80534906
:10031C007A681346DB009B1A9B000B440433196864
:10032C004E487A681346DB009B1A9B000344083343
:10033C001B68994240F0858048497A681346DB0077
:10034C009B1A9B000B440833196844487A6813467F
:10035C00DB009B1A9B0003440C331B68994232D080
:10036C003E497A681346DB009B1A9B000B4408330A
:10037C0019683A487A681346DB009B1A9B000344C1
:10038C000C33196035497A681346DB009B1A9B00C5
:10039C000B440C331B68002B53D130497A6813463D
:1003AC00DB009B1A9B000B4410334FF4FA721A605B
:1003BC002A497A681346DB009B1A9B000B441433C2
:1003CC0001221A603DE025497A681346DB009B1A2E
:1003DC009B000B4410331B68591E20487A68134647
:1003EC00DB009B1A9B000344103319601B497A688D
:1003FC001346DB009B1A9B000B4410331B68002B2D
:10040C001FD116497A681346DB009B1A9B000B44DC
:10041C0010334FF4FA721A6010497A681346DB00F5
:10042C009B1A9B000B440C331B68002B09D10B4906
:10043C007A681346DB009B1A9B000B441433012291
:10044C001A607B6801337B607B68032B7FF712AFEC
:10045C0000BF00BF0837BD4680BD00BF9400002020
:10046C00000000201000002080B500AF0122082100
:10047C00094801F082FE01221021074801F07DFE9F
:10048C0001224021044801F078FE0122802102481B
:10049C0001F073FE00BF80BD0008014080B582B042
:1004AC0000AF78607B68092B00F2808101A252F8C2
:1004BC0023F000BFE90400083105000879050008A5
:1004CC00C105000809060008510600089906000835
:1004DC00E106000829070008710700080022012125
:1004EC00B54801F04AFE00220221B34801F045FE56
:1004FC0000220421B04801F040FE00220821AE4841
:10050C0001F03BFE00221021AB4801F036FE002228
:10051C002021A94801F031FE01224021A64801F01A
:10052C002CFE44E101220121A34801F026FE002209
:10053C000221A14801F021FE002204219E4801F075
:10054C001CFE012208219C4801F017FE01221021FB
:10055C00994801F012FE01222021974801F00DFE6E
:10056C0001224021944801F008FE20E100220121E3
:10057C00914801F002FE002202218F4801F0FDFD9E
:10058C00012204218C4801F0F8FD002208218A4840
:10059C0001F0F3FD00221021874801F0EEFD01224D
:1005AC002021854801F0E9FD00224021824801F01C
:1005BC00E4FDFCE0002201217F4801F0DEFD002279
:1005CC0002217D4801F0D9FD002204217A4801F076
:1005DC00D4FD00220821784801F0CFFD0122102122
:1005EC00754801F0CAFD01222021734801F0C5FDB8
:1005FC0000224021704801F0C0FDD8E00122012109
:10060C006D4801F0BAFD002202216B4801F0B5FDE6
:10061C0000220421684801F0B0FD0122082166483F
:10062C0001F0ABFD01221021634801F0A6FD002270
:10063C002021614801F0A1FD002240215E4801F01B
:10064C009CFDB4E0002201215B4801F096FD0122E3
:10065C000221594801F091FD00220421564801F075
:10066C008CFD00220821544801F087FD0122102145
:10067C00514801F082FD002220214F4801F07DFD00
:10068C00002240214C4801F078FD90E0002201212D
:10069C00494801F072FD01220221474801F06DFD2D
:1006AC0000220421444801F068FD00220821424840
:1006BC0001F063FD002210213F4801F05EFD002295
:1006CC0020213D4801F059FD002240213A4801F01B
:1006DC0054FD6CE000220121374801F04EFD002250
:1006EC000221354801F049FD00220421324801F075
:1006FC0044FD01220821304801F03FFD0122102168
:10070C002D4801F03AFD012220212B4801F035FD46
:10071C0001224021284801F030FD48E0002201214F
:10072C00254801F02AFD00220221234801F025FD75
:10073C0000220421204801F020FD002208211E483F
:10074C0001F01BFD002210211B4801F016FD0022B8
:10075C002021194801F011FD00224021164801F01A
:10076C000CFD24E000220121134801F006FD0022BB
:10077C000221114801F001FD002204210E4801F074
:10078C00FCFC002208210C4801F0F7FC012210218E
:10079C00094801F0F2FC00222021074801F0EDFC91
:1007AC0000224021044801F0E8FC00E000BF00BF3B
:1007BC000837BD4680BD00BF000C014080B485B039
:1007CC0000AFF860B9607A603B60084AFB68136060
:1007DC00064ABB685360054A7B689360034A3B68D2
:1007EC00D36000BF1437BD4680BC70471800002092
:1007FC0080B500AF4C4B1B68032B00F2918001A21B
:10080C0052F823F02108000865080008A908000820
:10081C00ED08000800220821444801F0AEFC01223A
:10082C001021424801F0A9FC012240213F4801F06F
:10083C00A4FC012280213D4801F09FFC3A4B1B682F
:10084C003B4A52F823301846FFF728FE364B1B68FC
:10085C000133354A136064E001220821334801F06A
:10086C008CFC00221021314801F087FC0122402130
:10087C002E4801F082FC012280212C4801F07DFCE5
:10088C00294B1B682A4A52F823301846FFF706FEFC
:10089C00254B1B680133244A136042E001220821D6
:1008AC00224801F06AFC01221021204801F065FC6D
:1008BC00002240211D4801F060FC012280211B48D0
:1008CC0001F05BFC184B1B68194A52F82330184690
:1008DC00FFF7E4FD144B1B680133134A136020E04F
:1008EC0001220821114801F048FC012210210F4877
:1008FC0001F043FC012240210C4801F03EFC002297
:10090C0080210A4801F039FC074B1B68084A52F851
:10091C0023301846FFF7C2FD034B00221A6000E09B
:10092C0000BF00BF80BD00BF680000200008014070
:10093C001800002080B500AF01224FF480611148EF
:10094C0001F01BFC01224FF400510E4801F015FC84
:10095C0001224FF480710B4801F00FFC01224FF47F
:10096C000061084801F009FC01224FF400710548B0
:10097C0001F003FC01224FF48051024801F0FDFB11
:10098C0000BF80BD0008014080B500AF01224FF4CC
:10099C000051114801F0F1FB01224FF480710E4817
:1009AC0001F0EBFB01224FF400710B4801F0E5FB69
:1009BC0001224FF48051084801F0DFFB00224FF474
:1009CC008061054801F0D9FB00224FF40061024818
:1009DC0001F0D3FB00BF80BD0008014080B500AF23
:1009EC0001224FF40051114801F0C7FB01224FF4D2
:1009FC0080710E4801F0C1FB01224FF400610B48DD
:100A0C0001F0BBFB01224FF40071084801F0B5FB6B
:100A1C0000224FF48061054801F0AFFB00224FF437
:100A2C008051024801F0A9FB00BF80BD00080140C5
:100A3C0080B500AF01224FF48061114801F09DFB9D
:100A4C0001224FF400610E4801F097FB01224FF494
:100A5C0000710B4801F091FB01224FF480510848C2
:100A6C0001F08BFB00224FF48071054801F085FBEF
:100A7C0000224FF40051024801F07FFB00BF80BD03
:100A8C000008014080B500AF01224FF4806111488D
:100A9C0001F073FB01224FF480710E4801F06DFBE5
:100AAC0001224FF400610B4801F067FB01224FF467
:100ABC008051084801F061FB00224FF40071054899
:100ACC0001F05BFB00224FF40051024801F055FB92
:100ADC0000BF80BD0008014080B500AF01224FF47B
:100AEC0080711F4801F049FB01224FF400611C4842
:100AFC0001F043FB01224FF48051194801F03DFBFA
:100B0C0001224FF40071164801F037FB154B1B689E
:100B1C00002B02D0012B10D01FE000224FF480617B
:100B2C000F4801F02AFB00224FF400510C4801F051
:100B3C0024FB0C4B01221A600FE001224FF4806160
:100B4C00074801F01AFB01224FF40051044801F050
:100B5C0014FB044B00221A6000BF00BF80BD00BF15
:100B6C00000801406C00002080B500AF01224FF45A
:100B7C0080711F4801F001FB01224FF400611C48F9
:100B8C0001F0FBFA01224FF48061194801F0F5FAEB
:100B9C0001224FF40051164801F0EFFA154B1B6877
:100BAC00002B02D0012B10D01FE000224FF48051FB
:100BBC000F4801F0E2FA00224FF400710C4801F0EA
:100BCC00DCFA0C4B01221A600FE001224FF4805129
:100BDC00074801F0D2FA01224FF40071044801F0E9
:100BEC00CCFA044B00221A6000BF00BF80BD00BFCE
:100BFC00000801407000002080B500AF01224FF4C6
:100C0C0080511F4801F0B9FA01224FF400711C48C1
:100C1C0001F0B3FA01224FF48061194801F0ADFAEA
:100C2C0001224FF40051164801F0A7FA154B1B682E
:100C3C00002B02D0012B10D01FE000224FF480714A
:100C4C000F4801F09AFA00224FF400610C4801F0B1
:100C5C0094FA0C4B01221A600FE001224FF48071C0
:100C6C00074801F08AFA01224FF40061044801F0B0
:100C7C0084FA044B00221A6000BF00BF80BD00BF85
:100C8C00000801407400002080B485B000AFF8600B
:100C9C00B9607A607A68BB681344FA689A4201D1E9
:100CAC00012300E0002318461437BD4680BC704772
:100CBC0080B483B000AF78607B680D4A82FB03126E
:100CCC009210DB17D31A0B4A13607968084B83FB1D
:100CDC0001239A10CB17D21A13469B0013445B00C6
:100CEC00CA1A054B1A6000BF0C37BD4680BC704752
:100CFC00676666668C00002090000020B0B500AFDF
:100D0C00BE4B1B68042B00F28B8201A252F823F01D
:100D1C00310D0008010E0008030F0008291000080F
:100D2C002B110008FFF706FEFFF79EFBB44B1A6869
:100D3C00B44B1B68D31AB44A1360002000F024FE95
:100D4C000346012B0FD1AD4B01221A60AC4B1B6833
:100D5C00AE4A1360AB4B1B68AD4A13604FF4FA718B
:100D6C00002000F0F9FD012000F00EFE0346012BDF
:100D7C0032D1A64B1B68A74A82FB03129210DB17D9
:100D8C00D41AA24B1A68A34B83FB02139910D317E6
:100D9C00C91A0B469B000B445B00D11A9C4B1B6879
:100DAC009C4A82FB03029210DB17D51A984B1A68E7
:100DBC00984B83FB02039810D317C01A03469B0071
:100DCC0003445B00D01A03462A462046FFF7F6FC84
:100DDC006421012000F0C0FD122000F0D5FD034677
:100DEC00012B40F01F82FFF703FD1921122000F0A8
:100DFC00B3FD17E20020FFF7FDF90346012B12D1DA
:100E0C00854B02221A600020FFF718FA01210020FE
:100E1C0000F0A2FD0521012000F09EFD19211220F9
:100E2C0000F09AFD07E2FFF7AFFD122000F0ACFDD9
:100E3C000346012B05D1FFF7DBFC1921122000F032
:100E4C008BFD012000F0A0FD0346012B3CD16F4B24
:100E5C001B68013B6D4A13606D4B1B68013B6C4A70
:100E6C0013606A4B1B686B4A82FB03129210DB17F0
:100E7C00D41A664B1A68674B83FB02139910D3176D
:100E8C00C91A0B469B000B445B00D11A604B1B68C4
:100E9C00604A82FB03029210DB17D51A5C4B1A686E
:100EAC005C4B83FB02039810D317C01A03469B00BC
:100EBC0003445B00D01A03462A462046FFF77EFC0B
:100ECC006421012000F048FD002000F05DFD034688
:100EDC00012B40F0A981494B02221A604A4B1B6836
:100EEC004A4A1360484B1B68494A1360C8210020CA
:100EFC0000F032FD98E10020FFF77CF90346012B4E
:100F0C0012D1454B02221A600020FFF797F90121FC
:100F1C00002000F021FD0521012000F01DFD19210C
:100F2C00122000F019FD86E1FFF758FD122000F0A9
:100F3C002BFD0346012B05D1FFF75AFC192112207A
:100F4C0000F00AFD012000F01FFD0346012B3CD1EF
:100F5C002E4B1B68013B2D4A13602D4B1B68013B2C
:100F6C002B4A1360294B1B682A4A82FB03129210EE
:100F7C00DB17D41A254B1A68264B83FB02139910E6
:100F8C00D317C91A0B469B000B445B00D11A204B9C
:100F9C001B68204A82FB03029210DB17D51A1C4BEC
:100FAC001A681C4B83FB02039810D317C01A034614
:100FBC009B0003445B00D01A03462A462046FFF7E9
:100FCC00FDFB6421012000F0C7FC002000F0DCFCDC
:100FDC000346012B40F02A81084B03221A60094B6F
:100FEC001B680A4A1360064B1B68094A13604FF4CE
:100FFC00FA71002000F0B0FC18E100BF780000206E
:10100C00340000203C00002038000020800000202C
:10101C0084000020676666667C0000200020FFF7D5
:10102C00E9F80346012B12D1844B02221A600020EE
:10103C00FFF704F90121002000F08EFC05210120AE
:10104C0000F08AFC1921122000F086FCF3E0FFF777
:10105C00EFFC122000F098FC0346012B05D1FFF7A2
:10106C00C7FB1921122000F077FC012000F08CFC4A
:10107C000346012B3CD1724B1B68013B704A136039
:10108C00704B1B68013B6F4A13606D4B1B686E4ABB
:10109C0082FB03129210DB17D41A694B1A686A4B45
:1010AC0083FB02139910D317C91A0B469B000B44F0
:1010BC005B00D11A634B1B68634A82FB03029210DC
:1010CC00DB17D51A5F4B1A685F4B83FB0203981032
:1010DC00D317C01A03469B0003445B00D01A034687
:1010EC002A462046FFF76AFB6421012000F034FCFD
:1010FC00002000F049FC0346012B40F09980534B33
:10110C0004221A60524B1B684D4A1360504B1B68EB
:10111C004C4A1360C821002000F01EFC88E000201F
:10112C00FFF768F80346012B12D1444B02221A60D8
:10113C000020FFF783F80121002000F00DFC0521B1
:10114C00012000F009FC1921122000F005FC72E0CE
:10115C00FFF798FC122000F017FC0346012B05D179
:10116C00FFF746FB1921122000F0F6FB012000F0DE
:10117C000BFC0346012B3CD1314B1B68013B304A25
:10118C001360304B1B68013B2E4A13602C4B1B68C1
:10119C002D4A82FB03129210DB17D41A284B1A68C3
:1011AC00294B83FB02139910D317C91A0B469B00CA
:1011BC000B445B00D11A234B1B68234A82FB0302AE
:1011CC009210DB17D51A1F4B1A681F4B83FB0203B7
:1011DC009810D317C01A03469B0003445B00D01A27
:1011EC0003462A462046FFF7E9FA6421012000F065
:1011FC00B3FB002000F0C8FB0346012B1AD1134BA4
:10120C0001221A60134B1B680D4A1360124B1B68AA
:10121C000C4A13604FF4FA71002000F09DFB09E0BA
:10122C0000BF08E000BF06E000BF04E000BF02E022
:10123C0000BF00E000BF00BFB0BD00BF7C000020BD
:10124C00800000208400002067666666780000201D
:10125C0038000020340000203C00002080B500AF96
:10126C00002000F091FB0346012B05D1FFF734FC65
:10127C003221002000F070FB012000F085FB0346BA
:10128C00002B0BD10C4B1A680C4B1B680221002055
:10129C00FFF794FA0A21012000F05EFB122000F007
:1012AC0073FB0346012B05D1FFF7A2FA192112207B
:1012BC0000F052FB00BF80BD8C000020900000208D
:1012CC0080B500AF002000F05FFB0346012B05D179
:1012DC00FFF74AFC3221002000F03EFB012000F019
:1012EC0053FB0346002B0BD10C4B1A680C4B1B68A1
:1012FC0003210020FFF762FA0A21012000F02CFBE9
:10130C00122000F041FB0346012B05D1FFF770FAC8
:10131C001921122000F020FB00BF80BD8C000020A2
:10132C009000002080B500AF002000F02DFB03469C
:10133C00012B05D1FFF760FC3221002000F00CFBE3
:10134C00012000F021FB0346002B0BD10C4B1A683B
:10135C000C4B1B6804210020FFF730FA0A210120F6
:10136C0000F0FAFA122000F00FFB0346012B05D116
:10137C00FFF73EFA1921122000F0EEFA00BF80BDF3
:10138C008C0000209000002080B500AF132000F0EE
:10139C00FBFA0346012B07D13221132000F0DCFAB3
:1013AC002021AB4800F001FF0020FEF747FF01228F
:1013BC000421A74800F0E1FEA64B1B68042B00F2A9
:1013CC008E8101A252F823F0E913000839140008A9
:1013DC00AD14000861150008151600080023002242
:1013EC0000210020FFF7EAF9122000F0CDFA0346A5
:1013FC00012B05D1FFF7FCF91921122000F0ACFAF2
:10140C000020FEF7F7FE0346012B40F06A81914B5A
:10141C0001221A600020FEF711FF0121002000F0CC
:10142C009BFA0521012000F097FA63E18A4B1B68B7
:10143C00894A5168884A92681846FFF725FC03468A
:10144C00002B0BD0844B1B68844A1360824B5B6867
:10145C00834A1360804B9B68824A1360FFF74EFCF3
:10146C000020FEF7C7FE0346012B40F03C81794B70
:10147C0002221A600020FEF7E1FE0120FEF7DEFEDC
:10148C000220FEF7DBFE0121002000F065FA0521A9
:10149C00012000F061FA1921122000F05DFA29E117
:1014AC00FFF7DCFE0020FEF7A5FE0346012B1BD147
:1014BC00684B03221A600020FEF7C0FE01210020B9
:1014CC0000F04AFA0521012000F046FA19211220F9
:1014DC0000F042FA644B00221A60644B00221A603E
:1014EC00634B00221A6005E10120FEF783FE0346E0
:1014FC00012B1BD15E4B1B6801335D4A13605C4BA7
:10150C001B68632B02DD5A4B00221A60584B1B6878
:10151C001846FFF7CDFB544B1A68544B1B6802213D
:10152C000020FFF74BF90120FEF788FE0220FEF7A2
:10153C0061FE0346012B40F0D8804D4B1B68464A98
:10154C00136000220421424800F017FE0220FEF72F
:10155C0075FECAE0FFF7B4FE0020FEF74BFE034613
:10156C00012B1BD13B4B04221A600020FEF766FEB8
:10157C000121002000F0F0F90521012000F0ECF928
:10158C000A21122000F0E8F9374B00221A60374B81
:10159C0000221A60364B00221A60ABE00120FEF7E5
:1015AC0029FE0346012B1BD1314B1B680133304AFA
:1015BC0013602F4B1B68632B02DD2D4B00221A602E
:1015CC002B4B1B681846FFF773FB274B1A68274BEE
:1015DC001B6803210020FFF7F1F80120FEF72EFE17
:1015EC000220FEF707FE0346012B40F08080204BC3
:1015FC001B68194A536000220421154800F0BDFDF8
:10160C000220FEF71BFE72E0FFF78CFE0020FEF7B7
:10161C00F1FD0346012B2DD10E4B01221A60002047
:10162C00FEF70CFE0121002000F096F905210120A7
:10163C0000F092F91921122000F08EF90A4B0022C9
:10164C001A600A4B00221A60094B00221A6051E002
:10165C00000801407C0000202800002034000020FD
:10166C00380000203C0000208C000020900000205E
:10167C00880000200120FEF7BDFD0346012B1BD185
:10168C001D4B1B6801331C4A13601B4B1B68632BDF
:10169C0002DD194B00221A60174B1B681846FFF726
:1016AC0007FB164B1A68164B1B6804210020FFF72A
:1016BC0085F80120FEF7C2FD0220FEF79BFD0346D4
:1016CC00012B16D10C4B1B680E4A9360002204218F
:1016DC000D4800F052FD0220FEF7B0FD09E000BFFE
:1016EC0008E000BF06E000BF04E000BF02E000BF5E
:1016FC0000E000BF00BF80BD880000208C000020EF
:10170C0090000020280000200008014080B500AFA8
:10171C0000F032FAFEF714FD00F014F800F04EF869
:10172C0000F098F8064801F085F90121132000F02B
:10173C0013F96421122000F00FF9FFF725FEFCE7E6
:10174C000401002080B590B000AF07F118032822E7
:10175C000021184601F01EFD3B1D00221A605A6044
:10176C009A60DA601A610223BB610123BB62102309
:10177C00FB6200237B6307F11803184600F02EFD73
:10178C000346002B01D000F0E1F80F237B6000230F
:10179C00BB600023FB6000233B6100237B613B1D8E
:1017AC000021184600F09AFF0346002B01D000F0F0
:1017BC00CDF800BF4037BD4680BD000080B586B077
:1017CC0000AF07F1080300221A605A609A60DA60D1
:1017DC003B4600221A605A601D4B4FF080421A6043
:1017EC001B4B41F63F725A60194B00229A60184B02
:1017FC000922DA60164B00221A61154B00229A61FD
:10180C00134801F0C7F80346002B01D000F09EF8F6
:10181C004FF48053BB6007F1080319460C4801F0E4
:10182C0045FA0346002B01D000F090F800233B60F2
:10183C0000237B603B461946054801F01DFC03461E
:10184C00002B01D000F082F800BF1837BD4680BDD8
:10185C000401002080B586B000AF07F10803002218
:10186C001A605A609A60DA602F4B9B692E4A43F0DB
:10187C00040393612C4B9B6903F004037B607B682E
:10188C00294B9B69284A43F008039361264B9B69BB
:10189C0003F008033B603B68002243F6FC712348CD
:1018AC0000F06BFC00227F21214800F066FC042331
:1018BC00BB600123FB6001233B6102237B6107F1C9
:1018CC0008031946194800F0C7FA43F6F873BB60D1
:1018DC000123FB6000233B6102237B6107F10803BA
:1018EC001946124800F0B8FA7F23BB600123FB6055
:1018FC0000233B6102237B6107F1080319460C4866
:10190C0000F0AAFA4FF46043BB600023FB60012394
:10191C003B6107F108031946054800F09DFA00BF2A
:10192C001837BD4680BD00BF0010024000080140C2
:10193C00000C014080B582B000AF786000F038F840
:10194C00FEF792FC00BF0837BD4680BD80B400AFE7
:10195C0072B600BFFEE7000080B483B000AF7860C1
:10196C00396007497B683A6841F82320054A7B684F
:10197C00002142F8231000BF0C37BD4680BC7047D5
:10198C004C0100209C01002080B483B000AF786033
:10199C00064A7B6852F82330012B01D1012300E069
:1019AC00002318460C37BD4680BC70479C010020B4
:1019BC0080B483B000AF00237B601CE0124A7B68CC
:1019CC0052F82330002B13DD0F4A7B6852F823307A
:1019DC005A1E0D497B6841F823200B4A7B6852F84C
:1019EC002330002B04DC094A7B68012142F82310C8
:1019FC007B6801337B607B68132BDFDD00BF00BF8E
:101A0C000C37BD4680BC70474C0100209C01002067
:101A1C0080B485B000AF154B9B69144A43F00103A9
:101A2C009361124B9B6903F00103BB60BB680F4BC6
:101A3C00DB690E4A43F08053D3610C4BDB6903F036
:101A4C0080537B607B680A4B5B68FB60FB6823F010
:101A5C00E063FB60FB6843F08063FB60044AFB6857
:101A6C00536000BF1437BD4680BC70470010024065
:101A7C000000014080B584B000AF78607B681B68C3
:101A8C00B3F1804F13D10C4BDB690B4A43F00103CC
:101A9C00D361094BDB6903F00103FB60FB68002297
:101AAC0000211C2000F0A1F91C2000F0BAF900BFA5
:101ABC001037BD4680BD00BF0010024080B400AF9F
:101ACC00FEE780B400AFFEE780B400AFFEE780B461
:101ADC0000AFFEE780B400AFFEE780B400AF00BFFC
:101AEC00BD4680BC704780B400AF00BFBD4680BC13
:101AFC00704780B400AF00BFBD4680BC704780B556
:101B0C0000AF00F07FF800BF80BD000080B500AFD3
:101B1C00024800F0DBFF00BF80BD00BF04010020C5
:101B2C0080B400AF00BFBD4680BC7047FFF7F8FF24
:101B3C000B480C490C4A002302E0D458C45004331F
:101B4C00C4188C42F9D3094A094C002301E01360F4
:101B5C000432A242FBD301F0F9FAFFF7D7FD70472C
:101B6C00000000204C000020F43100084C00002044
:101B7C00F0010020FEE7000080B500AF084B1B68A9
:101B8C00074A43F010031360032000F023F90F20E1
:101B9C0000F008F8FFF73CFF0023184680BD00BF9B
:101BAC000020024080B582B000AF7860124B1A68FA
:101BBC00124B1B7819464FF47A73B3FBF1F3B2FB5B
:101BCC00F3F3184600F03BF90346002B01D0012338
:101BDC000EE07B680F2B0AD8002279684FF0FF309B
:101BEC0000F003F9064A7B681360002300E0012330
:101BFC0018460837BD4680BD400000204800002034
:101C0C004400002080B400AF054B1B781A46054BEE
:101C1C001B681344034A136000BFBD4680BC704769
:101C2C0048000020EC01002080B400AF024B1B6880
:101C3C001846BD4680BC7047EC01002080B485B0CE
:101C4C0000AF78607B6803F00703FB600C4BDB682C
:101C5C00BB60BA684FF6FF031340BB60FB681A0207
:101C6C00BB68134343F0BF6343F40033BB60044AC7
:101C7C00BB68D36000BF1437BD4680BC704700BF43
:101C8C0000ED00E080B400AF044BDB681B0A03F0EE
:101C9C0007031846BD4680BC704700BF00ED00E04E
:101CAC0080B483B000AF0346FB7197F90730002B6B
:101CBC000BDBFB7903F01F02064997F907305B0930
:101CCC00012000FA02F241F8232000BF0C37BD4678
:101CDC0080BC704700E100E080B483B000AF0346E5
:101CEC003960FB7197F90730002B0ADB3B68DAB2DD
:101CFC000C4997F907301201D2B20B4483F8002338
:101D0C000AE03B68DAB20849FB7903F00F03043BA5
:101D1C001201D2B20B441A7600BF0C37BD4680BC00
:101D2C00704700BF00E100E000ED00E080B489B036
:101D3C0000AFF860B9607A60FB6803F00703FB61E1
:101D4C00FB69C3F10703042B28BF0423BB61FB69A8
:101D5C000433062B02D9FB69033B00E000237B61B3
:101D6C004FF0FF32BB6902FA03F3DA43BB681A4047
:101D7C007B699A404FF0FF317B6901FA03F3D94339
:101D8C007B680B40134318462437BD4680BC704714
:101D9C0080B582B000AF78607B68013BB3F1807F87
:101DAC0001D301230FE00A4A7B68013B53600F21EA
:101DBC004FF0FF30FFF790FF054B00229A60044B69
:101DCC0007221A60002318460837BD4680BD00BFA5
:101DDC0010E000E080B582B000AF78607868FFF763
:101DEC002DFF00BF0837BD4680BD80B586B000AF63
:101DFC000346B9607A60FB7300237B61FFF742FFF7
:101E0C0078617A68B9687869FFF790FF024697F9AC
:101E1C000F3011461846FFF75FFF00BF1837BD465D
:101E2C0080BD80B582B000AF0346FB7197F90730D7
:101E3C001846FFF735FF00BF0837BD4680BD80B59B
:101E4C0082B000AF78607868FFF7A2FF03461846AF
:101E5C000837BD4680BD000080B48BB000AF786001
:101E6C00396000237B6200233B6248E101227B6ADC
:101E7C0002FA03F3FB613B681B68FA691340BB6110
:101E8C00BA69FB699A4240F037813B685B68A34AA8
:101E9C0093425ED0A14A934275D8A14A934258D03E
:101EAC009F4A93426FD89F4A934252D09D4A934285
:101EBC0069D89D4A93424CD09B4A934263D89B4A23
:101ECC00934246D0994A93425DD8122B2AD8122BB2
:101EDC0059D801A252F823F05F1F0008391F0008DF
:101EEC004B1F00088D1F0008931F0008931F00084C
:101EFC00931F0008931F0008931F0008931F0008EE
:101F0C00931F0008931F0008931F0008931F0008DD
:101F1C00931F0008931F0008931F0008411F00081F
:101F2C00551F0008824A934213D02CE03B68DB68B3
:101F3C003B6229E03B68DB6804333B6224E03B688E
:101F4C00DB6808333B621FE03B68DB680C333B62A9
:101F5C001AE03B689B68002B02D104233B6213E020
:101F6C003B689B68012B05D108233B627B68FA69AF
:101F7C001A6109E008233B627B68FA695A6103E045
:101F8C0000233B6200E000BFBB69FF2B01D87B68DC
:101F9C0001E07B6804337B61BB69FF2B02D87B6A51
:101FAC009B0002E07B6A083B9B003B617B691A68E3
:101FBC000F213B6901FA03F3DB431A40396A3B6991
:101FCC0001FA03F31A437B691A603B685B6803F000
:101FDC008053002B00F09080564B9B69554A43F080
:101FEC0001039361534B9B6903F00103BB60BB6816
:101FFC00514A7B6A9B08023352F82330FB607B6AA0
:10200C0003F003039B000F2202FA03F3DB43FA688D
:10201C001340FB607B68494A93420DD07B68484A69
:10202C00934207D07B68474A934201D1022304E0D4
:10203C00032302E0012300E000237A6A02F003028A
:10204C0092009340FA681343FB603B497B6A9B0800
:10205C000233FA6841F823203B685B6803F4801371
:10206C00002B06D0384B9A683749BB6913438B60F9
:10207C0006E0354B9A68BB69DB43334913408B60F0
:10208C003B685B6803F40013002B06D02E4BDA6818
:10209C002D49BB691343CB6006E02B4BDA68BB6957
:1020AC00DB4329491340CB603B685B6803F4003386
:1020BC00002B06D0244B5A682349BB6913434B6051
:1020CC0006E0214B5A68BB69DB431F4913404B6048
:1020DC003B685B6803F48033002B06D01A4B1A68FC
:1020EC001949BB6913430B6006E0174B1A68BB69AF
:1020FC00DB43154913400B607B6A01337B623B6801
:10210C001A687B6A22FA03F3002B7FF4AFAE00BF90
:10211C0000BF2C37BD4680BC704700BF000032109A
:10212C0000003110000022100000211000001210DD
:10213C000000111000100240000001400008014096
:10214C00000C0140001001400004014080B485B037
:10215C0000AF78600B467B807B689A687B88134065
:10216C00002B02D00123FB7301E00023FB73FB7BEC
:10217C0018461437BD4680BC704780B483B000AF9E
:10218C0078600B467B8013467B707B78002B03D0EA
:10219C007A887B681A6103E07B881A047B681A6171
:1021AC0000BF0C37BD4680BC704780B485B000AF13
:1021BC0078600B467B807B68DB68FB607A88FB6809
:1021CC0013401A04FB68D9437B880B401A437B6885
:1021DC001A6100BF1437BD4680BC704780B586B00D
:1021EC0000AF78607B68002B01D101236CE27B6827
:1021FC001B6803F00103002B00F08780924B5B6897
:10220C0003F00C03042B0CD08F4B5B6803F00C0316
:10221C00082B12D18C4B5B6803F48033B3F5803FF1
:10222C000BD1894B1B6803F40033002B6CD07B68FB
:10223C005B68002B68D1012346E27B685B68B3F5D1
:10224C00803F06D1804B1B687F4A43F48033136078
:10225C002EE07B685B68002B0CD17B4B1B687A4AA9
:10226C0023F480331360784B1B68774A23F4802364
:10227C0013601DE07B685B68B3F5A02F0CD1724B2B
:10228C001B68714A43F4802313606F4B1B686E4AC2
:10229C0043F4803313600BE06B4B1B686A4A23F4E6
:1022AC0080331360684B1B68674A23F480231360E8
:1022BC007B685B68002B13D0FFF7B6FC386108E035
:1022CC00FFF7B2FC02463B69D31A642B01D90323F6
:1022DC00FAE15D4B1B6803F40033002BF0D014E0E3
:1022EC00FFF7A2FC386108E0FFF79EFC02463B6951
:1022FC00D31A642B01D90323E6E1534B1B6803F477
:10230C000033002BF0D100E000BF7B681B6803F0AA
:10231C000203002B63D04C4B5B6803F00C03002BC7
:10232C000BD0494B5B6803F00C03082B1CD1464BBC
:10233C005B6803F48033002B16D1434B1B6803F00E
:10234C000203002B05D07B681B69012B01D00123F4
:10235C00BAE13D4B1B6823F0F8027B685B69DB003C
:10236C00394913430B603AE07B681B69002B20D082
:10237C00364B01221A60FFF757FC386108E0FFF773
:10238C0053FC02463B69D31A022B01D903239BE170
:10239C002D4B1B6803F00203002BF0D02A4B1B685B
:1023AC0023F0F8027B685B69DB00274913430B6061
:1023BC0015E0264B00221A60FFF736FC386108E066
:1023CC00FFF732FC02463B69D31A022B01D90323D7
:1023DC007AE11D4B1B6803F00203002BF0D17B68E4
:1023EC001B6803F00803002B3AD07B689B69002B19
:1023FC0019D0174B01221A60FFF716FC386108E060
:10240C00FFF712FC02463B69D31A022B01D90323B6
:10241C005AE10D4B5B6A03F00203002BF0D0012054
:10242C0000F09AFA1CE00A4B00221A60FFF7FCFB42
:10243C0038610FE0FFF7F8FB02463B69D31A022B19
:10244C0008D9032340E100BF0010024000004242C3
:10245C00800442429E4B5B6A03F00203002BE9D1DD
:10246C007B681B6803F00403002B00F0A68000239C
:10247C00FB75974BDB6903F08053002B0DD1944B0C
:10248C00DB69934A43F08053D361914BDB6903F0D2
:10249C008053BB60BB680123FB758E4B1B6803F438
:1024AC008073002B18D18B4B1B688A4A43F48073C2
:1024BC001360FFF7B9FB386108E0FFF7B5FB024684
:1024CC003B69D31A642B01D90323FDE0814B1B68B4
:1024DC0003F48073002BF0D07B68DB68012B06D1F2
:1024EC007B4B1B6A7A4A43F0010313622DE07B6835
:1024FC00DB68002B0CD1764B1B6A754A23F0010369
:10250C001362734B1B6A724A23F0040313621CE0C0
:10251C007B68DB68052B0CD16D4B1B6A6C4A43F056
:10252C00040313626A4B1B6A694A43F0010313628A
:10253C000BE0674B1B6A664A23F001031362644B82
:10254C001B6A634A23F0040313627B68DB68002B6D
:10255C0015D0FFF769FB38610AE0FFF765FB02460F
:10256C003B69D31A41F28832934201D90323ABE081
:10257C00574B1B6A03F00203002BEED014E0FFF75D
:10258C0053FB38610AE0FFF74FFB02463B69D31A55
:10259C0041F28832934201D9032395E04C4B1B6ADC
:1025AC0003F00203002BEED1FB7D012B05D1484B30
:1025BC00DB69474A23F08053D3617B68DB69002BCE
:1025CC0000F08180424B5B6803F00C03082B61D058
:1025DC007B68DB69022B46D13F4B00221A60FFF768
:1025EC0023FB386108E0FFF71FFB02463B69D31A57
:1025FC00022B01D9032367E0354B1B6803F00073F2
:10260C00002BF0D17B681B6AB3F5803F08D1304BAF
:10261C005B6823F400327B689B682D4913434B6045
:10262C002B4B5B6823F474127B68196A7B685B6ABA
:10263C000B43274913434B60274B01221A60FFF7CA
:10264C00F3FA386108E0FFF7EFFA02463B69D31A58
:10265C00022B01D9032337E01D4B1B6803F00073D9
:10266C00002BF0D02FE01C4B00221A60FFF7DCFA95
:10267C00386108E0FFF7D8FA02463B69D31A022BFF
:10268C0001D9032320E0124B1B6803F00073002BCD
:10269C00F0D118E07B68DB69012B01D1012313E039
:1026AC000B4B5B68FB60FB6803F480327B681B6A36
:1026BC009A4206D1FB6803F470127B685B6A9A42FB
:1026CC0001D0012300E0002318461837BD4680BD19
:1026DC0000100240007000406000424280B584B09F
:1026EC0000AF786039607B68002B01D10123D0E00A
:1026FC006A4B1B6803F007033A689A4210D9674B80
:10270C001B6823F0070265493B6813430B60634B5E
:10271C001B6803F007033A689A4201D00123B8E022
:10272C007B681B6803F00203002B20D07B681B68BE
:10273C0003F00403002B05D0594B5B68584A43F453
:10274C00E06353607B681B6803F00803002B05D023
:10275C00534B5B68524A43F460535360504B5B6875
:10276C0023F0F0027B689B684D4913434B607B68F8
:10277C001B6803F00103002B40D07B685B68012BC6
:10278C0007D1474B1B6803F40033002B15D10123F1
:10279C007FE07B685B68022B07D1414B1B6803F021
:1027AC000073002B09D1012373E03D4B1B6803F030
:1027BC000203002B01D101236BE0394B5B6823F042
:1027CC0003027B685B68364913434B60FFF72CFAB6
:1027DC00F8600AE0FFF728FA0246FB68D31A41F2C8
:1027EC008832934201D9032353E02D4B5B6803F0ED
:1027FC000C027B685B689B009A42EBD1274B1B68F1
:10280C0003F007033A689A4210D2244B1B6823F05A
:10281C00070222493B6813430B60204B1B6803F0F3
:10282C0007033A689A4201D0012332E07B681B68A7
:10283C0003F00403002B08D0194B5B6823F4E0620F
:10284C007B68DB68164913434B607B681B6803F09D
:10285C000803002B09D0124B5B6823F460527B6891
:10286C001B69DB000E4913434B6000F021F8024654
:10287C000B4B5B681B0903F00F030A49CB5C22FA74
:10288C0003F3094A1360094B1B681846FFF78AF9D2
:10289C00002318461037BD4680BD00BF0020024003
:1028AC0000100240C8310008400000204400002005
:1028BC0080B487B000AF0023FB600023BB60002313
:1028CC007B6100237B6000233B611E4B5B68FB60DC
:1028DC00FB6803F00C03042B02D0082B03D027E079
:1028EC00194B3B6127E0FB689B0C03F00F03174A65
:1028FC00D35C7B60FB6803F48033002B10D0114B4E
:10290C005B685B0C03F00103114AD35CBB607B6812
:10291C000D4A02FB03F2BB68B2FBF3F37B6104E0EC
:10292C007B680C4A02FB03F37B617B693B6102E031
:10293C00054B3B6100BF3B6918461C37BD4680BC4C
:10294C00704700BF0010024000127A00D831000816
:10295C00E831000800093D0080B485B000AF786014
:10296C000A4B1B680A4AA2FB03235B0A7A6802FB28
:10297C0003F3FB6000BFFB685A1EFA60002BF9D111
:10298C0000BF00BF1437BD4680BC7047400000201C
:10299C00D34D621080B582B000AF78607B68002B9D
:1029AC0001D1012341E07B6893F83D30DBB2002B71
:1029BC0006D17B68002283F83C207868FFF75AF830
:1029CC007B68022283F83D207B681A687B6804339D
:1029DC001946104600F056FA7B68012283F846200F
:1029EC007B68012283F83E207B68012283F83F201C
:1029FC007B68012283F840207B68012283F8412008
:102A0C007B68012283F842207B68012283F84320F3
:102A1C007B68012283F844207B68012283F84520DF
:102A2C007B68012283F83D20002318460837BD46F9
:102A3C0080BD000080B485B000AF78607B6893F8EF
:102A4C003D30DBB2012B01D0012335E07B68022243
:102A5C0083F83D207B681B68DA687B681B6842F052
:102A6C000102DA607B681B68164A934209D07B68C6
:102A7C001B68B3F1804F04D07B681B68124A9342E9
:102A8C0011D17B681B689B6803F00703FB60FB6834
:102A9C00062B10D07B681B681A687B681B6842F099
:102AAC0001021A6007E07B681B681A687B681B6868
:102ABC0042F001021A60002318461437BD4680BC50
:102ACC00704700BF002C01400004004080B584B06A
:102ADC0000AF78607B681B68DB68FB607B681B68F9
:102AEC001B69BB60BB6803F00203002B20D0FB68A2
:102AFC0003F00203002B1BD07B681B686FF00202F3
:102B0C001A617B6801221A777B681B689B6903F04A
:102B1C000303002B03D0786800F098F905E078687F
:102B2C0000F08BF9786800F09AF97B6800221A772C
:102B3C00BB6803F00403002B20D0FB6803F00403F4
:102B4C00002B1BD07B681B686FF004021A617B683A
:102B5C0002221A777B681B689B6903F44073002B75
:102B6C0003D0786800F072F905E0786800F065F938
:102B7C00786800F074F97B6800221A77BB6803F060
:102B8C000803002B20D0FB6803F00803002B1BD09C
:102B9C007B681B686FF008021A617B6804221A7745
:102BAC007B681B68DB6903F00303002B03D0786898
:102BBC0000F04CF905E0786800F03FF9786800F017
:102BCC004EF97B6800221A77BB6803F01003002BC8
:102BDC0020D0FB6803F01003002B1BD07B681B6814
:102BEC006FF010021A617B6808221A777B681B68E9
:102BFC00DB6903F44073002B03D0786800F026F9EE
:102C0C0005E0786800F019F9786800F028F97B681D
:102C1C0000221A77BB6803F00103002B0CD0FB6871
:102C2C0003F00103002B07D07B681B686FF00102D7
:102C3C001A617868FEF77EFEBB6803F08003002BF8
:102C4C000CD0FB6803F08003002B07D07B681B685B
:102C5C006FF080021A61786800F06FFABB6803F0BD
:102C6C004003002B0CD0FB6803F04003002B07D073
:102C7C007B681B686FF040021A61786800F0F8F806
:102C8C00BB6803F02003002B0CD0FB6803F020037F
:102C9C00002B07D07B681B686FF020021A617868E4
:102CAC0000F042FA00BF1037BD4680BD80B584B03D
:102CBC0000AF786039600023FB737B6893F83C307D
:102CCC00012B01D10223B4E07B68012283F83C2064
:102CDC007B68022283F83D207B681B689B68BB6085
:102CEC00BB6823F07703BB60BB6823F47F43BB60F6
:102CFC007B681B68BA689A603B681B68B3F5005F19
:102D0C003ED0B3F5005F00F28780B3F5805F00F032
:102D1C008680B3F5805F7FD8702B1AD0702B7BD850
:102D2C00602B50D0602B77D8502B3CD0502B73D8C5
:102D3C00402B58D0402B6FD8302B64D0302B6BD815
:102D4C00202B60D0202B67D8002B5CD0102B5AD0B6
:102D5C0062E07B6818683B6899683B685A683B6816
:102D6C00DB6800F06AF97B681B689B68BB60BB681A
:102D7C0043F07703BB607B681B68BA689A604FE0CE
:102D8C007B6818683B6899683B685A683B68DB68E5
:102D9C0000F053F97B681B689A687B681B6842F4E7
:102DAC0080429A603CE07B6818683B6859683B68D5
:102DBC00DB681A4600F0CAF87B681B68502118467D
:102DCC0000F021F92CE07B6818683B6859683B6877
:102DDC00DB681A4600F0E8F87B681B68602118462F
:102DEC0000F011F91CE07B6818683B6859683B6877
:102DFC00DB681A4600F0AAF87B681B68402118466D
:102E0C0000F001F90CE07B681A683B681B681946F6
:102E1C00104600F0F8F803E00123FB7300E000BF5C
:102E2C007B68012283F83D207B68002283F83C20DC
:102E3C00FB7B18461037BD4680BD80B483B000AF15
:102E4C00786000BF0C37BD4680BC704780B483B03F
:102E5C0000AF786000BF0C37BD4680BC704780B4B3
:102E6C0083B000AF786000BF0C37BD4680BC7047A4
:102E7C0080B483B000AF786000BF0C37BD4680BC17
:102E8C007047000080B485B000AF786039607B6813
:102E9C001B68FB607B682B4A934207D07B68B3F1BD
:102EAC00804F03D07B68284A934208D1FB6823F0FB
:102EBC007003FB603B685B68FA681343FB607B68DC
:102ECC00204A934207D07B68B3F1804F03D07B68D4
:102EDC001D4A934208D1FB6823F44073FB603B68A6
:102EEC00DB68FA681343FB60FB6823F080023B68E5
:102EFC005B691343FB607B68FA681A603B689A68ED
:102F0C007B68DA623B681A687B689A627B680D4A58
:102F1C00934203D13B681A697B681A637B68012270
:102F2C005A617B681B6903F00103002B05D07B6899
:102F3C001B6923F001027B681A6100BF1437BD4680
:102F4C0080BC7047002C01400004004080B487B066
:102F5C0000AFF860B9607A60FB681B6A7B61FB6844
:102F6C001B6A23F00102FB681A62FB689B693B61D8
:102F7C003B6923F0F0033B617B681B013A69134307
:102F8C003B617B6923F00A037B617A69BB6813435D
:102F9C007B61FB683A699A61FB687A691A6200BFC7
:102FAC001C37BD4680BC704780B487B000AFF8605A
:102FBC00B9607A60FB681B6A7B61FB681B6A23F053
:102FCC001002FB681A62FB689B693B613B6923F446
:102FDC0070433B617B681B033A6913433B617B691C
:102FEC0023F0A0037B61BB681B017A6913437B61EF
:102FFC00FB683A699A61FB687A691A6200BF1C37F0
:10300C00BD4680BC704780B485B000AF7860396035
:10301C007B689B68FB60FB6823F07003FB603A687D
:10302C00FB68134343F00703FB607B68FA689A6004
:10303C0000BF1437BD4680BC704780B487B000AF6A
:10304C00F860B9607A603B60FB689B687B617B6968
:10305C0023F47F437B613B681A027B681A43BB688D
:10306C0013437A6913437B61FB687A699A6000BFEA
:10307C001C37BD4680BC704780B485B000AF78600B
:10308C0039607B6893F83C30012B01D1022341E07D
:10309C007B68012283F83C207B68022283F83D2068
:1030AC007B681B685B68FB607B681B689B68BB600C
:1030BC00FB6823F07003FB603B681B68FA681343E2
:1030CC00FB607B681B68FA685A607B681B68144A53
:1030DC00934209D07B681B68B3F1804F04D07B68A6
:1030EC001B68104A93420CD1BB6823F08003BB6071
:1030FC003B685B68BA681343BB607B681B68BA6843
:10310C009A607B68012283F83D207B68002283F85B
:10311C003C20002318461437BD4680BC704700BFC6
:10312C00002C01400004004080B483B000AF7860F4
:10313C0000BF0C37BD4680BC704780B483B000AF75
:10314C00786000BF0C37BD4680BC704770B5002658
:10315C000C4D0D4C641BA410A64209D100F022F8B2
:10316C0000260A4D0A4C641BA410A64205D170BD62
:10317C0055F8043B98470136EEE755F8043B984761
:10318C000136F2E7EC310008EC310008EC310008B4
:10319C00F031000803460244934200D1704703F813
:1031AC00011BF9E7F8B500BFF8BC08BC9E46704798
:0C31BC00F8B500BFF8BC08BC9E46704788
:1031C80000000000000000000102030406070809CF
:1031D80002030405060708090A0B0C0D0E0F101050
:0431E80001020000E0
:0431EC0031010008A5
:0431F0000D010008C5
:1031F400000C0140000C0140000C014000000000E4
:1032040000200040008000000100000002000000D7
:10321400030000000400000007000000020000009A
:103224000500000007000000020000000500000087
:0C32340000127A001000000001000000F1
:0400000508001B399B
:00000001FF
