:020000040800F2
:10000000002800203D110008CD100008D310000882
:10001000D9100008DF100008E510000800000000FB
:10002000000000000000000000000000EB100008CD
:10003000F710000800000000031100080F1100086D
:100040008511000885110008851100088511000838
:100050008511000885110008851100088511000828
:100060008511000885110008851100088511000818
:100070008511000885110008851100088511000808
:1000800085110008851100088511000885110008F8
:1000900085110008851100088511000885110008E8
:1000A00085110008851100088511000885110008D8
:1000B0001D110008851100080000000085110008CE
:1000C00085110008000000000000000085110008F4
:1000D00000000000851100088511000800000000E4
:1000E0008511000885110008851100080000000036
:1000F0000000000000000000000000000000000000
:0C01000000000000000000005FF808F1A3
:10010C0010B5054C237833B9044B13B10448AFF345
:10011C0000800123237010BD84000020000000002B
:10012C008827000808B5034B1BB103490348AFF3FC
:10013C00008008BD0000000088000020882700080F
:10014C0080B582B000AF78607B68092B00F28081AB
:10015C0001A252F823F000BF8D010008D501000860
:10016C001D02000865020008AD020008F502000837
:10017C003D03000885030008CD03000815040008A2
:10018C0000220121B54801F0E3FA00220221B34814
:10019C0001F0DEFA00220421B04801F0D9FA002265
:1001AC000821AE4801F0D4FA00221021AB4801F02E
:1001BC00CFFA00222021A94801F0CAFA01224021DD
:1001CC00A64801F0C5FA44E101220121A34801F03F
:1001DC00BFFA00220221A14801F0BAFA0022042140
:1001EC009E4801F0B5FA012208219C4801F0B0FAB2
:1001FC0001221021994801F0ABFA012220219748E5
:10020C0001F0A6FA01224021944801F0A1FA20E164
:10021C0000220121914801F09BFA002202218F4813
:10022C0001F096FA012204218C4801F091FA002287
:10023C0008218A4801F08CFA00221021874801F02D
:10024C0087FA01222021854801F082FA0022402100
:10025C00824801F07DFAFCE0002201217F4801F088
:10026C0077FA002202217D4801F072FA0022042163
:10027C007A4801F06DFA00220821784801F068FAFA
:10028C0001221021754801F063FA012220217348E4
:10029C0001F05EFA00224021704801F059FAD8E0D2
:1002AC00012201216D4801F053FA002202216B4812
:1002BC0001F04EFA00220421684801F049FA0122AB
:1002CC000821664801F044FA01221021634801F02C
:1002DC003FFA00222021614801F03AFA0022402125
:1002EC005E4801F035FAB4E0002201215B4801F0D0
:1002FC002FFA01220221594801F02AFA0022042186
:10030C00564801F025FA00220821544801F020FA41
:10031C0001221021514801F01BFA002220214F48E4
:10032C0001F016FA002240214C4801F011FA90E03D
:10033C0000220121494801F00BFA01220221474811
:10034C0001F006FA00220421444801F001FA0022CF
:10035C000821424801F0FCF9002210213F4801F02D
:10036C00F7F9002220213D4801F0F2F9002240214A
:10037C003A4801F0EDF96CE000220121374801F018
:10038C00E7F900220221354801F0E2F900220421AC
:10039C00324801F0DDF901220821304801F0D8F98A
:1003AC00012210212D4801F0D3F9012220212B48E4
:1003BC0001F0CEF901224021284801F0C9F948E0AA
:1003CC0000220121254801F0C3F900220221234813
:1003DC0001F0BEF900220421204801F0B9F90022F5
:1003EC0008211E4801F0B4F9002210211B4801F02D
:1003FC00AFF900222021194801F0AAF9002240216E
:10040C00164801F0A5F924E000220121134801F05F
:10041C009FF900220221114801F09AF900220421CF
:10042C000E4801F095F9002208210C4801F090F9D2
:10043C0001221021094801F08BF9002220210748E4
:10044C0001F086F900224021044801F081F900E016
:10045C0000BF00BF0837BD4680BD00BF000C014087
:10046C0080B582B000AF78607B68032B00F2888087
:10047C0001A252F823F000BF95040008D304000831
:10048C00110500084F050008002240213F4801F0EB
:10049C005FF9012280213D4801F05AF901224FF405
:1004AC0080713A4801F054F901224FF40071374839
:1004BC0001F04EF9364B1B68364A52F82330184679
:1004CC00FFF73EFE5DE001224021304801F040F98B
:1004DC00002280212D4801F03BF901224FF480715C
:1004EC002A4801F035F901224FF40071274801F038
:1004FC002FF9274B1B68274A52F823301846FFF771
:10050C001FFE3EE001224021204801F021F901228A
:10051C0080211E4801F01CF900224FF480711B4809
:10052C0001F016F901224FF40071184801F010F98E
:10053C00174B1B68174A52F823301846FFF700FE7A
:10054C001FE001224021114801F002F90122802113
:10055C000E4801F0FDF801224FF480710B4801F0B8
:10056C00F7F800224FF40071084801F0F1F8084B3D
:10057C001B68084A52F823301846FFF7E1FD00E0EB
:10058C0000BF00BF0837BD4680BD00BF000801405A
:10059C00A00000200000002080B483B000AF786081
:1005AC0039607B68092B06DC214B00221A60204A3B
:1005BC007B68536016E07B681E4A82FB0312921024
:1005CC00DB17D31A1A4A136079681A4B83FB012381
:1005DC009A10CB17D21A13469B0013445B00CA1A0D
:1005EC00134B5A603B68092B06DC114B00229A60B6
:1005FC000F4A3B68D36017E03B680E4A82FB03123C
:10060C009210DB17D31A0A4A93603968094B83FBA3
:10061C0001239A10CB17D21A13469B0013445B008C
:10062C00CA1A034BDA6000BF0C37BD4680BC70475A
:10063C00000000206766666680B582B000AF0023BC
:10064C007B600EE00B4A7B6852F823000A4A7B68F9
:10065C0032F813300022194601F07AF87B68013326
:10066C007B6008227B689342ECDB00BF0837BD46F9
:10067C0080BD00BF100000203000002080B485B089
:10068C0000AF78607B681B78FB720023FB600BE08B
:10069C00FB6801337A681A44FB6879680B4412785A
:1006AC001A70FB680133FB600823013BFA689A421D
:1006BC00EEDB0823013B7A681344FA7A1A7000BF08
:1006CC001437BD4680BC704780B58AB000AF7860E7
:1006DC007B68072B00F2258201A252F823F000BFA1
:1006EC000D0700088F070008110800089308000880
:1006FC0015090008970900082D0A0008AF0A000820
:10070C00FFF79AFFA94A7B6852F82300A84A7B6836
:10071C0032F813300122194601F01AF800237B62DB
:10072C0027E0A44A7B6813441B781A467B6A42FA7A
:10073C0003F303F00103002B0CD09F4A7B6A52F8A1
:10074C0023009E4A7B6A32F813300122194600F0CE
:10075C00FFFF0BE0984A7B6A52F82300974A7B6AAA
:10076C0032F813300022194600F0F2FF7B6A013395
:10077C007B6208227B6A9342D3DB7B6801337B600C
:10078C00D0E1FFF759FF894A7B6852F82300884A69
:10079C007B6832F813300122194600F0D9FF002390
:1007AC003B6227E0834A7B6813441B781A463B6AFA
:1007BC0042FA03F303F00103002B0CD07E4A3B6A90
:1007CC0052F823007D4A3B6A32F813300122194655
:1007DC0000F0BEFF0BE0784A3B6A52F82300774AE0
:1007EC003B6A32F813300022194600F0B1FF3B6A25
:1007FC0001333B6208223B6A9342D3DB7B680133B3
:10080C007B608FE1FFF718FF684A7B6852F8230082
:10081C00674A7B6832F813300122194600F098FFC2
:10082C000023FB6127E0634A7B6813441B781A465C
:10083C00FB6942FA03F303F00103002B0CD05E4A70
:10084C00FB6952F823005D4AFB6932F81330012230
:10085C00194600F07DFF0BE0574AFB6952F8230064
:10086C00564AFB6932F813300022194600F070FF2B
:10087C00FB690133FB610822FB699342D3DB7B6884
:10088C0001337B604EE1FFF7D7FE484A7B6852F894
:10089C002300474A7B6832F813300122194600F0D6
:1008AC0057FF0023BB6127E0424A7B6813441B7847
:1008BC001A46BB6942FA03F303F00103002B0CD078
:1008CC003D4ABB6952F823003C4ABB6932F81330ED
:1008DC000122194600F03CFF0BE0374ABB6952F885
:1008EC002300364ABB6932F813300022194600F057
:1008FC002FFFBB690133BB610822BB699342D3DB79
:10090C007B6801337B600DE1FFF796FE274A7B681D
:10091C0052F82300264A7B6832F81330012219461C
:10092C0000F016FF00237B6127E0224A7B6813440A
:10093C001B781A467B6942FA03F303F00103002B80
:10094C000CD01D4A7B6952F823001C4A7B6932F893
:10095C0013300122194600F0FBFE0BE0164A7B69AE
:10096C0052F82300154A7B6932F8133000221946DD
:10097C0000F0EEFE7B6901337B6108227B699342B8
:10098C00D3DB7B6801337B60CCE0FFF755FE074A75
:10099C007B6852F82300064A7B6832F81330012238
:1009AC00194600F0D5FE00233B6131E01000002019
:1009BC00300000207000002040000020600000206B
:1009CC005A4A7B6813441B781A463B6942FA03F374
:1009DC0003F00103002B0CD0554A3B6952F823005D
:1009EC00544A3B6932F813300122194600F0B0FE2C
:1009FC000BE04F4A3B6952F823004E4A3B6932F8F0
:100A0C0013300022194600F0A3FE3B6901333B6111
:100A1C0008223B699342D3DB7B6801337B6081E026
:100A2C00FFF70AFE444A7B6852F82300434A7B686E
:100A3C0032F813300122194600F08AFE0023FB60C5
:100A4C0027E03A4A7B6813441B781A46FB6842FA43
:100A5C0003F303F00103002B0CD0354AFB6852F86A
:100A6C002300344AFB6832F813300122194600F097
:100A7C006FFE0BE02E4AFB6852F823002D4AFB68F0
:100A8C0032F813300022194600F062FEFB68013385
:100A9C00FB600822FB689342D3DB7B6801337B60ED
:100AAC0040E0FFF7C9FD244A7B6852F82300234A33
:100ABC007B6832F813300122194600F049FE0023FE
:100ACC00BB6027E0194A7B6813441B781A46BB6845
:100ADC0042FA03F303F00103002B0CD0144ABB6859
:100AEC0052F82300134ABB6832F81330012219461E
:100AFC0000F02EFE0BE00E4ABB6852F823000D4AA4
:100B0C00BB6832F813300022194600F021FEBB6896
:100B1C000133BB600822BB689342D3DB00237B60AC
:100B2C0000E000BF00BF2837BD4680BD700000202C
:100B3C004000002060000020100000203000002049
:100B4C0080B584B000AF00F019FB00F0CFF800F0D6
:100B5C0055F900F007F95D4801F058FA01224021DF
:100B6C005B4800F0F5FD01228021594800F0F0FDB2
:100B7C0001224FF48071564800F0EAFD01224FF437
:100B8C000071534800F0E4FD0F23FB600823BB60A9
:100B9C0032237B60642000F097F9022000F0A8F962
:100BAC00042000F0B9F90A2000F0CAF900233B60D8
:100BBC00484B1B68012B0AD1642000F085F92021D9
:100BCC00434800F0DDFD1021414800F0D9FD424BB7
:100BDC001B68012B1ED1642000F08AF97B6801335D
:100BEC007B607B683B2B04DD00237B60BB6801339F
:100BFC00BB60BB683B2B04DD0023BB60FB6801338F
:100C0C00FB60FB68172B01DD0023FB60B968F868FB
:100C1C00FFF7C2FC314B1B68012B3BD1042000F0C9
:100C2C007BF92F4B1B68032B36D801A252F823F00B
:100C3C004D0C0008630C0008790C00088F0C0008A0
:100C4C00274B1B681846FFF70BFC254B1B68013321
:100C5C00234A136021E0224B1B681846FFF700FC67
:100C6C001F4B1B6801331E4A136016E01C4B1B689C
:100C7C001846FFF7F5FB1A4B1B680133184A136033
:100C8C000BE0174B1B681846FFF7EAFB144B0022CE
:100C9C001A6002E000BF00E000BF124B1B68012B82
:100CAC0086D1022000F04CF93B685A1C3A60184679
:100CBC00FFF70AFD08223B689342FFF679AF002349
:100CCC003B600948FFF7DAFC72E700BFC400002064
:100CDC0000080140A8000020B0000020B80000204F
:100CEC00A0000020C00000207000002080B590B053
:100CFC0000AF07F1180328220021184601F036FD39
:100D0C003B1D00221A605A609A60DA601A61022355
:100D1C00BB610123BB621023FB6200237B6307F1E1
:100D2C001803184600F046FD0346002B01D000F0D6
:100D3C00C5F80F237B600023BB600023FB600023FE
:100D4C003B6100237B613B1D0021184600F0B2FF84
:100D5C000346002B01D000F0B1F800BF4037BD4670
:100D6C0080BD000080B586B000AF07F108030022FB
:100D7C001A605A609A60DA603B4600221A605A6028
:100D8C001D4B4FF080421A601B4B41F63F725A606C
:100D9C00194B00229A60184B0922DA60164B00227C
:100DAC001A61154B00229A61134801F0DFF80346D3
:100DBC00002B01D000F082F84FF48053BB6007F198
:100DCC00080319460C4801F05DFA0346002B01D0CC
:100DDC0000F074F800233B6000237B603B4619460F
:100DEC00054801F035FC0346002B01D000F066F8F5
:100DFC0000BF1837BD4680BDC400002080B586B04A
:100E0C0000AF07F1080300221A605A609A60DA609A
:100E1C00224B9B69214A43F0040393611F4B9B694E
:100E2C0003F004037B607B681C4B9B691B4A43F0FB
:100E3C0008039361194B9B6903F008033B603B6803
:100E4C0000224FF6FC71164800F082FC00224FF68F
:100E5C007F71144800F07CFC4FF6FC73BB600123DF
:100E6C00FB6000233B6102237B6107F108031946F9
:100E7C000B4800F0F3FA4FF67F73BB600123FB6065
:100E8C0000233B6102237B6107F1080319460548E7
:100E9C0000F0E4FA00BF1837BD4680BD00100240D8
:100EAC0000080140000C014080B582B000AF7860B2
:100EBC0000F05AF800BF0837BD4680BD80B400AFC3
:100ECC0072B600BFFEE7000080B483B000AF78605C
:100EDC00054A7B681360054B00221A6000BF0C3773
:100EEC00BD4680BC704700BFA4000020A8000020B5
:100EFC0080B483B000AF7860054A7B681360054B03
:100F0C0000221A6000BF0C37BD4680BC704700BF82
:100F1C00AC000020B000002080B483B000AF78603B
:100F2C00054A7B681360054B00221A6000BF0C3722
:100F3C00BD4680BC704700BFB4000020B800002044
:100F4C0080B483B000AF7860054A7B681360054BB2
:100F5C0000221A6000BF0C37BD4680BC704700BF32
:100F6C00BC000020C000002080B400AF214B1B68E7
:100F7C00002B0BDD1F4B1B68013B1E4A13601D4BE6
:100F8C001B68002B02DC1C4B01221A601B4B1B68DC
:100F9C00002B0BDD194B1B68013B184A1360174BD8
:100FAC001B68002B02DC164B01221A60154B1B68C8
:100FBC00002B0BDD134B1B68013B124A1360114BCA
:100FCC001B68002B02DC104B01221A600F4B1B68B4
:100FDC00002B0BDD0D4B1B68013B0C4A13600B4BBC
:100FEC001B68002B02DC0A4B01221A6000BFBD46B5
:100FFC0080BC7047A4000020A8000020AC0000209A
:10100C00B0000020B4000020B8000020BC0000207C
:10101C00C000002080B485B000AF154B9B69144A0A
:10102C0043F001039361124B9B6903F00103BB6016
:10103C00BB680F4BDB690E4A43F08053D3610C4BFA
:10104C00DB6903F080537B607B680A4B5B68FB6059
:10105C00FB6823F0E063FB60FB6843F08063FB609C
:10106C00044AFB68536000BF1437BD4680BC704710
:10107C00001002400000014080B584B000AF7860E1
:10108C007B681B68B3F1804F13D10C4BDB690B4AA7
:10109C0043F00103D361094BDB6903F00103FB60EF
:1010AC00FB68002200211C2000F0A1F91C2000F09C
:1010BC00BAF900BF1037BD4680BD00BF001002401A
:1010CC0080B400AFFEE780B400AFFEE780B400AFA1
:1010DC00FEE780B400AFFEE780B400AFFEE780B45B
:1010EC0000AF00BFBD4680BC704780B400AF00BFEE
:1010FC00BD4680BC704780B400AF00BFBD4680BC0D
:10110C00704780B500AF00F07FF800BF80BD0000D5
:10111C0080B500AF024800F0C5FF00BF80BD00BF26
:10112C00C400002080B400AF00BFBD4680BC704737
:10113C00FFF7F8FF0B480C490C4A002302E0D45887
:10114C00C4500433C4188C42F9D3094A094C002307
:10115C0001E013600432A242FBD301F0E3FAFFF783
:10116C00EFFC70470000002084000020CC27000812
:10117C008400002010010020FEE7000080B500AFC5
:10118C00084B1B68074A43F010031360032000F060
:10119C0023F90F2000F008F8FFF73CFF0023184656
:1011AC0080BD00BF0020024080B582B000AF7860E7
:1011BC00124B1A68124B1B7819464FF47A73B3FB17
:1011CC00F1F3B2FBF3F3184600F03BF90346002BA6
:1011DC0001D001230EE07B680F2B0AD8002279681E
:1011EC004FF0FF3000F003F9064A7B6813600023D0
:1011FC0000E0012318460837BD4680BD780000206A
:10120C00800000207C00002080B400AF054B1B78D0
:10121C001A46054B1B681344034A136000BFBD46B6
:10122C0080BC7047800000200C01002080B400AF0F
:10123C00024B1B681846BD4680BC70470C01002051
:10124C0080B485B000AF78607B6803F00703FB6067
:10125C000C4BDB68BB60BA684FF6FF031340BB60F6
:10126C00FB681A02BB68134343F0BF6343F40033BB
:10127C00BB60044ABB68D36000BF1437BD4680BC5A
:10128C00704700BF00ED00E080B400AF044BDB689A
:10129C001B0A03F007031846BD4680BC704700BF0D
:1012AC0000ED00E080B483B000AF0346FB7197F90A
:1012BC000730002B0BDBFB7903F01F02064997F973
:1012CC0007305B09012000FA02F241F8232000BF2D
:1012DC000C37BD4680BC704700E100E080B483B0A1
:1012EC0000AF03463960FB7197F90730002B0ADB1E
:1012FC003B68DAB20C4997F907301201D2B20B44B1
:10130C0083F800230AE03B68DAB20849FB7903F062
:10131C000F03043B1201D2B20B441A7600BF0C37F8
:10132C00BD4680BC704700BF00E100E000ED00E06E
:10133C0080B489B000AFF860B9607A60FB6803F0E4
:10134C000703FB61FB69C3F10703042B28BF0423CC
:10135C00BB61FB690433062B02D9FB69033B00E03C
:10136C0000237B614FF0FF32BB6902FA03F3DA43CF
:10137C00BB681A407B699A404FF0FF317B6901FAD8
:10138C0003F3D9437B680B40134318462437BD46FF
:10139C0080BC704780B582B000AF78607B68013B41
:1013AC00B3F1807F01D301230FE00A4A7B68013B34
:1013BC0053600F214FF0FF30FFF790FF054B0022D9
:1013CC009A60044B07221A60002318460837BD4662
:1013DC0080BD00BF10E000E080B582B000AF786047
:1013EC007868FFF72DFF00BF0837BD4680BD80B57C
:1013FC0086B000AF0346B9607A60FB7300237B6153
:10140C00FFF742FF78617A68B9687869FFF790FF57
:10141C00024697F90F3011461846FFF75FFF00BFE1
:10142C001837BD4680BD80B582B000AF0346FB7156
:10143C0097F907301846FFF735FF00BF0837BD4650
:10144C0080BD80B582B000AF78607868FFF7A2FFEE
:10145C00034618460837BD4680BD000080B48BB0EB
:10146C0000AF7860396000237B6200233B6248E167
:10147C0001227B6A02FA03F3FB613B681B68FA6981
:10148C001340BB61BA69FB699A4240F037813B68F3
:10149C005B68A34A93425ED0A14A934275D8A14A95
:1014AC00934258D09F4A93426FD89F4A934252D04E
:1014BC009D4A934269D89D4A93424CD09B4A934291
:1014CC0063D89B4A934246D0994A93425DD8122BDB
:1014DC002AD8122B59D801A252F823F06315000810
:1014EC003D1500084F1500089115000897150008C8
:1014FC009715000897150008971500089715000810
:10150C0097150008971500089715000897150008FF
:10151C0097150008971500089715000897150008EF
:10152C004515000859150008824A934213D02CE047
:10153C003B68DB683B6229E03B68DB6804333B6259
:10154C0024E03B68DB6808333B621FE03B68DB68E8
:10155C000C333B621AE03B689B68002B02D10423DE
:10156C003B6213E03B689B68012B05D108233B626F
:10157C007B68FA691A6109E008233B627B68FA69A7
:10158C005A6103E000233B6200E000BFBB69FF2B04
:10159C0001D87B6801E07B6804337B61BB69FF2B5E
:1015AC0002D87B6A9B0002E07B6A083B9B003B6194
:1015BC007B691A680F213B6901FA03F3DB431A407C
:1015CC00396A3B6901FA03F31A437B691A603B6879
:1015DC005B6803F08053002B00F09080564B9B69A6
:1015EC00554A43F001039361534B9B6903F001038C
:1015FC00BB60BB68514A7B6A9B08023352F82330AC
:10160C00FB607B6A03F003039B000F2202FA03F3D7
:10161C00DB43FA681340FB607B68494A93420DD068
:10162C007B68484A934207D07B68474A934201D172
:10163C00022304E0032302E0012300E000237A6A82
:10164C0002F0030292009340FA681343FB603B499B
:10165C007B6A9B080233FA6841F823203B685B687D
:10166C0003F48013002B06D0384B9A683749BB69BA
:10167C0013438B6006E0354B9A68BB69DB433349F7
:10168C0013408B603B685B6803F40013002B06D09F
:10169C002E4BDA682D49BB691343CB6006E02B4B0C
:1016AC00DA68BB69DB4329491340CB603B685B6854
:1016BC0003F40033002B06D0244B5A682349BB6932
:1016CC0013434B6006E0214B5A68BB69DB431F494F
:1016DC0013404B603B685B6803F48033002B06D0EF
:1016EC001A4B1A681949BB6913430B6006E0174B78
:1016FC001A68BB69DB43154913400B607B6A0133E5
:10170C007B623B681A687B6A22FA03F3002B7FF436
:10171C00AFAE00BF00BF2C37BD4680BC704700BFCA
:10172C0000003210000031100000221000002110C7
:10173C0000001210000011100010024000000140C7
:10174C0000080140000C0140001001400004014061
:10175C0080B483B000AF78600B467B8013467B70FF
:10176C007B78002B03D07A887B681A6103E07B8836
:10177C001A047B681A6100BF0C37BD4680BC7047E9
:10178C0080B485B000AF78600B467B807B68DB68EB
:10179C00FB607A88FB6813401A04FB68D9437B888A
:1017AC000B401A437B681A6100BF1437BD4680BCDE
:1017BC007047000080B586B000AF78607B68002B66
:1017CC0001D101236CE27B681B6803F00103002B41
:1017DC0000F08780924B5B6803F00C03042B0CD059
:1017EC008F4B5B6803F00C03082B12D18C4B5B689E
:1017FC0003F48033B3F5803F0BD1894B1B6803F4A2
:10180C000033002B6CD07B685B68002B68D1012304
:10181C0046E27B685B68B3F5803F06D1804B1B6862
:10182C007F4A43F4803313602EE07B685B68002BA7
:10183C000CD17B4B1B687A4A23F480331360784BB2
:10184C001B68774A23F4802313601DE07B685B6878
:10185C00B3F5A02F0CD1724B1B68714A43F4802353
:10186C0013606F4B1B686E4A43F4803313600BE0BC
:10187C006B4B1B686A4A23F480331360684B1B68FC
:10188C00674A23F4802313607B685B68002B13D0BA
:10189C00FFF7CCFC386108E0FFF7C8FC02463B6957
:1018AC00D31A642B01D90323FAE15D4B1B6803F4B3
:1018BC000033002BF0D014E0FFF7B8FC386108E0DF
:1018CC00FFF7B4FC02463B69D31A642B01D90323FE
:1018DC00E6E1534B1B6803F40033002BF0D100E01E
:1018EC0000BF7B681B6803F00203002B63D04C4BDA
:1018FC005B6803F00C03002B0BD0494B5B6803F0C7
:10190C000C03082B1CD1464B5B6803F48033002B73
:10191C0016D1434B1B6803F00203002B05D07B68E8
:10192C001B69012B01D00123BAE13D4B1B6823F04D
:10193C00F8027B685B69DB00394913430B603AE0C2
:10194C007B681B69002B20D0364B01221A60FFF7F5
:10195C006DFC386108E0FFF769FC02463B69D31A5D
:10196C00022B01D903239BE12D4B1B6803F00203CF
:10197C00002BF0D02A4B1B6823F0F8027B685B69C4
:10198C00DB00274913430B6015E0264B00221A603D
:10199C00FFF74CFC386108E0FFF748FC02463B6956
:1019AC00D31A022B01D903237AE11D4B1B6803F0D8
:1019BC000203002BF0D17B681B6803F00803002B9B
:1019CC003AD07B689B69002B19D0174B01221A6007
:1019DC00FFF72CFC386108E0FFF728FC02463B6956
:1019EC00D31A022B01D903235AE10D4B5B6A03F086
:1019FC000203002BF0D0012000F09AFA1CE00A4BF5
:101A0C0000221A60FFF712FC38610FE0FFF70EFCA2
:101A1C0002463B69D31A022B08D9032340E100BFCD
:101A2C000010024000004242800442429E4B5B6A1E
:101A3C0003F00203002BE9D17B681B6803F004035D
:101A4C00002B00F0A6800023FB75974BDB6903F09D
:101A5C008053002B0DD1944BDB69934A43F0805398
:101A6C00D361914BDB6903F08053BB60BB680123EE
:101A7C00FB758E4B1B6803F48073002B18D18B4BBA
:101A8C001B688A4A43F480731360FFF7CFFB3861FD
:101A9C0008E0FFF7CBFB02463B69D31A642B01D954
:101AAC000323FDE0814B1B6803F48073002BF0D003
:101ABC007B68DB68012B06D17B4B1B6A7A4A43F0AF
:101ACC00010313622DE07B68DB68002B0CD1764B95
:101ADC001B6A754A23F001031362734B1B6A724A2B
:101AEC0023F0040313621CE07B68DB68052B0CD12C
:101AFC006D4B1B6A6C4A43F0040313626A4B1B6AFE
:101B0C00694A43F0010313620BE0674B1B6A664A98
:101B1C0023F001031362644B1B6A634A23F0040332
:101B2C0013627B68DB68002B15D0FFF77FFB3861F5
:101B3C000AE0FFF77BFB02463B69D31A41F288327D
:101B4C00934201D90323ABE0574B1B6A03F002030A
:101B5C00002BEED014E0FFF769FB38610AE0FFF7C9
:101B6C0065FB02463B69D31A41F28832934201D994
:101B7C00032395E04C4B1B6A03F00203002BEED1C0
:101B8C00FB7D012B05D1484BDB69474A23F0805381
:101B9C00D3617B68DB69002B00F08180424B5B6872
:101BAC0003F00C03082B61D07B68DB69022B46D158
:101BBC003F4B00221A60FFF739FB386108E0FFF752
:101BCC0035FB02463B69D31A022B01D9032367E08C
:101BDC00354B1B6803F00073002BF0D17B681B6A3C
:101BEC00B3F5803F08D1304B5B6823F400327B683F
:101BFC009B682D4913434B602B4B5B6823F4741289
:101C0C007B68196A7B685B6A0B43274913434B60FB
:101C1C00274B01221A60FFF709FB386108E0FFF738
:101C2C0005FB02463B69D31A022B01D9032337E08B
:101C3C001D4B1B6803F00073002BF0D02FE01C4BE6
:101C4C0000221A60FFF7F2FA386108E0FFF7EEFAAB
:101C5C0002463B69D31A022B01D9032320E0124B15
:101C6C001B6803F00073002BF0D118E07B68DB6974
:101C7C00012B01D1012313E00B4B5B68FB60FB686C
:101C8C0003F480327B681B6A9A4206D1FB6803F42A
:101C9C0070127B685B6A9A4201D0012300E000233A
:101CAC0018461837BD4680BD001002400070004039
:101CBC006000424280B584B000AF786039607B68C8
:101CCC00002B01D10123D0E06A4B1B6803F0070302
:101CDC003A689A4210D9674B1B6823F00702654992
:101CEC003B6813430B60634B1B6803F007033A68B4
:101CFC009A4201D00123B8E07B681B6803F0020311
:101D0C00002B20D07B681B6803F00403002B05D04C
:101D1C00594B5B68584A43F4E06353607B681B681B
:101D2C0003F00803002B05D0534B5B68524A43F475
:101D3C0060535360504B5B6823F0F0027B689B68E8
:101D4C004D4913434B607B681B6803F00103002B68
:101D5C0040D07B685B68012B07D1474B1B6803F4B1
:101D6C000033002B15D101237FE07B685B68022BCD
:101D7C0007D1414B1B6803F00073002B09D10123E1
:101D8C0073E03D4B1B6803F00203002B01D10123D0
:101D9C006BE0394B5B6823F003027B685B68364968
:101DAC0013434B60FFF742FAF8600AE0FFF73EFA84
:101DBC000246FB68D31A41F28832934201D90323BD
:101DCC0053E02D4B5B6803F00C027B685B689B0057
:101DDC009A42EBD1274B1B6803F007033A689A42EF
:101DEC0010D2244B1B6823F0070222493B68134393
:101DFC000B60204B1B6803F007033A689A4201D032
:101E0C00012332E07B681B6803F00403002B08D02D
:101E1C00194B5B6823F4E0627B68DB68164913435B
:101E2C004B607B681B6803F00803002B09D0124B36
:101E3C005B6823F460527B681B69DB000E4913431B
:101E4C004B6000F021F802460B4B5B681B0903F05A
:101E5C000F030A49CB5C22FA03F3094A1360094BBE
:101E6C001B681846FFF7A0F9002318461037BD462B
:101E7C0080BD00BF0020024000100240A0270008D7
:101E8C00780000207C00002080B487B000AF0023D5
:101E9C00FB600023BB6000237B6100237B6000237D
:101EAC003B611E4B5B68FB60FB6803F00C03042B6F
:101EBC0002D0082B03D027E0194B3B6127E0FB68CD
:101ECC009B0C03F00F03174AD35C7B60FB6803F495
:101EDC008033002B10D0114B5B685B0C03F00103BB
:101EEC00114AD35CBB607B680D4A02FB03F2BB68F2
:101EFC00B2FBF3F37B6104E07B680C4A02FB03F357
:101F0C007B617B693B6102E0054B3B6100BF3B6938
:101F1C0018461C37BD4680BC704700BF00100240FD
:101F2C0000127A00B0270008C027000800093D0005
:101F3C0080B485B000AF78600A4B1B680A4AA2FBDC
:101F4C0003235B0A7A6802FB03F3FB6000BFFB68A8
:101F5C005A1EFA60002BF9D100BF00BF1437BD46E2
:101F6C0080BC704778000020D34D621080B582B0E1
:101F7C0000AF78607B68002B01D1012341E07B68C6
:101F8C0093F83D30DBB2002B06D17B68002283F83E
:101F9C003C207868FFF770F87B68022283F83D20BC
:101FAC007B681A687B6804331946104600F056FAB1
:101FBC007B68012283F846207B68012283F83E204F
:101FCC007B68012283F83F207B68012283F8402044
:101FDC007B68012283F841207B68012283F8422030
:101FEC007B68012283F843207B68012283F844201C
:101FFC007B68012283F845207B68012283F83D2011
:10200C00002318460837BD4680BD000080B485B05B
:10201C0000AF78607B6893F83D30DBB2012B01D0C8
:10202C00012335E07B68022283F83D207B681B6826
:10203C00DA687B681B6842F00102DA607B681B6817
:10204C00164A934209D07B681B68B3F1804F04D0C9
:10205C007B681B68124A934211D17B681B689B6892
:10206C0003F00703FB60FB68062B10D07B681B6832
:10207C001A687B681B6842F001021A6007E07B68F3
:10208C001B681A687B681B6842F001021A60002307
:10209C0018461437BD4680BC704700BF002C014069
:1020AC000004004080B584B000AF78607B681B688A
:1020BC00DB68FB607B681B681B69BB60BB6803F05B
:1020CC000203002B20D0FB6803F00203002B1BD073
:1020DC007B681B686FF002021A617B6801221A7719
:1020EC007B681B689B6903F00303002B03D07868A3
:1020FC0000F098F905E0786800F08BF9786800F04A
:10210C009AF97B6800221A77BB6803F00403002B52
:10211C0020D0FB6803F00403002B1BD07B681B68EA
:10212C006FF004021A617B6802221A777B681B68C5
:10213C009B6903F44073002B03D0786800F072F9AC
:10214C0005E0786800F065F9786800F074F97B6850
:10215C0000221A77BB6803F00803002B20D0FB6821
:10216C0003F00803002B1BD07B681B686FF0080280
:10217C001A617B6804221A777B681B68DB6903F0A1
:10218C000303002B03D0786800F04CF905E0786865
:10219C0000F03FF9786800F04EF97B6800221A775E
:1021AC00BB6803F01003002B20D0FB6803F0100376
:1021BC00002B1BD07B681B686FF010021A617B68C8
:1021CC0008221A777B681B68DB6903F44073002BC9
:1021DC0003D0786800F026F905E0786800F019F96A
:1021EC00786800F028F97B6800221A77BB6803F046
:1021FC000103002B0CD0FB6803F00103002B07D06C
:10220C007B681B686FF001021A617868FEF74CFE60
:10221C00BB6803F08003002B0CD0FB6803F0800339
:10222C00002B07D07B681B686FF080021A617868FE
:10223C0000F06FFABB6803F04003002B0CD0FB6876
:10224C0003F04003002B07D07B681B686FF0400243
:10225C001A61786800F0F8F8BB6803F02003002BD3
:10226C000CD0FB6803F02003002B07D07B681B68A5
:10227C006FF020021A61786800F042FA00BF103744
:10228C00BD4680BD80B584B000AF78603960002356
:10229C00FB737B6893F83C30012B01D10223B4E033
:1022AC007B68012283F83C207B68022283F83D2066
:1022BC007B681B689B68BB60BB6823F07703BB60C3
:1022CC00BB6823F47F43BB607B681B68BA689A6069
:1022DC003B681B68B3F5005F3ED0B3F5005F00F2BE
:1022EC008780B3F5805F00F08680B3F5805F7FD880
:1022FC00702B1AD0702B7BD8602B50D0602B77D8DA
:10230C00502B3CD0502B73D8402B58D0402B6FD82F
:10231C00302B64D0302B6BD8202B60D0202B67D87F
:10232C00002B5CD0102B5AD062E07B6818683B689D
:10233C0099683B685A683B68DB6800F06AF97B680F
:10234C001B689B68BB60BB6843F07703BB607B6812
:10235C001B68BA689A604FE07B6818683B6899689C
:10236C003B685A683B68DB6800F053F97B681B6874
:10237C009A687B681B6842F480429A603CE07B68F8
:10238C0018683B6859683B68DB681A4600F0CAF865
:10239C007B681B685021184600F021F92CE07B6803
:1023AC0018683B6859683B68DB681A4600F0E8F827
:1023BC007B681B686021184600F011F91CE07B68F3
:1023CC0018683B6859683B68DB681A4600F0AAF845
:1023DC007B681B684021184600F001F90CE07B6813
:1023EC001A683B681B681946104600F0F8F803E0C1
:1023FC000123FB7300E000BF7B68012283F83D20C2
:10240C007B68002283F83C20FB7B18461037BD46C6
:10241C0080BD80B483B000AF786000BF0C37BD4680
:10242C0080BC704780B483B000AF786000BF0C37BD
:10243C00BD4680BC704780B483B000AF786000BFED
:10244C000C37BD4680BC704780B483B000AF786059
:10245C0000BF0C37BD4680BC7047000080B485B00F
:10246C0000AF786039607B681B68FB607B682B4A27
:10247C00934207D07B68B3F1804F03D07B68284A26
:10248C00934208D1FB6823F07003FB603B685B68E8
:10249C00FA681343FB607B68204A934207D07B6841
:1024AC00B3F1804F03D07B681D4A934208D1FB687F
:1024BC0023F44073FB603B68DB68FA681343FB60F2
:1024CC00FB6823F080023B685B691343FB607B680D
:1024DC00FA681A603B689A687B68DA623B681A682B
:1024EC007B689A627B680D4A934203D13B681A69F8
:1024FC007B681A637B6801225A617B681B6903F055
:10250C000103002B05D07B681B6923F001027B685B
:10251C001A6100BF1437BD4680BC7047002C0140C7
:10252C000004004080B487B000AFF860B9607A60F6
:10253C00FB681B6A7B61FB681B6A23F00102FB686A
:10254C001A62FB689B693B613B6923F0F0033B61BA
:10255C007B681B013A6913433B617B6923F00A03D7
:10256C007B617A69BB6813437B61FB683A699A614A
:10257C00FB687A691A6200BF1C37BD4680BC704785
:10258C0080B487B000AFF860B9607A60FB681B6AF2
:10259C007B61FB681B6A23F01002FB681A62FB6804
:1025AC009B693B613B6923F470433B617B681B0374
:1025BC003A6913433B617B6923F0A0037B61BB68E1
:1025CC001B017A6913437B61FB683A699A61FB686A
:1025DC007A691A6200BF1C37BD4680BC704780B454
:1025EC0085B000AF786039607B689B68FB60FB68E6
:1025FC0023F07003FB603A68FB68134343F0070356
:10260C00FB607B68FA689A6000BF1437BD4680BCDB
:10261C00704780B487B000AFF860B9607A603B60F7
:10262C00FB689B687B617B6923F47F437B613B6820
:10263C001A027B681A43BB6813437A6913437B61A4
:10264C00FB687A699A6000BF1C37BD4680BC704736
:10265C0080B485B000AF786039607B6893F83C300B
:10266C00012B01D1022341E07B68012283F83C203D
:10267C007B68022283F83D207B681B685B68FB60EB
:10268C007B681B689B68BB60FB6823F07003FB6076
:10269C003B681B68FA681343FB607B681B68FA682D
:1026AC005A607B681B68144A934209D07B681B688C
:1026BC00B3F1804F04D07B681B68104A93420CD155
:1026CC00BB6823F08003BB603B685B68BA6813434C
:1026DC00BB607B681B68BA689A607B68012283F8D0
:1026EC003D207B68002283F83C20002318461437D9
:1026FC00BD4680BC704700BF002C01400004004068
:10270C0080B483B000AF786000BF0C37BD4680BC8E
:10271C00704780B483B000AF786000BF0C37BD4603
:10272C0080BC704770B500260C4D0D4C641BA4107A
:10273C00A64209D100F022F800260A4D0A4C641B6F
:10274C00A410A64205D170BD55F8043B984701363C
:10275C00EEE755F8043B98470136F2E7C42700082A
:10276C00C4270008C4270008C827000803460244F1
:10277C00934200D1704703F8011BF9E7F8B500BF8D
:10278C00F8BC08BC9E467047F8B500BFF8BC08BC46
:04279C009E4670479E
:1027A0000000000000000000010203040607080901
:1027B00002030405060708090A0B0C0D0E0F101082
:0427C0000102000012
:0427C40031010008D7
:0427C8000D010008F7
:1027CC0001000000020000000300000004000000F3
:1027DC0000080140000801400008014000080140C9
:1027EC0000080140000801400008014000080140B9
:1027FC0004000800000400080010002000400080C5
:10280C00000C0140000C0140000C0140000C014088
:10281C00000C0140000C0140000C0140000C014078
:10282C00000100020004000800100020004000809D
:10283C00183C66667E7E666600127A001000000008
:04284C000100000087
:040000050800113DA1
:00000001FF
