:020000040800F2
:100000000028002039200008C91F0008CF1F000861
:10001000D51F0008DB1F0008E11F000800000000DA
:10002000000000000000000000000000E71F0008C2
:10003000F31F000800000000FF1F00080B2000084D
:10004000812000088120000881200008812000080C
:1000500081200008812000088120000881200008FC
:1000600081200008812000088120000881200008EC
:1000700081200008812000088120000881200008DC
:1000800081200008812000088120000881200008CC
:1000900081200008812000088120000881200008BC
:1000A00081200008812000088120000881200008AC
:1000B00019200008812000080000000081200008AD
:1000C00081200008000000000000000081200008DE
:1000D00000000000812000088120000800000000CE
:1000E0008120000881200008812000080000000015
:1000F0000000000000000000000000000000000000
:0C01000000000000000000005FF808F1A3
:10010C0010B5054C237833B9044B13B10448AFF345
:10011C0000800123237010BD4C0000200000000063
:10012C00B036000808B5034B1BB103490348AFF3C5
:10013C00008008BD0000000050000020B036000810
:10014C0080B483B000AF00237B6047E028497A6815
:10015C001346DB009B1A9B000B4401221A602449B6
:10016C007A681346DB009B1A9B000B440433012274
:10017C001A601F497A681346DB009B1A9B000B44DC
:10018C00083301221A601A497A681346DB009B1A5D
:10019C009B000B440C3301221A6015497A681346F4
:1001AC00DB009B1A9B000B44103332221A6010495F
:1001BC007A681346DB009B1A9B000B441433002215
:1001CC001A600B497A681346DB009B1A9B000B44A0
:1001DC00183300221A607B6801337B607B68032B29
:1001EC00B4DD00BF00BF0C37BD4680BC704700BFFC
:1001FC009C00002080B483B000AF78600E497A6810
:10020C001346DB009B1A9B000B4414331B68012B19
:10021C000BD109497A681346DB009B1A9B000B44EF
:10022C00143300221A60012300E0002318460C3717
:10023C00BD4680BC704700BF9C00002080B483B0DA
:10024C0000AF786007497A681346DB009B1A9B0065
:10025C000B44143300221A6000BF0C37BD4680BC1F
:10026C00704700BF9C00002080B582B000AF002317
:10027C007B60E7E078497A681346DB009B1A9B00A9
:10028C000B440433196874487A681346DB009B1AD4
:10029C009B000344083319606F497A681346DB00EE
:1002AC009B1A9B000B4419686B487A681346DB0059
:1002BC009B1A9B00034404331960684A7B6852F80C
:1002CC00232067497B6831F813301946104602F039
:1002DC00BDF90346184660497A681346DB009B1A41
:1002EC009B000B4418605C497A681346DB009B1A30
:1002FC009B000B440433196857487A681346DB009B
:10030C009B1A9B0003441B68994240F09880524909
:10031C007A681346DB009B1A9B000B440433196864
:10032C004D487A681346DB009B1A9B000344083344
:10033C001B68994240F0838047497A681346DB007A
:10034C009B1A9B000B440833196843487A68134680
:10035C00DB009B1A9B0003440C331B68994231D081
:10036C003D497A681346DB009B1A9B000B4408330B
:10037C00196839487A681346DB009B1A9B000344C2
:10038C000C33196034497A681346DB009B1A9B00C6
:10039C000B440C331B68002B51D12F497A68134640
:1003AC00DB009B1A9B000B44103332221A602A4943
:1003BC007A681346DB009B1A9B000B441433012212
:1003CC001A603CE024497A681346DB009B1A9B00B8
:1003DC000B4410331B68591E1F487A681346DB0008
:1003EC009B1A9B000344103319601B497A6813460F
:1003FC00DB009B1A9B000B4410331B68002B1ED197
:10040C0015497A681346DB009B1A9B000B4410338A
:10041C0032221A6010497A681346DB009B1A9B0043
:10042C000B440C331B68002B09D10B497A6813461B
:10043C00DB009B1A9B000B44143301221A607B686F
:10044C0001337B607B68032B7FF714AF00BF00BFC9
:10045C000837BD4680BD00BF9C0000200000002076
:10046C001000002080B500AF01220821094802F0DD
:10047C0004F901221021074802F0FFF80122402163
:10048C00044802F0FAF801228021024802F0F5F843
:10049C0000BF80BD0008014080B582B000AF78601D
:1004AC007B68092B00F2808101A252F823F000BF77
:1004BC00E50400082D05000875050008BD050008B9
:1004CC00050600084D06000895060008DD06000824
:1004DC00250700086D07000800220121B54802F02D
:1004EC00CCF800220221B34802F0C7F80022042104
:1004FC00B04802F0C2F800220821AE4802F0BDF864
:10050C0000221021AB4802F0B8F800222021A948A3
:10051C0002F0B3F801224021A64802F0AEF844E103
:10052C0001220121A34802F0A8F800220221A148CF
:10053C0002F0A3F8002204219E4802F09EF801224A
:10054C0008219C4802F099F801221021994802F0E8
:10055C0094F801222021974802F08FF801224021C3
:10056C00944802F08AF820E100220121914802F01F
:10057C0084F8002202218F4802F07FF80122042126
:10058C008C4802F07AF8002208218A4802F075F8AB
:10059C0000221021874802F070F8012220218548A2
:1005AC0002F06BF800224021824802F066F8FCE071
:1005BC00002201217F4802F060F8002202217D48D0
:1005CC0002F05BF8002204217A4802F056F800226F
:1005DC000821784802F051F801221021754802F0E8
:1005EC004CF801222021734802F047F800224021E8
:1005FC00704802F042F8D8E0012201216D4802F067
:10060C003CF8002202216B4802F037F8002204214A
:10061C00684802F032F801220821664802F02DF8F1
:10062C0001221021634802F028F8002220216148A1
:10063C0002F023F8002240215E4802F01EF8B4E0DC
:10064C00002201215B4802F018F8012202215948CE
:10065C0002F013F800220421564802F00EF8002292
:10066C000821544802F009F801221021514802F0E7
:10067C0004F8002220214F4801F0FFFF0022402106
:10068C004C4801F0FAFF90E000220121494801F0AA
:10069C00F4FF01220221474801F0EFFF0022042160
:1006AC00444801F0EAFF00220821424801F0E5FF2E
:1006BC00002210213F4801F0E0FF002220213D489C
:1006CC0001F0DBFF002240213A4801F0D6FF6CE03C
:1006DC0000220121374801F0D0FF002202213548C9
:1006EC0001F0CBFF00220421324801F0C6FF0122A9
:1006FC000821304801F0C1FF012210212D4801F0E2
:10070C00BCFF012220212B4801F0B7FF0122402120
:10071C00284801F0B2FF48E000220121254801F0F1
:10072C00ACFF00220221234801F0A7FF0022042184
:10073C00204801F0A2FF002208211E4801F09DFF75
:10074C00002210211B4801F098FF0022202119489B
:10075C0001F093FF00224021164801F08EFF24E0A7
:10076C0000220121134801F088FF002202211148C8
:10077C0001F083FF002204210E4801F07EFF0022CD
:10078C0008210C4801F079FF01221021094801F0E1
:10079C0074FF00222021074801F06FFF0022402146
:1007AC00044801F06AFF00E000BF00BF0837BD46F7
:1007BC0080BD00BF000C014080B485B000AFF86074
:1007CC00B9607A603B60084AFB681360064ABB68F4
:1007DC005360054A7B689360034A3B68D36000BF53
:1007EC001437BD4680BC70471800002080B500AFA0
:1007FC00504B1B68032B00F2998001A252F823F096
:10080C001D08000865080008AD080008F508000878
:10081C00FFF728FE01221021474801F02EFF01228C
:10082C004021454801F029FF01228021424801F076
:10083C0024FF00220821404801F01FFF3D4B1B689C
:10084C003E4A52F823301846FFF726FE394B1B68F8
:10085C000133384A13606AE0FFF704FE01220821D5
:10086C00354801F00AFF01224021334801F005FF11
:10087C0001228021304801F000FF002210212E4877
:10088C0001F0FBFE2B4B1B682C4A52F82330184608
:10089C00FFF702FE274B1B680133264A136046E024
:1008AC00FFF7E0FD01220821234801F0E6FE0122BA
:1008BC001021214801F0E1FE012280211E4801F0A7
:1008CC00DCFE002240211C4801F0D7FE194B1B68AE
:1008DC001A4A52F823301846FFF7DEFD154B1B68F9
:1008EC000133144A136022E0FFF7BCFD01220821FA
:1008FC00114801F0C2FE012210210F4801F0BDFE8B
:10090C00012240210C4801F0B8FE002280210A4847
:10091C0001F0B3FE074B1B68084A52F82330184607
:10092C00FFF7BAFD034B00221A6000E000BF00BFC6
:10093C0080BD00BF680000200008014018000020A6
:10094C0080B500AF01224FF48061114801F095FE93
:10095C0001224FF400510E4801F08FFE01224FF49A
:10096C0080710B4801F089FE01224FF400610848A8
:10097C0001F083FE01224FF40071054801F07DFE69
:10098C0001224FF48051024801F077FE00BF80BD78
:10099C000008014080B500AF01224FF4005111480E
:1009AC0001F06BFE01224FF480710E4801F065FEE0
:1009BC0001224FF400710B4801F05FFE01224FF44D
:1009CC008051084801F059FE00224FF4806105481F
:1009DC0001F053FE00224FF40061024801F04DFE7D
:1009EC0000BF80BD0008014080B500AF01224FF46C
:1009FC000051114801F041FE01224FF480710E4864
:100A0C0001F03BFE01224FF400610B4801F035FE72
:100A1C0001224FF40071084801F02FFE00224FF420
:100A2C008061054801F029FE00224FF480510248F4
:100A3C0001F023FE00BF80BD0008014080B500AF6F
:100A4C0001224FF48061114801F017FE01224FF48E
:100A5C0000610E4801F011FE01224FF400710B48A9
:100A6C0001F00BFE01224FF48051084801F005FE05
:100A7C0000224FF48071054801F0FFFD00224FF475
:100A8C000051024801F0F9FD00BF80BD0008014093
:100A9C0080B500AF01224FF48061114801F0EDFDEB
:100AAC0001224FF480710E4801F0E7FD01224FF452
:100ABC0000610B4801F0E1FD01224FF48051084820
:100ACC0001F0DBFD00224FF40071054801F0D5FD6B
:100ADC0000224FF40051024801F0CFFD00BF80BD51
:100AEC000008014080B500AF01224FF480711F480F
:100AFC0001F0C3FD01224FF400611C4801F0BDFD63
:100B0C0001224FF48051194801F0B7FD01224FF436
:100B1C000071164801F0B1FD154B1B68002B02D07B
:100B2C00012B10D01FE000224FF480610F4801F020
:100B3C00A4FD00224FF400510C4801F09EFD0C4B1B
:100B4C0001221A600FE001224FF48061074801F086
:100B5C0094FD01224FF40051044801F08EFD044B2A
:100B6C0000221A6000BF00BF80BD00BF000801401A
:100B7C006C00002080B500AF01224FF480711F483B
:100B8C0001F07BFD01224FF400611C4801F075FD62
:100B9C0001224FF48061194801F06FFD01224FF4DE
:100BAC000051164801F069FD154B1B68002B02D053
:100BBC00012B10D01FE000224FF480510F4801F0A0
:100BCC005CFD00224FF400710C4801F056FD0C4BFB
:100BDC0001221A600FE001224FF48051074801F006
:100BEC004CFD01224FF40071044801F046FD044B0A
:100BFC0000221A6000BF00BF80BD00BF000801408A
:100C0C007000002080B500AF01224FF480511F48C6
:100C1C0001F033FD01224FF400711C4801F02DFD51
:100C2C0001224FF48061194801F027FD01224FF495
:100C3C000051164801F021FD154B1B68002B02D00A
:100C4C00012B10D01FE000224FF480710F4801F0EF
:100C5C0014FD00224FF400610C4801F00EFD0C4B0A
:100C6C0001221A600FE001224FF48071074801F055
:100C7C0004FD01224FF40061044801F0FEFC044B1A
:100C8C0000221A6000BF00BF80BD00BF00080140F9
:100C9C007400002080B485B000AFF860B9607A6051
:100CAC007A68BB681344FA689A4201D1012300E0C8
:100CBC00002318461437BD4680BC704780B483B0FF
:100CCC0000AF78607B680D4A82FB03129210DB1731
:100CDC00D31A0B4A13607968084B83FB01239A10D3
:100CEC00CB17D21A13469B0013445B00CA1A054B50
:100CFC001A6000BF0C37BD4680BC704767666666DD
:100D0C008C00002090000020B0B500AFC14B1B68D8
:100D1C00042B00F29A8201A252F823F03D0D000838
:100D2C00070E0008130F0008411000084D110008B1
:100D3C00FFF706FEFFF796FB002001F0A5F803462F
:100D4C00012B13D1B34B01221A60B34B1B68B34A6E
:100D5C001360B34B1B68B34A1360B14B1B6864221E
:100D6C0002FB03F31946002001F076F8012001F094
:100D7C008BF80346012B32D1A84B1B68AA4A82FB85
:100D8C0003129210DB17D41AA44B1A68A64B83FBE0
:100D9C0002139910D317C91A0B469B000B445B0026
:100DAC00D11AA04B1B68A04A82FB03029210DB17DE
:100DBC00D51A9C4B1A689C4B83FB02039810D317D3
:100DCC00C01A03469B0003445B00D01A03462A4614
:100DDC002046FFF7F1FC6421012001F03DF81220C0
:100DEC0001F052F80346012B40F03182FFF7FEFC74
:100DFC000A21122001F030F829E20020FFF7FAF95D
:100E0C000346012B12D1894B02221A600020FFF7F6
:100E1C0015FA0121002001F01FF80521012001F035
:100E2C001BF80A21122001F017F819E2FFF7B2FDA6
:100E3C00122001F029F80346012B05D1FFF7D6FC4F
:100E4C000A21122001F008F8012001F01DF80346D8
:100E5C00012B3CD1714B1B68013B704A1360714BE9
:100E6C001B68013B6F4A13606C4B1B686E4A82FB1C
:100E7C0003129210DB17D41A684B1A686A4B83FB67
:100E8C0002139910D317C91A0B469B000B445B0035
:100E9C00D11A644B1B68644A82FB03029210DB1765
:100EAC00D51A604B1A68604B83FB02039810D3175A
:100EBC00C01A03469B0003445B00D01A03462A4623
:100ECC002046FFF779FC6421012000F0C5FF0020CB
:100EDC0000F0DAFF0346012B40F0BB814D4B0222A0
:100EEC001A60534B1B684D4A1360514B1B684D4A9B
:100EFC0013604F4B1B68642202FB03F3194600205E
:100F0C0000F0AAFFA5E10020FFF774F90346012BBE
:100F1C0012D1464B02221A600020FFF78FF90121F3
:100F2C00002000F099FF0521012000F095FF0A2117
:100F3C00122000F091FF93E1FFF756FD122000F014
:100F4C00A3FF0346012B05D1FFF750FC0A21122009
:100F5C0000F082FF012000F097FF0346012B3CD1EB
:100F6C002E4B1B68013B2D4A13602E4B1B68013B1B
:100F7C002C4A1360294B1B682B4A82FB03129210DC
:100F8C00DB17D41A254B1A68274B83FB02139910D5
:100F9C00D317C91A0B469B000B445B00D11A214B8B
:100FAC001B68214A82FB03029210DB17D51A1D4BDA
:100FBC001A681D4B83FB02039810D317C01A034603
:100FCC009B0003445B00D01A03462A462046FFF7D9
:100FDC00F3FB6421012000F03FFF002000F054FFE0
:100FEC000346012B40F037810A4B03221A600C4B4D
:100FFC001B680A4A1360084B1B680A4A1360084BAB
:10100C001B68642202FB03F31946002000F024FF46
:10101C0021E100BF78000020340000208000002077
:10102C003C00002084000020676666667C0000207F
:10103C00380000200020FFF7DDF80346012B12D109
:10104C00884B02221A600020FFF7F8F801210020DB
:10105C0000F002FF0521012000F0FEFE0A21122003
:10106C0000F0FAFEFCE0FFF7E9FC122000F00CFFA8
:10107C000346012B05D1FFF7B9FB0A21122000F022
:10108C00EBFE012000F000FF0346012B3CD1764B18
:10109C001B68013B744A1360744B1B68013B734A19
:1010AC001360714B1B68724A82FB03129210DB17A0
:1010BC00D41A6D4B1A686E4B83FB02139910D3171D
:1010CC00C91A0B469B000B445B00D11A674B1B687B
:1010DC00674A82FB03029210DB17D51A634B1A681E
:1010EC00634B83FB02039810D317C01A03469B0073
:1010FC0003445B00D01A03462A462046FFF75CFBEC
:10110C006421012000F0A8FE002000F0BDFE034683
:10111C00012B40F0A280574B04221A60564B1B68DF
:10112C00514A1360544B1B68504A1360524B1B6856
:10113C00642202FB03F31946002000F08DFE8CE0C4
:10114C000020FFF757F80346012B12D1454B022222
:10115C001A600020FFF772F80121002000F07CFEDD
:10116C000521012000F078FE0A21122000F074FE07
:10117C0076E0FFF78DFC122000F086FE0346012B73
:10118C0005D1FFF733FB0A21122000F065FE012088
:10119C0000F07AFE0346012B3CD1334B1B68013B1C
:1011AC00314A1360314B1B68013B304A13602E4BA4
:1011BC001B682F4A82FB03129210DB17D41A2A4B9E
:1011CC001A682B4B83FB02139910D317C91A0B46C1
:1011DC009B000B445B00D11A244B1B68244A82FBF6
:1011EC0003029210DB17D51A204B1A68204B83FB95
:1011FC0002039810D317C01A03469B0003445B00EC
:10120C00D01A03462A462046FFF7D6FA642101205D
:10121C0000F022FE002000F037FE0346012B1ED109
:10122C00144B01221A60154B1B680F4A1360144BA8
:10123C001B680E4A1360124B1B68642202FB03F3FB
:10124C001946002000F008FE09E000BF08E000BFCE
:10125C0006E000BF04E000BF02E000BF00E000BFFA
:10126C0000BFB0BD7C000020800000208400002066
:10127C006766666678000020380000203400002085
:10128C003C00002080B500AF002000F0FDFD0346BF
:10129C00012B05D1FFF726FC3221002000F0DCFDEC
:1012AC00012000F0F1FD0346002B0BD10C4B1A680A
:1012BC000C4B1B6802210020FFF77EFA0A2101204B
:1012CC0000F0CAFD122000F0DFFD0346012B05D112
:1012DC00FFF78CFA1921122000F0BEFD00BF80BD73
:1012EC008C0000209000002080B500AF002000F0A2
:1012FC00CBFD0346012B05D1FFF73CFC322100202E
:10130C0000F0AAFD012000F0BFFD0346002B0BD11D
:10131C000C4B1A680C4B1B6803210020FFF74CFA8E
:10132C000A21012000F098FD122000F0ADFD0346CB
:10133C00012B05D1FFF75AFA1921122000F08CFD70
:10134C0000BF80BD8C0000209000002080B500AF55
:10135C00002000F099FD0346012B05D1FFF752FC4C
:10136C003221002000F078FD012000F08DFD0346B5
:10137C00002B0BD10C4B1A680C4B1B680421002062
:10138C00FFF71AFA0A21012000F066FD122000F086
:10139C007BFD0346012B05D1FFF728FA19211220FA
:1013AC0000F05AFD00BF80BD8C0000209000002092
:1013BC0080B500AF132000F067FD0346012B07D169
:1013CC003221132000F048FD2021A74801F06DF9CF
:1013DC00A64B1B68042B00F28B8101A252F823F060
:1013EC000114000865140008D914000883150008BE
:1013FC002B1600080023002200210020FFF7DCF947
:10140C00122000F041FD0346012B05D1FFF7EEF948
:10141C001921122000F020FD0020FEF7EBFE034600
:10142C00002B03D08021924801F03FF90020FEF7F9
:10143C00E1FE0346002B00F05D818C4B01221A600B
:10144C000020FEF7FBFE0121002000F005FD052128
:10145C00012000F001FD56E1864B1B68854A51685E
:10146C00844A92681846FFF715FC0346002B0BD0F4
:10147C00804B1B68804A13607E4B5B687F4A13600D
:10148C007C4B9B687E4A1360FFF73EFC0020FEF706
:10149C00B1FE0346012B40F02F81744B02221A60DF
:1014AC000020FEF7CBFE0120FEF7C8FE0220FEF75F
:1014BC00C5FE0121002000F0CFFC0521012000F029
:1014CC00CBFC1921122000F0C7FC1CE1FFF7DAFE5F
:1014DC000020FEF78FFE0346012B1BD1634B03222A
:1014EC001A600020FEF7AAFE0121002000F0B4FCD7
:1014FC000521012000F0B0FC1921122000F0ACFCF9
:10150C00604B00221A60604B00221A605F4B002275
:10151C001A60F8E00120FEF76DFE0346012B1BD18B
:10152C005A4B1B680133594A1360584B1B68632B89
:10153C0002DD564B00221A60544B1B681846FFF70D
:10154C00BDFB504B1A68504B1B6802210020FFF763
:10155C0033F90120FEF772FE0220FEF74BFE034624
:10156C00012B40F0CB80494B1B68424A1360022090
:10157C00FEF764FEC2E0FFF7B7FE0020FEF73AFE6E
:10158C000346012B1BD1394B04221A600020FEF7B5
:10159C0055FE0121002000F05FFC0521012000F028
:1015AC005BFC0A21122000F057FC364B00221A601B
:1015BC00354B00221A60354B00221A60A3E0012043
:1015CC00FEF718FE0346012B1BD1304B1B68013371
:1015DC002E4A13602D4B1B68632B02DD2B4B002214
:1015EC001A602A4B1B681846FFF768FB254B1A68D4
:1015FC00254B1B6803210020FFF7DEF80120FEF7C6
:10160C001DFE0220FEF7F6FD0346012B78D11F4B81
:10161C001B68184A53600220FEF710FE70E0FFF7BB
:10162C0095FE0020FEF7E6FD0346012B30D10F4B53
:10163C0001221A600020FEF701FE0121002000F0BB
:10164C000BFC0521012000F007FC0A21122000F000
:10165C0003FC0C4B00221A600B4B00221A600B4B44
:10166C0000221A604FE000BF000801407C000020FF
:10167C00000C01402800002034000020380000201D
:10168C003C0000208C0000209000002088000020EE
:10169C000120FEF7AFFD0346012B1BD11B4B1B6832
:1016AC0001331A4A1360194B1B68632B02DD174B6D
:1016BC0000221A60154B1B681846FFF7FFFA144BF3
:1016CC001A68144B1B6804210020FFF775F80120E1
:1016DC00FEF7B4FD0220FEF78DFD0346012B11D160
:1016EC000A4B1B680C4A93600220FEF7A7FD09E029
:1016FC0000BF08E000BF06E000BF04E000BF02E04E
:10170C0000BF00E000BF00BF80BD00BF880000200C
:10171C008C000020900000202800002080B500AF35
:10172C000121132000F098FB00BF80BD80B500AFF5
:10173C000A21122000F090FB00BF80BD80B500AFE5
:10174C0000F09AFC00F06EF9FEF7FAFC00F030F8AD
:10175C0000F0B6F800F068F80F4801F0EBFB01223E
:10176C0000210E4800F0C8F9012201210C4800F0BC
:10177C00C3F9022202210B4800F0BEF9002200211D
:10178C00094800F0B9F900220021084800F0B4F92A
:10179C0000F008FBFCE700BF0C010020BD1E000898
:1017AC0075020008BD130008291700083917000836
:1017BC0080B590B000AF07F118032822002118461D
:1017CC0001F068FF3B1D00221A605A609A60DA60D3
:1017DC001A610223BB610123BB621023FB6200234D
:1017EC007B6307F11803184600F078FF0346002BC3
:1017FC0001D000F0D1F80F237B600023BB600023E5
:10180C00FB6000233B6100237B613B1D00211846DC
:10181C0001F0E4F90346002B01D000F0BDF800BF45
:10182C004037BD4680BD000080B586B000AF07F1E3
:10183C00080300221A605A609A60DA603B46002264
:10184C001A605A601D4B4FF080421A601B4B41F6D8
:10185C003F725A60194B00229A60184B0922DA60C9
:10186C00164B00221A61154B00229A61134801F0A5
:10187C0011FB0346002B01D000F08EF84FF480537F
:10188C00BB6007F1080319460C4801F08FFC0346B6
:10189C00002B01D000F080F800233B6000237B601C
:1018AC003B461946054801F067FE0346002B01D064
:1018BC0000F072F800BF1837BD4680BD0C01002047
:1018CC0080B586B000AF07F1080300221A605A6099
:1018DC009A60DA60284B9B69274A43F004039361B2
:1018EC00254B9B6903F004037B607B68224B9B694F
:1018FC00214A43F0080393611F4B9B6903F00803D3
:10190C003B603B68002243F6F8711C4800F0B5FEC2
:10191C000022FF211A4800F0B0FE43F6F873BB60BA
:10192C000123FB6000233B6102237B6107F1080369
:10193C001946124800F010FDFF23BB600123FB6029
:10194C0000233B6102237B6107F1080319460C4815
:10195C0000F002FD4FF46043BB600023FB600123E9
:10196C003B6107F108031946054800F0F5FC00BF80
:10197C001837BD4680BD00BF001002400008014072
:10198C00000C014080B582B000AF786000F094F894
:10199C0000BF0837BD4680BD80B400AF72B600BF33
:1019AC00FEE7B0B485B000AF78600123FB7318E09C
:1019BC00FA7B13469B0013449B001A467B689918CC
:1019CC00FA7B13469B0013449B00143B7A68134428
:1019DC001C460D460FCD0FC42B682360FB7B0133D7
:1019EC00FB73FB7B092BE3D900BF1437BD46B0BC9E
:1019FC007047000080B400AF094B1B680133084AE4
:101A0C001360074B1B68002B04D1054B1B6801337B
:101A1C00034A1360024B1B681846BD4680BC7047D6
:101A2C009800002080B483B000AF0023FB7133E03A
:101A3C00FA791F4913469B0013449B000B44002268
:101A4C001A60FA791A4913469B0013449B000B4405
:101A5C00043300221A60FA79154913469B0013448B
:101A6C009B000B44083300221A60FA791049134684
:101A7C009B0013449B000B440C3300221A70FA7920
:101A8C000B4913469B0013449B000B4410330A2252
:101A9C001A60FB790133FB71FB79092BC8D9054B13
:101AAC0000221A6000BF0C37BD4680BC704700BFD7
:101ABC00540100209400002080B400AF0D4B1B6833
:101ACC00002B13D00B4B1B7B002B0FD1094B5B68EE
:101ADC00002B04D0074B5B68013B064A5360054B57
:101AEC005B68002B02D1034B01221A7300BFBD4669
:101AFC0080BC70475401002090B589B000AFF860ED
:101B0C00B9607A600023FB770023BB6100233B6143
:101B1C000023FB7733E1FA7FA14913469B00134462
:101B2C009B000B4404331B68BA691344BB61BA694C
:101B3C00BB689A4240F2C180FA7F994913469B00D8
:101B4C0013449B000B4404331A68BB69D31ABA685C
:101B5C0013443B61FA7FB969BB68C91A90481346B4
:101B6C009B0013449B000344043319600923FB7549
:101B7C004CE0FB7D591EFA7D89480B469B000B44BB
:101B8C009B0003441968864813469B0013449B0032
:101B9C0003441960FB7D591EFA7D81480B469B005E
:101BAC000B449B000344083319687D4813469B0083
:101BBC0013449B00034408331960FB7D591EFA7DC6
:101BCC0077480B469B000B449B0003440433196875
:101BDC00734813469B0013449B0003440433196061
:101BEC00FB7D591EFA7D6E480B469B000B449B00F7
:101BFC000344103319686A4813469B0013449B0036
:101C0C00034410331960FB7D013BFB75FA7DFB7FB0
:101C1C009A42AED8FA7F624913469B0013449B004C
:101C2C000B44FA681A60FA7F5D4913469B00134413
:101C3C009B000B4404333A691A60FA7F58491346E7
:101C4C009B0013449B000B4408337A681A60FA7F9C
:101C5C00534913469B0013449B000B4404331B68ED
:101C6C00002B0AD1FA7F4E4913469B0013449B006C
:101C7C000B440C3301221A7009E0FA7F48491346D1
:101C8C009B0013449B000B440C3300221A70FC7F06
:101C9C00FFF7B0FE0246424923469B0023449B00BB
:101CAC000B4410331A60FA7F3D4913469B001344D2
:101CBC009B000B4410331B686EE0FA7F38491346C7
:101CCC009B0013449B000B441B68002B54D1FA7FE0
:101CDC00334913469B0013449B000B44FA681A606B
:101CEC00FA7FB968BB69C91A2D4813469B00134487
:101CFC009B00034404331960FA7F294913469B0067
:101D0C0013449B000B4408337A681A60FA7F244909
:101D1C0013469B0013449B000B4404331B68002B9D
:101D2C000AD1FA7F1E4913469B0013449B000B44B7
:101D3C000C3301221A7009E0FA7F194913469B00F3
:101D4C0013449B000B440C3300221A70FC7FFFF7EA
:101D5C0051FE0246124923469B0023449B000B4430
:101D6C0010331A60FA7F0E4913469B0013449B00F4
:101D7C000B4410331B680FE0FB7F0133FB77FB7FB9
:101D8C00092B7FF6C8AEFA7F054913469B00134416
:101D9C009B000B4410331B6818462437BD4690BD7E
:101DAC0054010020B0B586B000AF114B1B7B002B4B
:101DBC0019D00F4B1B6898470D4B00221A730C4B14
:101DCC003C1D1D460FCD0FC42B6823607B69184644
:101DDC0000F010F8FB68002B05D07B68F968FA68F6
:101DEC001846FFF789FE00BF1837BD46B0BD00BFCF
:101DFC005401002080B584B000AF786014497A6833
:101E0C0013469B0013449B000B441B68002B05D10D
:101E1C00104B02221A600123FB7301E00023FB73B9
:101E2C000B48FFF7BEFD0A4B0022C3F8B420084B49
:101E3C000022C3F8B820064B0022C3F8BC20044B88
:101E4C00002283F8C020FB7B18461037BD4680BDAE
:101E5C00540100209400002080B483B000AF78605F
:101E6C00396007497B683A6841F82320054A7B684A
:101E7C00002142F8231000BF0C37BD4680BC7047D0
:101E8C001C0200206C02002080B483B000AF78608C
:101E9C00064A7B6852F82330012B01D1012300E064
:101EAC00002318460C37BD4680BC70476C020020DE
:101EBC0080B483B000AF00237B601CE0124A7B68C7
:101ECC0052F82330002B13DD0F4A7B6852F8233075
:101EDC005A1E0D497B6841F823200B4A7B6852F847
:101EEC002330002B04DC094A7B68012142F82310C3
:101EFC007B6801337B607B68132BDFDD00BF00BF89
:101F0C000C37BD4680BC70471C0200206C020020C0
:101F1C0080B485B000AF154B9B69144A43F00103A4
:101F2C009361124B9B6903F00103BB60BB680F4BC1
:101F3C00DB690E4A43F08053D3610C4BDB6903F031
:101F4C0080537B607B680A4B5B68FB60FB6823F00B
:101F5C00E063FB60FB6843F08063FB60044AFB6852
:101F6C00536000BF1437BD4680BC70470010024060
:101F7C000000014080B584B000AF78607B681B68BE
:101F8C00B3F1804F13D10C4BDB690B4A43F00103C7
:101F9C00D361094BDB6903F00103FB60FB68002292
:101FAC0000211C2000F0A1F91C2000F0BAF900BFA0
:101FBC001037BD4680BD00BF0010024080B400AF9A
:101FCC00FEE780B400AFFEE780B400AFFEE780B45C
:101FDC0000AFFEE780B400AFFEE780B400AF00BFF7
:101FEC00BD4680BC704780B400AF00BFBD4680BC0E
:101FFC00704780B400AF00BFBD4680BC704780B551
:10200C0000AF00F07FF800BF80BD000080B500AFCE
:10201C00024800F0DBFF00BF80BD00BF0C010020B8
:10202C0080B400AF00BFBD4680BC7047FFF7F8FF1F
:10203C000B480C490C4A002302E0D458C45004331A
:10204C00C4188C42F9D3094A094C002301E01360EF
:10205C000432A242FBD301F0F9FAFFF76FFB704791
:10206C00000000204C000020F43600084C0000203A
:10207C00C0020020FEE7000080B500AF084B1B68D3
:10208C00074A43F010031360032000F023F90F20DC
:10209C0000F008F8FFF73CFF0023184680BD00BF96
:1020AC000020024080B582B000AF7860124B1A68F5
:1020BC00124B1B7819464FF47A73B3FBF1F3B2FB56
:1020CC00F3F3184600F03BF90346002B01D0012333
:1020DC000EE07B680F2B0AD8002279684FF0FF3096
:1020EC0000F003F9064A7B681360002300E001232B
:1020FC0018460837BD4680BD40000020480000202F
:10210C004400002080B400AF054B1B781A46054BE9
:10211C001B681344034A136000BFBD4680BC704764
:10212C0048000020BC02002080B400AF024B1B68AA
:10213C001846BD4680BC7047BC02002080B485B0F8
:10214C0000AF78607B6803F00703FB600C4BDB6827
:10215C00BB60BA684FF6FF031340BB60FB681A0202
:10216C00BB68134343F0BF6343F40033BB60044AC2
:10217C00BB68D36000BF1437BD4680BC704700BF3E
:10218C0000ED00E080B400AF044BDB681B0A03F0E9
:10219C0007031846BD4680BC704700BF00ED00E049
:1021AC0080B483B000AF0346FB7197F90730002B66
:1021BC000BDBFB7903F01F02064997F907305B092B
:1021CC00012000FA02F241F8232000BF0C37BD4673
:1021DC0080BC704700E100E080B483B000AF0346E0
:1021EC003960FB7197F90730002B0ADB3B68DAB2D8
:1021FC000C4997F907301201D2B20B4483F8002333
:10220C000AE03B68DAB20849FB7903F00F03043BA0
:10221C001201D2B20B441A7600BF0C37BD4680BCFB
:10222C00704700BF00E100E000ED00E080B489B031
:10223C0000AFF860B9607A60FB6803F00703FB61DC
:10224C00FB69C3F10703042B28BF0423BB61FB69A3
:10225C000433062B02D9FB69033B00E000237B61AE
:10226C004FF0FF32BB6902FA03F3DA43BB681A4042
:10227C007B699A404FF0FF317B6901FA03F3D94334
:10228C007B680B40134318462437BD4680BC70470F
:10229C0080B582B000AF78607B68013BB3F1807F82
:1022AC0001D301230FE00A4A7B68013B53600F21E5
:1022BC004FF0FF30FFF790FF054B00229A60044B64
:1022CC0007221A60002318460837BD4680BD00BFA0
:1022DC0010E000E080B582B000AF78607868FFF75E
:1022EC002DFF00BF0837BD4680BD80B586B000AF5E
:1022FC000346B9607A60FB7300237B61FFF742FFF2
:10230C0078617A68B9687869FFF790FF024697F9A7
:10231C000F3011461846FFF75FFF00BF1837BD4658
:10232C0080BD80B582B000AF0346FB7197F90730D2
:10233C001846FFF735FF00BF0837BD4680BD80B596
:10234C0082B000AF78607868FFF7A2FF03461846AA
:10235C000837BD4680BD000080B48BB000AF7860FC
:10236C00396000237B6200233B6248E101227B6AD7
:10237C0002FA03F3FB613B681B68FA691340BB610B
:10238C00BA69FB699A4240F037813B685B68A34AA3
:10239C0093425ED0A14A934275D8A14A934258D039
:1023AC009F4A93426FD89F4A934252D09D4A934280
:1023BC0069D89D4A93424CD09B4A934263D89B4A1E
:1023CC00934246D0994A93425DD8122B2AD8122BAD
:1023DC0059D801A252F823F05F24000839240008D0
:1023EC004B2400088D240008932400089324000833
:1023FC0093240008932400089324000893240008D5
:10240C0093240008932400089324000893240008C4
:10241C009324000893240008932400084124000806
:10242C0055240008824A934213D02CE03B68DB68A9
:10243C003B6229E03B68DB6804333B6224E03B6889
:10244C00DB6808333B621FE03B68DB680C333B62A4
:10245C001AE03B689B68002B02D104233B6213E01B
:10246C003B689B68012B05D108233B627B68FA69AA
:10247C001A6109E008233B627B68FA695A6103E040
:10248C0000233B6200E000BFBB69FF2B01D87B68D7
:10249C0001E07B6804337B61BB69FF2B02D87B6A4C
:1024AC009B0002E07B6A083B9B003B617B691A68DE
:1024BC000F213B6901FA03F3DB431A40396A3B698C
:1024CC0001FA03F31A437B691A603B685B6803F0FB
:1024DC008053002B00F09080564B9B69554A43F07B
:1024EC0001039361534B9B6903F00103BB60BB6811
:1024FC00514A7B6A9B08023352F82330FB607B6A9B
:10250C0003F003039B000F2202FA03F3DB43FA6888
:10251C001340FB607B68494A93420DD07B68484A64
:10252C00934207D07B68474A934201D1022304E0CF
:10253C00032302E0012300E000237A6A02F0030285
:10254C0092009340FA681343FB603B497B6A9B08FB
:10255C000233FA6841F823203B685B6803F480136C
:10256C00002B06D0384B9A683749BB6913438B60F4
:10257C0006E0354B9A68BB69DB43334913408B60EB
:10258C003B685B6803F40013002B06D02E4BDA6813
:10259C002D49BB691343CB6006E02B4BDA68BB6952
:1025AC00DB4329491340CB603B685B6803F4003381
:1025BC00002B06D0244B5A682349BB6913434B604C
:1025CC0006E0214B5A68BB69DB431F4913404B6043
:1025DC003B685B6803F48033002B06D01A4B1A68F7
:1025EC001949BB6913430B6006E0174B1A68BB69AA
:1025FC00DB43154913400B607B6A01337B623B68FC
:10260C001A687B6A22FA03F3002B7FF4AFAE00BF8B
:10261C0000BF2C37BD4680BC704700BF0000321095
:10262C0000003110000022100000211000001210D8
:10263C000000111000100240000001400008014091
:10264C00000C0140001001400004014080B485B032
:10265C0000AF78600B467B807B689A687B88134060
:10266C00002B02D00123FB7301E00023FB73FB7BE7
:10267C0018461437BD4680BC704780B483B000AF99
:10268C0078600B467B8013467B707B78002B03D0E5
:10269C007A887B681A6103E07B881A047B681A616C
:1026AC0000BF0C37BD4680BC704780B485B000AF0E
:1026BC0078600B467B807B68DB68FB607A88FB6804
:1026CC0013401A04FB68D9437B880B401A437B6880
:1026DC001A6100BF1437BD4680BC704780B586B008
:1026EC0000AF78607B68002B01D101236CE27B6822
:1026FC001B6803F00103002B00F08780924B5B6892
:10270C0003F00C03042B0CD08F4B5B6803F00C0311
:10271C00082B12D18C4B5B6803F48033B3F5803FEC
:10272C000BD1894B1B6803F40033002B6CD07B68F6
:10273C005B68002B68D1012346E27B685B68B3F5CC
:10274C00803F06D1804B1B687F4A43F48033136073
:10275C002EE07B685B68002B0CD17B4B1B687A4AA4
:10276C0023F480331360784B1B68774A23F480235F
:10277C0013601DE07B685B68B3F5A02F0CD1724B26
:10278C001B68714A43F4802313606F4B1B686E4ABD
:10279C0043F4803313600BE06B4B1B686A4A23F4E1
:1027AC0080331360684B1B68674A23F480231360E3
:1027BC007B685B68002B13D0FFF7B6FC386108E030
:1027CC00FFF7B2FC02463B69D31A642B01D90323F1
:1027DC00FAE15D4B1B6803F40033002BF0D014E0DE
:1027EC00FFF7A2FC386108E0FFF79EFC02463B694C
:1027FC00D31A642B01D90323E6E1534B1B6803F472
:10280C000033002BF0D100E000BF7B681B6803F0A5
:10281C000203002B63D04C4B5B6803F00C03002BC2
:10282C000BD0494B5B6803F00C03082B1CD1464BB7
:10283C005B6803F48033002B16D1434B1B6803F009
:10284C000203002B05D07B681B69012B01D00123EF
:10285C00BAE13D4B1B6823F0F8027B685B69DB0037
:10286C00394913430B603AE07B681B69002B20D07D
:10287C00364B01221A60FFF757FC386108E0FFF76E
:10288C0053FC02463B69D31A022B01D903239BE16B
:10289C002D4B1B6803F00203002BF0D02A4B1B6856
:1028AC0023F0F8027B685B69DB00274913430B605C
:1028BC0015E0264B00221A60FFF736FC386108E061
:1028CC00FFF732FC02463B69D31A022B01D90323D2
:1028DC007AE11D4B1B6803F00203002BF0D17B68DF
:1028EC001B6803F00803002B3AD07B689B69002B14
:1028FC0019D0174B01221A60FFF716FC386108E05B
:10290C00FFF712FC02463B69D31A022B01D90323B1
:10291C005AE10D4B5B6A03F00203002BF0D001204F
:10292C0000F09AFA1CE00A4B00221A60FFF7FCFB3D
:10293C0038610FE0FFF7F8FB02463B69D31A022B14
:10294C0008D9032340E100BF0010024000004242BE
:10295C00800442429E4B5B6A03F00203002BE9D1D8
:10296C007B681B6803F00403002B00F0A680002397
:10297C00FB75974BDB6903F08053002B0DD1944B07
:10298C00DB69934A43F08053D361914BDB6903F0CD
:10299C008053BB60BB680123FB758E4B1B6803F433
:1029AC008073002B18D18B4B1B688A4A43F48073BD
:1029BC001360FFF7B9FB386108E0FFF7B5FB02467F
:1029CC003B69D31A642B01D90323FDE0814B1B68AF
:1029DC0003F48073002BF0D07B68DB68012B06D1ED
:1029EC007B4B1B6A7A4A43F0010313622DE07B6830
:1029FC00DB68002B0CD1764B1B6A754A23F0010364
:102A0C001362734B1B6A724A23F0040313621CE0BB
:102A1C007B68DB68052B0CD16D4B1B6A6C4A43F051
:102A2C00040313626A4B1B6A694A43F00103136285
:102A3C000BE0674B1B6A664A23F001031362644B7D
:102A4C001B6A634A23F0040313627B68DB68002B68
:102A5C0015D0FFF769FB38610AE0FFF765FB02460A
:102A6C003B69D31A41F28832934201D90323ABE07C
:102A7C00574B1B6A03F00203002BEED014E0FFF758
:102A8C0053FB38610AE0FFF74FFB02463B69D31A50
:102A9C0041F28832934201D9032395E04C4B1B6AD7
:102AAC0003F00203002BEED1FB7D012B05D1484B2B
:102ABC00DB69474A23F08053D3617B68DB69002BC9
:102ACC0000F08180424B5B6803F00C03082B61D053
:102ADC007B68DB69022B46D13F4B00221A60FFF763
:102AEC0023FB386108E0FFF71FFB02463B69D31A52
:102AFC00022B01D9032367E0354B1B6803F00073ED
:102B0C00002BF0D17B681B6AB3F5803F08D1304BAA
:102B1C005B6823F400327B689B682D4913434B6040
:102B2C002B4B5B6823F474127B68196A7B685B6AB5
:102B3C000B43274913434B60274B01221A60FFF7C5
:102B4C00F3FA386108E0FFF7EFFA02463B69D31A53
:102B5C00022B01D9032337E01D4B1B6803F00073D4
:102B6C00002BF0D02FE01C4B00221A60FFF7DCFA90
:102B7C00386108E0FFF7D8FA02463B69D31A022BFA
:102B8C0001D9032320E0124B1B6803F00073002BC8
:102B9C00F0D118E07B68DB69012B01D1012313E034
:102BAC000B4B5B68FB60FB6803F480327B681B6A31
:102BBC009A4206D1FB6803F470127B685B6A9A42F6
:102BCC0001D0012300E0002318461837BD4680BD14
:102BDC0000100240007000406000424280B584B09A
:102BEC0000AF786039607B68002B01D10123D0E005
:102BFC006A4B1B6803F007033A689A4210D9674B7B
:102C0C001B6823F0070265493B6813430B60634B59
:102C1C001B6803F007033A689A4201D00123B8E01D
:102C2C007B681B6803F00203002B20D07B681B68B9
:102C3C0003F00403002B05D0594B5B68584A43F44E
:102C4C00E06353607B681B6803F00803002B05D01E
:102C5C00534B5B68524A43F460535360504B5B6870
:102C6C0023F0F0027B689B684D4913434B607B68F3
:102C7C001B6803F00103002B40D07B685B68012BC1
:102C8C0007D1474B1B6803F40033002B15D10123EC
:102C9C007FE07B685B68022B07D1414B1B6803F01C
:102CAC000073002B09D1012373E03D4B1B6803F02B
:102CBC000203002B01D101236BE0394B5B6823F03D
:102CCC0003027B685B68364913434B60FFF72CFAB1
:102CDC00F8600AE0FFF728FA0246FB68D31A41F2C3
:102CEC008832934201D9032353E02D4B5B6803F0E8
:102CFC000C027B685B689B009A42EBD1274B1B68EC
:102D0C0003F007033A689A4210D2244B1B6823F055
:102D1C00070222493B6813430B60204B1B6803F0EE
:102D2C0007033A689A4201D0012332E07B681B68A2
:102D3C0003F00403002B08D0194B5B6823F4E0620A
:102D4C007B68DB68164913434B607B681B6803F098
:102D5C000803002B09D0124B5B6823F460527B688C
:102D6C001B69DB000E4913434B6000F021F802464F
:102D7C000B4B5B681B0903F00F030A49CB5C22FA6F
:102D8C0003F3094A1360094B1B681846FFF78AF9CD
:102D9C00002318461037BD4680BD00BF00200240FE
:102DAC0000100240C83600084000002044000020FB
:102DBC0080B487B000AF0023FB600023BB6000230E
:102DCC007B6100237B6000233B611E4B5B68FB60D7
:102DDC00FB6803F00C03042B02D0082B03D027E074
:102DEC00194B3B6127E0FB689B0C03F00F03174A60
:102DFC00D35C7B60FB6803F48033002B10D0114B49
:102E0C005B685B0C03F00103114AD35CBB607B680D
:102E1C000D4A02FB03F2BB68B2FBF3F37B6104E0E7
:102E2C007B680C4A02FB03F37B617B693B6102E02C
:102E3C00054B3B6100BF3B6918461C37BD4680BC47
:102E4C00704700BF0010024000127A00D83600080C
:102E5C00E836000800093D0080B485B000AF78600A
:102E6C000A4B1B680A4AA2FB03235B0A7A6802FB23
:102E7C0003F3FB6000BFFB685A1EFA60002BF9D10C
:102E8C0000BF00BF1437BD4680BC70474000002017
:102E9C00D34D621080B582B000AF78607B68002B98
:102EAC0001D1012341E07B6893F83D30DBB2002B6C
:102EBC0006D17B68002283F83C207868FFF75AF82B
:102ECC007B68022283F83D207B681A687B68043398
:102EDC001946104600F056FA7B68012283F846200A
:102EEC007B68012283F83E207B68012283F83F2017
:102EFC007B68012283F840207B68012283F8412003
:102F0C007B68012283F842207B68012283F84320EE
:102F1C007B68012283F844207B68012283F84520DA
:102F2C007B68012283F83D20002318460837BD46F4
:102F3C0080BD000080B485B000AF78607B6893F8EA
:102F4C003D30DBB2012B01D0012335E07B6802223E
:102F5C0083F83D207B681B68DA687B681B6842F04D
:102F6C000102DA607B681B68164A934209D07B68C1
:102F7C001B68B3F1804F04D07B681B68124A9342E4
:102F8C0011D17B681B689B6803F00703FB60FB682F
:102F9C00062B10D07B681B681A687B681B6842F094
:102FAC0001021A6007E07B681B681A687B681B6863
:102FBC0042F001021A60002318461437BD4680BC4B
:102FCC00704700BF002C01400004004080B584B065
:102FDC0000AF78607B681B68DB68FB607B681B68F4
:102FEC001B69BB60BB6803F00203002B20D0FB689D
:102FFC0003F00203002B1BD07B681B686FF00202EE
:10300C001A617B6801221A777B681B689B6903F045
:10301C000303002B03D0786800F098F905E078687A
:10302C0000F08BF9786800F09AF97B6800221A7727
:10303C00BB6803F00403002B20D0FB6803F00403EF
:10304C00002B1BD07B681B686FF004021A617B6835
:10305C0002221A777B681B689B6903F44073002B70
:10306C0003D0786800F072F905E0786800F065F933
:10307C00786800F074F97B6800221A77BB6803F05B
:10308C000803002B20D0FB6803F00803002B1BD097
:10309C007B681B686FF008021A617B6804221A7740
:1030AC007B681B68DB6903F00303002B03D0786893
:1030BC0000F04CF905E0786800F03FF9786800F012
:1030CC004EF97B6800221A77BB6803F01003002BC3
:1030DC0020D0FB6803F01003002B1BD07B681B680F
:1030EC006FF010021A617B6808221A777B681B68E4
:1030FC00DB6903F44073002B03D0786800F026F9E9
:10310C0005E0786800F019F9786800F028F97B6818
:10311C0000221A77BB6803F00103002B0CD0FB686C
:10312C0003F00103002B07D07B681B686FF00102D2
:10313C001A617868FEF726FCBB6803F08003002B4D
:10314C000CD0FB6803F08003002B07D07B681B6856
:10315C006FF080021A61786800F06FFABB6803F0B8
:10316C004003002B0CD0FB6803F04003002B07D06E
:10317C007B681B686FF040021A61786800F0F8F801
:10318C00BB6803F02003002B0CD0FB6803F020037A
:10319C00002B07D07B681B686FF020021A617868DF
:1031AC0000F042FA00BF1037BD4680BD80B584B038
:1031BC0000AF786039600023FB737B6893F83C3078
:1031CC00012B01D10223B4E07B68012283F83C205F
:1031DC007B68022283F83D207B681B689B68BB6080
:1031EC00BB6823F07703BB60BB6823F47F43BB60F1
:1031FC007B681B68BA689A603B681B68B3F5005F14
:10320C003ED0B3F5005F00F28780B3F5805F00F02D
:10321C008680B3F5805F7FD8702B1AD0702B7BD84B
:10322C00602B50D0602B77D8502B3CD0502B73D8C0
:10323C00402B58D0402B6FD8302B64D0302B6BD810
:10324C00202B60D0202B67D8002B5CD0102B5AD0B1
:10325C0062E07B6818683B6899683B685A683B6811
:10326C00DB6800F06AF97B681B689B68BB60BB6815
:10327C0043F07703BB607B681B68BA689A604FE0C9
:10328C007B6818683B6899683B685A683B68DB68E0
:10329C0000F053F97B681B689A687B681B6842F4E2
:1032AC0080429A603CE07B6818683B6859683B68D0
:1032BC00DB681A4600F0CAF87B681B685021184678
:1032CC0000F021F92CE07B6818683B6859683B6872
:1032DC00DB681A4600F0E8F87B681B68602118462A
:1032EC0000F011F91CE07B6818683B6859683B6872
:1032FC00DB681A4600F0AAF87B681B684021184668
:10330C0000F001F90CE07B681A683B681B681946F1
:10331C00104600F0F8F803E00123FB7300E000BF57
:10332C007B68012283F83D207B68002283F83C20D7
:10333C00FB7B18461037BD4680BD80B483B000AF10
:10334C00786000BF0C37BD4680BC704780B483B03A
:10335C0000AF786000BF0C37BD4680BC704780B4AE
:10336C0083B000AF786000BF0C37BD4680BC70479F
:10337C0080B483B000AF786000BF0C37BD4680BC12
:10338C007047000080B485B000AF786039607B680E
:10339C001B68FB607B682B4A934207D07B68B3F1B8
:1033AC00804F03D07B68284A934208D1FB6823F0F6
:1033BC007003FB603B685B68FA681343FB607B68D7
:1033CC00204A934207D07B68B3F1804F03D07B68CF
:1033DC001D4A934208D1FB6823F44073FB603B68A1
:1033EC00DB68FA681343FB60FB6823F080023B68E0
:1033FC005B691343FB607B68FA681A603B689A68E8
:10340C007B68DA623B681A687B689A627B680D4A53
:10341C00934203D13B681A697B681A637B6801226B
:10342C005A617B681B6903F00103002B05D07B6894
:10343C001B6923F001027B681A6100BF1437BD467B
:10344C0080BC7047002C01400004004080B487B061
:10345C0000AFF860B9607A60FB681B6A7B61FB683F
:10346C001B6A23F00102FB681A62FB689B693B61D3
:10347C003B6923F0F0033B617B681B013A69134302
:10348C003B617B6923F00A037B617A69BB68134358
:10349C007B61FB683A699A61FB687A691A6200BFC2
:1034AC001C37BD4680BC704780B487B000AFF86055
:1034BC00B9607A60FB681B6A7B61FB681B6A23F04E
:1034CC001002FB681A62FB689B693B613B6923F441
:1034DC0070433B617B681B033A6913433B617B6917
:1034EC0023F0A0037B61BB681B017A6913437B61EA
:1034FC00FB683A699A61FB687A691A6200BF1C37EB
:10350C00BD4680BC704780B485B000AF7860396030
:10351C007B689B68FB60FB6823F07003FB603A6878
:10352C00FB68134343F00703FB607B68FA689A60FF
:10353C0000BF1437BD4680BC704780B487B000AF65
:10354C00F860B9607A603B60FB689B687B617B6963
:10355C0023F47F437B613B681A027B681A43BB6888
:10356C0013437A6913437B61FB687A699A6000BFE5
:10357C001C37BD4680BC704780B485B000AF786006
:10358C0039607B6893F83C30012B01D1022341E078
:10359C007B68012283F83C207B68022283F83D2063
:1035AC007B681B685B68FB607B681B689B68BB6007
:1035BC00FB6823F07003FB603B681B68FA681343DD
:1035CC00FB607B681B68FA685A607B681B68144A4E
:1035DC00934209D07B681B68B3F1804F04D07B68A1
:1035EC001B68104A93420CD1BB6823F08003BB606C
:1035FC003B685B68BA681343BB607B681B68BA683E
:10360C009A607B68012283F83D207B68002283F856
:10361C003C20002318461437BD4680BC704700BFC1
:10362C00002C01400004004080B483B000AF7860EF
:10363C0000BF0C37BD4680BC704780B483B000AF70
:10364C00786000BF0C37BD4680BC704770B5002653
:10365C000C4D0D4C641BA410A64209D100F022F8AD
:10366C0000260A4D0A4C641BA410A64205D170BD5D
:10367C0055F8043B98470136EEE755F8043B98475C
:10368C000136F2E7EC360008EC360008EC360008A0
:10369C00F036000803460244934200D1704703F809
:1036AC00011BF9E7F8B500BFF8BC08BC9E46704793
:0C36BC00F8B500BFF8BC08BC9E46704783
:1036C80000000000000000000102030406070809CA
:1036D80002030405060708090A0B0C0D0E0F10104B
:0436E80001020000DB
:0436EC0031010008A0
:0436F0000D010008C0
:1036F400000C0140000C0140000C014000000000DF
:1037040000200040008000000100000002000000D2
:103714000300000004000000070000000200000095
:103724000500000007000000020000000500000082
:0C37340000127A001000000001000000EC
:040000050800203996
:00000001FF
