:020000040800F2
:1000000000280020F9180008891800088F18000837
:10001000951800089B180008A118000800000000AF
:10002000000000000000000000000000A718000809
:10003000B318000800000000BF180008CB18000823
:100040004119000841190008411900084119000828
:100050004119000841190008411900084119000818
:100060004119000841190008411900084119000808
:1000700041190008411900084119000841190008F8
:1000800041190008411900084119000841190008E8
:1000900041190008411900084119000841190008D8
:1000A00041190008411900084119000841190008C8
:1000B000D918000841190008000000004119000883
:1000C000411900080000000000000000411900086C
:1000D000000000004119000841190008000000005C
:1000E00041190008411900084119000800000000EA
:1000F0000000000000000000000000000000000000
:0C01000000000000000000005FF808F1A3
:10010C0010B5054C237833B9044B13B10448AFF345
:10011C0000800123237010BD40000020000000006F
:10012C00702F000808B5034B1BB103490348AFF30C
:10013C00008008BD0000000044000020702F000863
:10014C0080B483B000AF00237B6048E028497A6814
:10015C001346DB009B1A9B000B4401221A602449B6
:10016C007A681346DB009B1A9B000B440433012274
:10017C001A601F497A681346DB009B1A9B000B44DC
:10018C00083301221A601A497A681346DB009B1A5D
:10019C009B000B440C3301221A6015497A681346F4
:1001AC00DB009B1A9B000B4410334FF4FA721A605D
:1001BC000F497A681346DB009B1A9B000B441433DF
:1001CC0000221A600A497A681346DB009B1A9B00CE
:1001DC000B44183300221A607B6801337B607B6808
:1001EC00032BB3DD00BF00BF0C37BD4680BC70478E
:1001FC008800002080B483B000AF78600E497A6824
:10020C001346DB009B1A9B000B4414331B68012B19
:10021C000BD109497A681346DB009B1A9B000B44EF
:10022C00143300221A60012300E0002318460C3717
:10023C00BD4680BC704700BF8800002080B483B0EE
:10024C0000AF786007497A681346DB009B1A9B0065
:10025C000B44143300221A6000BF0C37BD4680BC1F
:10026C00704700BF8800002080B582B000AF00232B
:10027C007B60E9E079497A681346DB009B1A9B00A6
:10028C000B440433196875487A681346DB009B1AD3
:10029C009B0003440833196070497A681346DB00ED
:1002AC009B1A9B000B4419686C487A681346DB0058
:1002BC009B1A9B00034404331960694A7B6852F80B
:1002CC00232068497B6831F813301946104601F039
:1002DC001DFE0346184661497A681346DB009B1ADB
:1002EC009B000B4418605D497A681346DB009B1A2F
:1002FC009B000B440433196858487A681346DB009A
:10030C009B1A9B0003441B68994240F09A80534906
:10031C007A681346DB009B1A9B000B440433196864
:10032C004E487A681346DB009B1A9B000344083343
:10033C001B68994240F0858048497A681346DB0077
:10034C009B1A9B000B440833196844487A6813467F
:10035C00DB009B1A9B0003440C331B68994232D080
:10036C003E497A681346DB009B1A9B000B4408330A
:10037C0019683A487A681346DB009B1A9B000344C1
:10038C000C33196035497A681346DB009B1A9B00C5
:10039C000B440C331B68002B53D130497A6813463D
:1003AC00DB009B1A9B000B4410334FF4FA721A605B
:1003BC002A497A681346DB009B1A9B000B441433C2
:1003CC0001221A603DE025497A681346DB009B1A2E
:1003DC009B000B4410331B68591E20487A68134647
:1003EC00DB009B1A9B000344103319601B497A688D
:1003FC001346DB009B1A9B000B4410331B68002B2D
:10040C001FD116497A681346DB009B1A9B000B44DC
:10041C0010334FF4FA721A6010497A681346DB00F5
:10042C009B1A9B000B440C331B68002B09D10B4906
:10043C007A681346DB009B1A9B000B441433012291
:10044C001A607B6801337B607B68032B7FF712AFEC
:10045C0000BF00BF0837BD4680BD00BF880000202C
:10046C00000000201000002080B500AF0122082100
:10047C00094801F062FD01221021074801F05DFDE1
:10048C0001224021044801F058FD0122802102483C
:10049C0001F053FD00BF80BD0008014080B582B063
:1004AC0000AF78607B68092B00F2808101A252F8C2
:1004BC0023F000BFE90400083105000879050008A5
:1004CC00C105000809060008510600089906000835
:1004DC00E106000829070008710700080022012125
:1004EC00B54801F02AFD00220221B34801F025FD98
:1004FC0000220421B04801F020FD00220821AE4862
:10050C0001F01BFD00221021AB4801F016FD00226A
:10051C002021A94801F011FD01224021A64801F03B
:10052C000CFD44E101220121A34801F006FD00224B
:10053C000221A14801F001FD002204219E4801F096
:10054C00FCFC012208219C4801F0F7FC012210213F
:10055C00994801F0F2FC01222021974801F0EDFCB2
:10056C0001224021944801F0E8FC20E10022012105
:10057C00914801F0E2FC002202218F4801F0DDFCE1
:10058C00012204218C4801F0D8FC002208218A4861
:10059C0001F0D3FC00221021874801F0CEFC01228F
:1005AC002021854801F0C9FC00224021824801F03D
:1005BC00C4FCFCE0002201217F4801F0BEFC0022BB
:1005CC0002217D4801F0B9FC002204217A4801F097
:1005DC00B4FC00220821784801F0AFFC0122102164
:1005EC00754801F0AAFC01222021734801F0A5FCFA
:1005FC0000224021704801F0A0FCD8E0012201212A
:10060C006D4801F09AFC002202216B4801F095FC28
:10061C0000220421684801F090FC01220821664860
:10062C0001F08BFC01221021634801F086FC0022B2
:10063C002021614801F081FC002240215E4801F03C
:10064C007CFCB4E0002201215B4801F076FC012225
:10065C000221594801F071FC00220421564801F096
:10066C006CFC00220821544801F067FC0122102187
:10067C00514801F062FC002220214F4801F05DFC42
:10068C00002240214C4801F058FC90E0002201214E
:10069C00494801F052FC01220221474801F04DFC6F
:1006AC0000220421444801F048FC00220821424861
:1006BC0001F043FC002210213F4801F03EFC0022D7
:1006CC0020213D4801F039FC002240213A4801F03C
:1006DC0034FC6CE000220121374801F02EFC002292
:1006EC000221354801F029FC00220421324801F096
:1006FC0024FC01220821304801F01FFC01221021AA
:10070C002D4801F01AFC012220212B4801F015FC88
:10071C0001224021284801F010FC48E00022012170
:10072C00254801F00AFC00220221234801F005FCB7
:10073C0000220421204801F000FC002208211E4860
:10074C0001F0FBFB002210211B4801F0F6FB0022FC
:10075C002021194801F0F1FB00224021164801F03C
:10076C00ECFB24E000220121134801F0E6FB0022FF
:10077C000221114801F0E1FB002204210E4801F096
:10078C00DCFB002208210C4801F0D7FB01221021D0
:10079C00094801F0D2FB00222021074801F0CDFBD3
:1007AC0000224021044801F0C8FB00E000BF00BF5C
:1007BC000837BD4680BD00BF000C014080B485B039
:1007CC0000AFF860B9607A603B60084AFB68136060
:1007DC00064ABB685360054A7B689360034A3B68D2
:1007EC00D36000BF1437BD4680BC70471800002092
:1007FC0080B500AF4C4B1B68032B00F2918001A21B
:10080C0052F823F02108000865080008A908000820
:10081C00ED08000800220821444801F08EFB01225B
:10082C001021424801F089FB012240213F4801F090
:10083C0084FB012280213D4801F07FFB3A4B1B6871
:10084C003B4A52F823301846FFF728FE364B1B68FC
:10085C000133354A136064E001220821334801F06A
:10086C006CFB00221021314801F067FB0122402172
:10087C002E4801F062FB012280212C4801F05DFB27
:10088C00294B1B682A4A52F823301846FFF706FEFC
:10089C00254B1B680133244A136042E001220821D6
:1008AC00224801F04AFB01221021204801F045FBAF
:1008BC00002240211D4801F040FB012280211B48F1
:1008CC0001F03BFB184B1B68194A52F823301846B1
:1008DC00FFF7E4FD144B1B680133134A136020E04F
:1008EC0001220821114801F028FB012210210F4898
:1008FC0001F023FB012240210C4801F01EFB0022D9
:10090C0080210A4801F019FB074B1B68084A52F872
:10091C0023301846FFF7C2FD034B00221A6000E09B
:10092C0000BF00BF80BD00BF5C000020000801407C
:10093C001800002080B500AF01224FF480611148EF
:10094C0001F0FBFA01224FF400510E4801F0F5FAC8
:10095C0001224FF480710B4801F0EFFA01224FF4A1
:10096C000061084801F0E9FA01224FF400710548D2
:10097C0001F0E3FA01224FF48051024801F0DDFA54
:10098C0000BF80BD0008014080B500AF01224FF4CC
:10099C000051114801F0D1FA01224FF480710E4838
:1009AC0001F0CBFA01224FF400710B4801F0C5FAAB
:1009BC0001224FF48051084801F0BFFA00224FF495
:1009CC008061054801F0B9FA00224FF40061024839
:1009DC0001F0B3FA00BF80BD0008014080B500AF44
:1009EC0001224FF40051114801F0A7FA01224FF4F3
:1009FC0080710E4801F0A1FA01224FF400610B48FE
:100A0C0001F09BFA01224FF40071084801F095FAAD
:100A1C0000224FF48061054801F08FFA00224FF458
:100A2C008051024801F089FA00BF80BD00080140E6
:100A3C0080B500AF01224FF48061114801F07DFABE
:100A4C0001224FF400610E4801F077FA01224FF4B5
:100A5C0000710B4801F071FA01224FF480510848E3
:100A6C0001F06BFA00224FF48071054801F065FA31
:100A7C0000224FF40051024801F05FFA00BF80BD24
:100A8C000008014080B500AF01224FF4806111488D
:100A9C0001F053FA01224FF480710E4801F04DFA27
:100AAC0001224FF400610B4801F047FA01224FF488
:100ABC008051084801F041FA00224FF400710548BA
:100ACC0001F03BFA00224FF40051024801F035FAD4
:100ADC0000BF80BD0008014080B500AF01224FF47B
:100AEC0080711F4801F029FA01224FF400611C4863
:100AFC0001F023FA01224FF48051194801F01DFA3C
:100B0C0001224FF40071164801F017FA154B1B68BF
:100B1C00002B02D0012B10D01FE000224FF480617B
:100B2C000F4801F00AFA00224FF400510C4801F072
:100B3C0004FA0C4B01221A600FE001224FF4806181
:100B4C00074801F0FAF901224FF40051044801F072
:100B5C00F4F9044B00221A6000BF00BF80BD00BF37
:100B6C00000801406000002080B500AF01224FF466
:100B7C0080711F4801F0E1F901224FF400611C481B
:100B8C0001F0DBF901224FF48061194801F0D5F92D
:100B9C0001224FF40051164801F0CFF9154B1B6898
:100BAC00002B02D0012B10D01FE000224FF48051FB
:100BBC000F4801F0C2F900224FF400710C4801F00B
:100BCC00BCF90C4B01221A600FE001224FF480514A
:100BDC00074801F0B2F901224FF40071044801F00A
:100BEC00ACF9044B00221A6000BF00BF80BD00BFEF
:100BFC00000801406400002080B500AF01224FF4D2
:100C0C0080511F4801F099F901224FF400711C48E2
:100C1C0001F093F901224FF48061194801F08DF92C
:100C2C0001224FF40051164801F087F9154B1B684F
:100C3C00002B02D0012B10D01FE000224FF480714A
:100C4C000F4801F07AF900224FF400610C4801F0D2
:100C5C0074F90C4B01221A600FE001224FF48071E1
:100C6C00074801F06AF901224FF40061044801F0D1
:100C7C0064F9044B00221A6000BF00BF80BD00BFA6
:100C8C00000801406800002080B483B000AF786099
:100C9C007B680D4A82FB03129210DB17D31A0B4AA6
:100CAC0013607968084B83FB01239A10CB17D21A77
:100CBC0013469B0013445B00CA1A054B1A6000BF15
:100CCC000C37BD4680BC70476766666680000020A6
:100CDC008400002080B500AFB14B1B68042B00F2E0
:100CEC00C98101A252F823F0090D0008810D0008FA
:100CFC00390E0008F30E0008C90F0008FFF71AFEA2
:100D0C00FFF7B2FB002000F01FFD0346012B0FD1B3
:100D1C00A34B01221A60A34B1B68A34A1360A34B7D
:100D2C001B68A34A13604FF4FA71002000F0F4FC26
:100D3C00012000F009FD0346012B0DD19A4B1868D8
:100D4C009B4B1968984B1A68994B1B68FFF736FD3B
:100D5C006421012000F0E0FC122000F0F5FC0346B9
:100D6C00012B40F08981FFF743FD0A21122000F08E
:100D7C00D3FC81E10020FFF73DFA0346012B12D191
:100D8C008C4B02221A600020FFF758FA0121002038
:100D9C0000F0C2FC0521012000F0BEFC0A2112204B
:100DAC0000F0BAFC71E1FFF7EFFD122000F0CCFC73
:100DBC000346012B05D1FFF71BFD0A21122000F081
:100DCC00ABFC012000F0C0FC0346012B17D1764B85
:100DDC001B68013B744A1360754B1B68013B744ADA
:100DEC001360714B1868724B19686F4B1A68704B13
:100DFC001B68FFF7E3FC6421012000F08DFC002050
:100E0C0000F0A2FC0346012B40F03881644B022217
:100E1C001A60694B1B68644A1360674B1B68644A11
:100E2C001360C821002000F077FC27E10020FFF7B9
:100E3C00E1F90346012B12D15E4B02221A6000200D
:100E4C00FFF7FCF90121002000F066FC05210120D0
:100E5C0000F062FC0A21122000F05EFC15E1FFF7A5
:100E6C00BDFD122000F070FC0346012B05D1FFF7ED
:100E7C00BFFC1421122000F04FFC012000F064FC98
:100E8C000346012B17D1484B1B68013B464A1360A4
:100E9C00474B1B68013B464A1360434B1868444B55
:100EAC001968414B1A68424B1B68FFF787FC642199
:100EBC00012000F031FC002000F046FC0346012B21
:100ECC0040F0DE80364B03221A60384B1B68364AE2
:100EDC001360344B1B68364A13604FF4FA710020D0
:100EEC0000F01AFCCCE00020FFF784F90346012B3C
:100EFC0012D1304B02221A600020FFF79FF901211A
:100F0C00002000F009FC0521012000F005FC0A215D
:100F1C00122000F001FCB8E0FFF78AFD122000F06F
:100F2C0013FC0346012B05D1FFF762FC0A211220AA
:100F3C0000F0F2FB012000F007FC0346012B17D157
:100F4C00194B1B68013B184A1360194B1B68013B7A
:100F5C00174A1360144B1868154B1968124B1A6812
:100F6C00134B1B68FFF72AFC6421012000F0D4FB13
:100F7C00002000F0E9FB0346012B40F08380084B76
:100F8C0004221A600C4B1B68074A13600A4B1B683F
:100F9C00074A1360C821002000F0BEFB72E000BFBE
:100FAC006C0000202800002074000020300000207D
:100FBC0078000020700000202C0000200020FFF79B
:100FCC0019F90346012B12D1314B02221A60002071
:100FDC00FFF734F90121002000F09EFB05210120D0
:100FEC0000F09AFB0A21122000F096FB4DE0FFF76F
:100FFC0049FD122000F0A8FB0346012B05D1FFF799
:10100C00F7FB0A21122000F087FB012000F09CFB6B
:10101C000346012B17D11F4B1B68013B1D4A136064
:10102C001D4B1B68013B1C4A13601A4B18681A4B6A
:10103C001968184B1A68184B1B68FFF7BFFB642123
:10104C00012000F069FB002000F07EFB0346012B21
:10105C001AD1124B01221A60114B1B680D4A1360F6
:10106C00104B1B680C4A13604FF4FA71002000F00F
:10107C0053FB09E000BF08E000BF06E000BF04E03E
:10108C0000BF02E000BF00E000BF00BF80BD00BF9A
:10109C007000002074000020780000206C000020FC
:1010AC00280000203000002080B500AF002000F0A8
:1010BC004BFB0346012B05D1FFF70EFD322100201F
:1010CC0000F02AFB012000F03FFB0346002B0BD164
:1010DC000C4B1A680C4B1B6802210020FFF76EFBAF
:1010EC000A21012000F018FB122000F02DFB034612
:1010FC00012B05D1FFF77CFB0A21122000F00CFB21
:10110C0000BF80BD800000208400002080B500AFAF
:10111C00002000F019FB0346012B05D1FFF724FD3D
:10112C003221002000F0F8FA012000F00DFB0346FC
:10113C00002B0BD10C4B1A680C4B1B6803210020A5
:10114C00FFF73CFB0A21012000F0E6FA122000F028
:10115C00FBFA0346012B05D1FFF74AFB0A211220AB
:10116C0000F0DAFA00BF80BD80000020840000206F
:10117C0080B500AF002000F0E7FA0346012B05D143
:10118C00FFF73AFD3221002000F0C6FA012000F0F2
:10119C00DBFA0346002B0BD10C4B1A680C4B1B686B
:1011AC0004210020FFF70AFB0A21012000F0B4FA09
:1011BC00122000F0C9FA0346012B05D1FFF718FBEA
:1011CC000A21122000F0A8FA00BF80BD8000002088
:1011DC008400002080B500AF132000F0B5FA034660
:1011EC00012B07D13221132000F096FA2021B648AA
:1011FC0000F0BBFE0020FFF721F8B44B1B68042B5A
:10120C0000F2558101A252F823F000BF2D12000804
:10121C007D120008C11200086B130008131400089B
:10122C000023002200210020FFF7C8FA122000F052
:10123C008BFA0346012B05D1FFF7DAFA0A211220AB
:10124C0000F06AFA0020FEF7D5FF0346012B40F0B0
:10125C0030819E4B01221A600020FEF7EFFF012126
:10126C00002000F059FA0521012000F055FA29E17F
:10127C00FFF730FD0020FEF7BDFF0346012B40F0C9
:10128C001A81924B02221A600020FEF7D7FF012030
:10129C00FEF7D4FF0220FEF7D1FF0121002000F061
:1012AC003BFA0521012000F037FA0A21122000F048
:1012BC0033FA07E1FFF7F8FE0020FEF79BFF034629
:1012CC00012B1BD1814B03221A600020FEF7B6FFC5
:1012DC000121002000F020FA0521012000F01CFA69
:1012EC000A21122000F018FA794B00221A60794B6F
:1012FC0000221A60784B00221A60E3E00120FEF70E
:10130C0079FF0346012B1BD1734B1B680133724AC7
:10131C001360714B1B68632B02DD6F4B00221A604C
:10132C006D4B1B681846FFF7AFFC694B1A68694B8D
:10133C001B6802210020FFF741FA0120FEF77EFF17
:10134C000220FEF757FF0346012B40F0B680624B9C
:10135C001B68624A13600220FEF770FFADE0FFF7D6
:10136C00D5FE0020FEF746FF0346012B1BD1574B41
:10137C0004221A600020FEF761FF0121002000F01A
:10138C00CBF90521012000F0C7F90A21122000F049
:10139C00C3F94F4B00221A604E4B00221A604E4B81
:1013AC0000221A608EE00120FEF724FF0346012B79
:1013BC001BD1494B1B680133474A1360464B1B68D2
:1013CC00632B02DD444B00221A60434B1B6818460A
:1013DC00FFF75AFC3E4B1A683E4B1B68032100205A
:1013EC00FFF7ECF90120FEF729FF0220FEF702FFC0
:1013FC000346012B63D1384B1B68394A136002201A
:10140C00FEF71CFF5BE0FFF7B3FE0020FEF7F2FED9
:10141C000346012B1BD12D4B01221A600020FEF735
:10142C000DFF0121002000F077F90521012000F0CB
:10143C0073F90A21122000F06FF9254B00221A6073
:10144C00244B00221A60244B00221A603AE001203F
:10145C00FEF7D0FE0346012B1BD11F4B1B6801333B
:10146C001D4A13601C4B1B68632B02DD1A4B0022B8
:10147C001A60194B1B681846FFF706FC144B1A68C8
:10148C00144B1B6804210020FFF798F90120FEF78C
:10149C00D5FE0220FEF7AEFE0346012B11D10E4BFA
:1014AC001B68104A13600220FEF7C8FE09E000BF5B
:1014BC0008E000BF06E000BF04E000BF02E000BF90
:1014CC0000E000BF00BF80BD00080140700000209C
:1014DC0080000020840000207C00002028000020D8
:1014EC002C0000203000002080B500AF00F024FA62
:1014FC00FEF726FE00F014F800F04EF800F098F815
:10150C00064801F077F90121132000F005F9642158
:10151C00122000F001F9FFF75DFEFCE7F800002057
:10152C0080B590B000AF07F11803282200211846AF
:10153C0001F010FD3B1D00221A605A609A60DA60BF
:10154C001A610223BB610123BB621023FB620023DF
:10155C007B6307F11803184600F020FD0346002BAF
:10156C0001D000F0D3F80F237B600023BB60002375
:10157C00FB6000233B6100237B613B1D002118466F
:10158C0000F08CFF0346002B01D000F0BFF800BF29
:10159C004037BD4680BD000080B586B000AF07F176
:1015AC00080300221A605A609A60DA603B460022F7
:1015BC001A605A601D4B4FF080421A601B4B41F66B
:1015CC003F725A60194B00229A60184B0922DA605C
:1015DC00164B00221A61154B00229A61134801F038
:1015EC00B9F80346002B01D000F090F84FF480536B
:1015FC00BB6007F1080319460C4801F037FA0346A3
:10160C00002B01D000F082F800233B6000237B60AC
:10161C003B461946054801F00FFC0346002B01D050
:10162C0000F074F800BF1837BD4680BDF8000020EC
:10163C0080B586B000AF07F1080300221A605A602B
:10164C009A60DA60284B9B69274A43F00403936144
:10165C00254B9B6903F004037B607B68224B9B69E1
:10166C00214A43F0080393611F4B9B6903F0080365
:10167C003B603B68002243F6F8711C4800F05DFCAF
:10168C0000227F211A4800F058FC43F6F873BB6027
:10169C000123FB6000233B6102237B6107F10803FC
:1016AC001946124800F0B8FA7F23BB600123FB6097
:1016BC0000233B6102237B6107F1080319460C48A8
:1016CC0000F0AAFA4FF46043BB600023FB600123D7
:1016DC003B6107F108031946054800F09DFA00BF6D
:1016EC001837BD4680BD00BF001002400008014005
:1016FC00000C014080B582B000AF786000F038F883
:10170C00FEF7B2FD00BF0837BD4680BD80B400AF08
:10171C0072B600BFFEE7000080B483B000AF786003
:10172C00396007497B683A6841F82320054A7B6891
:10173C00002142F8231000BF0C37BD4680BC704717
:10174C00400100209001002080B483B000AF78608D
:10175C00064A7B6852F82330012B01D1012300E0AB
:10176C00002318460C37BD4680BC70479001002002
:10177C0080B483B000AF00237B601CE0124A7B680E
:10178C0052F82330002B13DD0F4A7B6852F82330BC
:10179C005A1E0D497B6841F823200B4A7B6852F88E
:1017AC002330002B04DC094A7B68012142F823100A
:1017BC007B6801337B607B68132BDFDD00BF00BFD0
:1017CC000C37BD4680BC70474001002090010020C2
:1017DC0080B485B000AF154B9B69144A43F00103EC
:1017EC009361124B9B6903F00103BB60BB680F4B09
:1017FC00DB690E4A43F08053D3610C4BDB6903F079
:10180C0080537B607B680A4B5B68FB60FB6823F052
:10181C00E063FB60FB6843F08063FB60044AFB6899
:10182C00536000BF1437BD4680BC704700100240A7
:10183C000000014080B584B000AF78607B681B6805
:10184C00B3F1804F13D10C4BDB690B4A43F001030E
:10185C00D361094BDB6903F00103FB60FB680022D9
:10186C0000211C2000F0A1F91C2000F0BAF900BFE7
:10187C001037BD4680BD00BF0010024080B400AFE1
:10188C00FEE780B400AFFEE780B400AFFEE780B4A3
:10189C0000AFFEE780B400AFFEE780B400AF00BF3E
:1018AC00BD4680BC704780B400AF00BFBD4680BC55
:1018BC00704780B400AF00BFBD4680BC704780B598
:1018CC0000AF00F07FF800BF80BD000080B500AF16
:1018DC00024800F0DBFF00BF80BD00BFF800002015
:1018EC0080B400AF00BFBD4680BC7047FFF7F8FF67
:1018FC000B480C490C4A002302E0D458C450043362
:10190C00C4188C42F9D3094A094C002301E0136036
:10191C000432A242FBD301F0F9FAFFF7E5FD704760
:10192C000000002040000020B42F000840000020E0
:10193C00E4010020FEE7000080B500AF084B1B68F7
:10194C00074A43F010031360032000F023F90F2023
:10195C0000F008F8FFF73CFF0023184680BD00BFDD
:10196C000020024080B582B000AF7860124B1A683C
:10197C00124B1B7819464FF47A73B3FBF1F3B2FB9D
:10198C00F3F3184600F03BF90346002B01D001237A
:10199C000EE07B680F2B0AD8002279684FF0FF30DD
:1019AC0000F003F9064A7B681360002300E0012372
:1019BC0018460837BD4680BD340000203C0000208E
:1019CC003800002080B400AF054B1B781A46054B3D
:1019DC001B681344034A136000BFBD4680BC7047AC
:1019EC003C000020E001002080B400AF024B1B68DB
:1019FC001846BD4680BC7047E001002080B485B01D
:101A0C0000AF78607B6803F00703FB600C4BDB686E
:101A1C00BB60BA684FF6FF031340BB60FB681A0249
:101A2C00BB68134343F0BF6343F40033BB60044A09
:101A3C00BB68D36000BF1437BD4680BC704700BF85
:101A4C0000ED00E080B400AF044BDB681B0A03F030
:101A5C0007031846BD4680BC704700BF00ED00E090
:101A6C0080B483B000AF0346FB7197F90730002BAD
:101A7C000BDBFB7903F01F02064997F907305B0972
:101A8C00012000FA02F241F8232000BF0C37BD46BA
:101A9C0080BC704700E100E080B483B000AF034627
:101AAC003960FB7197F90730002B0ADB3B68DAB21F
:101ABC000C4997F907301201D2B20B4483F800237A
:101ACC000AE03B68DAB20849FB7903F00F03043BE8
:101ADC001201D2B20B441A7600BF0C37BD4680BC43
:101AEC00704700BF00E100E000ED00E080B489B079
:101AFC0000AFF860B9607A60FB6803F00703FB6124
:101B0C00FB69C3F10703042B28BF0423BB61FB69EA
:101B1C000433062B02D9FB69033B00E000237B61F5
:101B2C004FF0FF32BB6902FA03F3DA43BB681A4089
:101B3C007B699A404FF0FF317B6901FA03F3D9437B
:101B4C007B680B40134318462437BD4680BC704756
:101B5C0080B582B000AF78607B68013BB3F1807FC9
:101B6C0001D301230FE00A4A7B68013B53600F212C
:101B7C004FF0FF30FFF790FF054B00229A60044BAB
:101B8C0007221A60002318460837BD4680BD00BFE7
:101B9C0010E000E080B582B000AF78607868FFF7A5
:101BAC002DFF00BF0837BD4680BD80B586B000AFA5
:101BBC000346B9607A60FB7300237B61FFF742FF39
:101BCC0078617A68B9687869FFF790FF024697F9EF
:101BDC000F3011461846FFF75FFF00BF1837BD46A0
:101BEC0080BD80B582B000AF0346FB7197F907301A
:101BFC001846FFF735FF00BF0837BD4680BD80B5DE
:101C0C0082B000AF78607868FFF7A2FF03461846F1
:101C1C000837BD4680BD000080B48BB000AF786043
:101C2C00396000237B6200233B6248E101227B6A1E
:101C3C0002FA03F3FB613B681B68FA691340BB6152
:101C4C00BA69FB699A4240F037813B685B68A34AEA
:101C5C0093425ED0A14A934275D8A14A934258D080
:101C6C009F4A93426FD89F4A934252D09D4A9342C7
:101C7C0069D89D4A93424CD09B4A934263D89B4A65
:101C8C00934246D0994A93425DD8122B2AD8122BF4
:101C9C0059D801A252F823F01F1D0008F91C0008A6
:101CAC000B1D00084D1D0008531D0008531D000896
:101CBC00531D0008531D0008531D0008531D000838
:101CCC00531D0008531D0008531D0008531D000828
:101CDC00531D0008531D0008531D0008011D00086A
:101CEC00151D0008824A934213D02CE03B68DB6838
:101CFC003B6229E03B68DB6804333B6224E03B68D1
:101D0C00DB6808333B621FE03B68DB680C333B62EB
:101D1C001AE03B689B68002B02D104233B6213E062
:101D2C003B689B68012B05D108233B627B68FA69F1
:101D3C001A6109E008233B627B68FA695A6103E087
:101D4C0000233B6200E000BFBB69FF2B01D87B681E
:101D5C0001E07B6804337B61BB69FF2B02D87B6A93
:101D6C009B0002E07B6A083B9B003B617B691A6825
:101D7C000F213B6901FA03F3DB431A40396A3B69D3
:101D8C0001FA03F31A437B691A603B685B6803F042
:101D9C008053002B00F09080564B9B69554A43F0C2
:101DAC0001039361534B9B6903F00103BB60BB6858
:101DBC00514A7B6A9B08023352F82330FB607B6AE2
:101DCC0003F003039B000F2202FA03F3DB43FA68D0
:101DDC001340FB607B68494A93420DD07B68484AAC
:101DEC00934207D07B68474A934201D1022304E017
:101DFC00032302E0012300E000237A6A02F00302CD
:101E0C0092009340FA681343FB603B497B6A9B0842
:101E1C000233FA6841F823203B685B6803F48013B3
:101E2C00002B06D0384B9A683749BB6913438B603B
:101E3C0006E0354B9A68BB69DB43334913408B6032
:101E4C003B685B6803F40013002B06D02E4BDA685A
:101E5C002D49BB691343CB6006E02B4BDA68BB6999
:101E6C00DB4329491340CB603B685B6803F40033C8
:101E7C00002B06D0244B5A682349BB6913434B6093
:101E8C0006E0214B5A68BB69DB431F4913404B608A
:101E9C003B685B6803F48033002B06D01A4B1A683E
:101EAC001949BB6913430B6006E0174B1A68BB69F1
:101EBC00DB43154913400B607B6A01337B623B6843
:101ECC001A687B6A22FA03F3002B7FF4AFAE00BFD3
:101EDC0000BF2C37BD4680BC704700BF00003210DD
:101EEC000000311000002210000021100000121020
:101EFC0000001110001002400000014000080140D9
:101F0C00000C0140001001400004014080B485B079
:101F1C0000AF78600B467B807B689A687B881340A7
:101F2C00002B02D00123FB7301E00023FB73FB7B2E
:101F3C0018461437BD4680BC704780B483B000AFE0
:101F4C0078600B467B8013467B707B78002B03D02C
:101F5C007A887B681A6103E07B881A047B681A61B3
:101F6C0000BF0C37BD4680BC704780B485B000AF55
:101F7C0078600B467B807B68DB68FB607A88FB684B
:101F8C0013401A04FB68D9437B880B401A437B68C7
:101F9C001A6100BF1437BD4680BC704780B586B04F
:101FAC0000AF78607B68002B01D101236CE27B6869
:101FBC001B6803F00103002B00F08780924B5B68D9
:101FCC0003F00C03042B0CD08F4B5B6803F00C0359
:101FDC00082B12D18C4B5B6803F48033B3F5803F34
:101FEC000BD1894B1B6803F40033002B6CD07B683E
:101FFC005B68002B68D1012346E27B685B68B3F514
:10200C00803F06D1804B1B687F4A43F480331360BA
:10201C002EE07B685B68002B0CD17B4B1B687A4AEB
:10202C0023F480331360784B1B68774A23F48023A6
:10203C0013601DE07B685B68B3F5A02F0CD1724B6D
:10204C001B68714A43F4802313606F4B1B686E4A04
:10205C0043F4803313600BE06B4B1B686A4A23F428
:10206C0080331360684B1B68674A23F4802313602A
:10207C007B685B68002B13D0FFF7B6FC386108E077
:10208C00FFF7B2FC02463B69D31A642B01D9032338
:10209C00FAE15D4B1B6803F40033002BF0D014E025
:1020AC00FFF7A2FC386108E0FFF79EFC02463B6993
:1020BC00D31A642B01D90323E6E1534B1B6803F4B9
:1020CC000033002BF0D100E000BF7B681B6803F0ED
:1020DC000203002B63D04C4B5B6803F00C03002B0A
:1020EC000BD0494B5B6803F00C03082B1CD1464BFF
:1020FC005B6803F48033002B16D1434B1B6803F051
:10210C000203002B05D07B681B69012B01D0012336
:10211C00BAE13D4B1B6823F0F8027B685B69DB007E
:10212C00394913430B603AE07B681B69002B20D0C4
:10213C00364B01221A60FFF757FC386108E0FFF7B5
:10214C0053FC02463B69D31A022B01D903239BE1B2
:10215C002D4B1B6803F00203002BF0D02A4B1B689D
:10216C0023F0F8027B685B69DB00274913430B60A3
:10217C0015E0264B00221A60FFF736FC386108E0A8
:10218C00FFF732FC02463B69D31A022B01D9032319
:10219C007AE11D4B1B6803F00203002BF0D17B6826
:1021AC001B6803F00803002B3AD07B689B69002B5B
:1021BC0019D0174B01221A60FFF716FC386108E0A2
:1021CC00FFF712FC02463B69D31A022B01D90323F9
:1021DC005AE10D4B5B6A03F00203002BF0D0012097
:1021EC0000F09AFA1CE00A4B00221A60FFF7FCFB85
:1021FC0038610FE0FFF7F8FB02463B69D31A022B5C
:10220C0008D9032340E100BF001002400000424205
:10221C00800442429E4B5B6A03F00203002BE9D11F
:10222C007B681B6803F00403002B00F0A6800023DE
:10223C00FB75974BDB6903F08053002B0DD1944B4E
:10224C00DB69934A43F08053D361914BDB6903F014
:10225C008053BB60BB680123FB758E4B1B6803F47A
:10226C008073002B18D18B4B1B688A4A43F4807304
:10227C001360FFF7B9FB386108E0FFF7B5FB0246C6
:10228C003B69D31A642B01D90323FDE0814B1B68F6
:10229C0003F48073002BF0D07B68DB68012B06D134
:1022AC007B4B1B6A7A4A43F0010313622DE07B6877
:1022BC00DB68002B0CD1764B1B6A754A23F00103AB
:1022CC001362734B1B6A724A23F0040313621CE003
:1022DC007B68DB68052B0CD16D4B1B6A6C4A43F099
:1022EC00040313626A4B1B6A694A43F001031362CD
:1022FC000BE0674B1B6A664A23F001031362644BC5
:10230C001B6A634A23F0040313627B68DB68002BAF
:10231C0015D0FFF769FB38610AE0FFF765FB024651
:10232C003B69D31A41F28832934201D90323ABE0C3
:10233C00574B1B6A03F00203002BEED014E0FFF79F
:10234C0053FB38610AE0FFF74FFB02463B69D31A97
:10235C0041F28832934201D9032395E04C4B1B6A1E
:10236C0003F00203002BEED1FB7D012B05D1484B72
:10237C00DB69474A23F08053D3617B68DB69002B10
:10238C0000F08180424B5B6803F00C03082B61D09A
:10239C007B68DB69022B46D13F4B00221A60FFF7AA
:1023AC0023FB386108E0FFF71FFB02463B69D31A99
:1023BC00022B01D9032367E0354B1B6803F0007334
:1023CC00002BF0D17B681B6AB3F5803F08D1304BF2
:1023DC005B6823F400327B689B682D4913434B6088
:1023EC002B4B5B6823F474127B68196A7B685B6AFD
:1023FC000B43274913434B60274B01221A60FFF70D
:10240C00F3FA386108E0FFF7EFFA02463B69D31A9A
:10241C00022B01D9032337E01D4B1B6803F000731B
:10242C00002BF0D02FE01C4B00221A60FFF7DCFAD7
:10243C00386108E0FFF7D8FA02463B69D31A022B41
:10244C0001D9032320E0124B1B6803F00073002B0F
:10245C00F0D118E07B68DB69012B01D1012313E07B
:10246C000B4B5B68FB60FB6803F480327B681B6A78
:10247C009A4206D1FB6803F470127B685B6A9A423D
:10248C0001D0012300E0002318461837BD4680BD5B
:10249C0000100240007000406000424280B584B0E1
:1024AC0000AF786039607B68002B01D10123D0E04C
:1024BC006A4B1B6803F007033A689A4210D9674BC2
:1024CC001B6823F0070265493B6813430B60634BA1
:1024DC001B6803F007033A689A4201D00123B8E065
:1024EC007B681B6803F00203002B20D07B681B6801
:1024FC0003F00403002B05D0594B5B68584A43F496
:10250C00E06353607B681B6803F00803002B05D065
:10251C00534B5B68524A43F460535360504B5B68B7
:10252C0023F0F0027B689B684D4913434B607B683A
:10253C001B6803F00103002B40D07B685B68012B08
:10254C0007D1474B1B6803F40033002B15D1012333
:10255C007FE07B685B68022B07D1414B1B6803F063
:10256C000073002B09D1012373E03D4B1B6803F072
:10257C000203002B01D101236BE0394B5B6823F084
:10258C0003027B685B68364913434B60FFF72CFAF8
:10259C00F8600AE0FFF728FA0246FB68D31A41F20A
:1025AC008832934201D9032353E02D4B5B6803F02F
:1025BC000C027B685B689B009A42EBD1274B1B6833
:1025CC0003F007033A689A4210D2244B1B6823F09D
:1025DC00070222493B6813430B60204B1B6803F036
:1025EC0007033A689A4201D0012332E07B681B68EA
:1025FC0003F00403002B08D0194B5B6823F4E06252
:10260C007B68DB68164913434B607B681B6803F0DF
:10261C000803002B09D0124B5B6823F460527B68D3
:10262C001B69DB000E4913434B6000F021F8024696
:10263C000B4B5B681B0903F00F030A49CB5C22FAB6
:10264C0003F3094A1360094B1B681846FFF78AF914
:10265C00002318461037BD4680BD00BF0020024045
:10266C0000100240882F00083400002038000020A1
:10267C0080B487B000AF0023FB600023BB60002355
:10268C007B6100237B6000233B611E4B5B68FB601E
:10269C00FB6803F00C03042B02D0082B03D027E0BB
:1026AC00194B3B6127E0FB689B0C03F00F03174AA7
:1026BC00D35C7B60FB6803F48033002B10D0114B90
:1026CC005B685B0C03F00103114AD35CBB607B6855
:1026DC000D4A02FB03F2BB68B2FBF3F37B6104E02F
:1026EC007B680C4A02FB03F37B617B693B6102E074
:1026FC00054B3B6100BF3B6918461C37BD4680BC8F
:10270C00704700BF0010024000127A00982F00089A
:10271C00A82F000800093D0080B485B000AF786098
:10272C000A4B1B680A4AA2FB03235B0A7A6802FB6A
:10273C0003F3FB6000BFFB685A1EFA60002BF9D153
:10274C0000BF00BF1437BD4680BC7047340000206A
:10275C00D34D621080B582B000AF78607B68002BDF
:10276C0001D1012341E07B6893F83D30DBB2002BB3
:10277C0006D17B68002283F83C207868FFF75AF872
:10278C007B68022283F83D207B681A687B680433DF
:10279C001946104600F056FA7B68012283F8462051
:1027AC007B68012283F83E207B68012283F83F205E
:1027BC007B68012283F840207B68012283F841204A
:1027CC007B68012283F842207B68012283F8432036
:1027DC007B68012283F844207B68012283F8452022
:1027EC007B68012283F83D20002318460837BD463C
:1027FC0080BD000080B485B000AF78607B6893F832
:10280C003D30DBB2012B01D0012335E07B68022285
:10281C0083F83D207B681B68DA687B681B6842F094
:10282C000102DA607B681B68164A934209D07B6808
:10283C001B68B3F1804F04D07B681B68124A93422B
:10284C0011D17B681B689B6803F00703FB60FB6876
:10285C00062B10D07B681B681A687B681B6842F0DB
:10286C0001021A6007E07B681B681A687B681B68AA
:10287C0042F001021A60002318461437BD4680BC92
:10288C00704700BF002C01400004004080B584B0AC
:10289C0000AF78607B681B68DB68FB607B681B683B
:1028AC001B69BB60BB6803F00203002B20D0FB68E4
:1028BC0003F00203002B1BD07B681B686FF0020235
:1028CC001A617B6801221A777B681B689B6903F08D
:1028DC000303002B03D0786800F098F905E07868C2
:1028EC0000F08BF9786800F09AF97B6800221A776F
:1028FC00BB6803F00403002B20D0FB6803F0040337
:10290C00002B1BD07B681B686FF004021A617B687C
:10291C0002221A777B681B689B6903F44073002BB7
:10292C0003D0786800F072F905E0786800F065F97A
:10293C00786800F074F97B6800221A77BB6803F0A2
:10294C000803002B20D0FB6803F00803002B1BD0DE
:10295C007B681B686FF008021A617B6804221A7787
:10296C007B681B68DB6903F00303002B03D07868DA
:10297C0000F04CF905E0786800F03FF9786800F059
:10298C004EF97B6800221A77BB6803F01003002B0A
:10299C0020D0FB6803F01003002B1BD07B681B6856
:1029AC006FF010021A617B6808221A777B681B682B
:1029BC00DB6903F44073002B03D0786800F026F930
:1029CC0005E0786800F019F9786800F028F97B6860
:1029DC0000221A77BB6803F00103002B0CD0FB68B4
:1029EC0003F00103002B07D07B681B686FF001021A
:1029FC001A617868FEF77EFEBB6803F08003002B3B
:102A0C000CD0FB6803F08003002B07D07B681B689D
:102A1C006FF080021A61786800F06FFABB6803F0FF
:102A2C004003002B0CD0FB6803F04003002B07D0B5
:102A3C007B681B686FF040021A61786800F0F8F848
:102A4C00BB6803F02003002B0CD0FB6803F02003C1
:102A5C00002B07D07B681B686FF020021A61786826
:102A6C0000F042FA00BF1037BD4680BD80B584B07F
:102A7C0000AF786039600023FB737B6893F83C30BF
:102A8C00012B01D10223B4E07B68012283F83C20A6
:102A9C007B68022283F83D207B681B689B68BB60C7
:102AAC00BB6823F07703BB60BB6823F47F43BB6038
:102ABC007B681B68BA689A603B681B68B3F5005F5B
:102ACC003ED0B3F5005F00F28780B3F5805F00F075
:102ADC008680B3F5805F7FD8702B1AD0702B7BD893
:102AEC00602B50D0602B77D8502B3CD0502B73D808
:102AFC00402B58D0402B6FD8302B64D0302B6BD858
:102B0C00202B60D0202B67D8002B5CD0102B5AD0F8
:102B1C0062E07B6818683B6899683B685A683B6858
:102B2C00DB6800F06AF97B681B689B68BB60BB685C
:102B3C0043F07703BB607B681B68BA689A604FE010
:102B4C007B6818683B6899683B685A683B68DB6827
:102B5C0000F053F97B681B689A687B681B6842F429
:102B6C0080429A603CE07B6818683B6859683B6817
:102B7C00DB681A4600F0CAF87B681B6850211846BF
:102B8C0000F021F92CE07B6818683B6859683B68B9
:102B9C00DB681A4600F0E8F87B681B686021184671
:102BAC0000F011F91CE07B6818683B6859683B68B9
:102BBC00DB681A4600F0AAF87B681B6840211846AF
:102BCC0000F001F90CE07B681A683B681B68194639
:102BDC00104600F0F8F803E00123FB7300E000BF9F
:102BEC007B68012283F83D207B68002283F83C201F
:102BFC00FB7B18461037BD4680BD80B483B000AF58
:102C0C00786000BF0C37BD4680BC704780B483B081
:102C1C0000AF786000BF0C37BD4680BC704780B4F5
:102C2C0083B000AF786000BF0C37BD4680BC7047E6
:102C3C0080B483B000AF786000BF0C37BD4680BC59
:102C4C007047000080B485B000AF786039607B6855
:102C5C001B68FB607B682B4A934207D07B68B3F1FF
:102C6C00804F03D07B68284A934208D1FB6823F03D
:102C7C007003FB603B685B68FA681343FB607B681E
:102C8C00204A934207D07B68B3F1804F03D07B6816
:102C9C001D4A934208D1FB6823F44073FB603B68E8
:102CAC00DB68FA681343FB60FB6823F080023B6827
:102CBC005B691343FB607B68FA681A603B689A682F
:102CCC007B68DA623B681A687B689A627B680D4A9B
:102CDC00934203D13B681A697B681A637B680122B3
:102CEC005A617B681B6903F00103002B05D07B68DC
:102CFC001B6923F001027B681A6100BF1437BD46C3
:102D0C0080BC7047002C01400004004080B487B0A8
:102D1C0000AFF860B9607A60FB681B6A7B61FB6886
:102D2C001B6A23F00102FB681A62FB689B693B611A
:102D3C003B6923F0F0033B617B681B013A69134349
:102D4C003B617B6923F00A037B617A69BB6813439F
:102D5C007B61FB683A699A61FB687A691A6200BF09
:102D6C001C37BD4680BC704780B487B000AFF8609C
:102D7C00B9607A60FB681B6A7B61FB681B6A23F095
:102D8C001002FB681A62FB689B693B613B6923F488
:102D9C0070433B617B681B033A6913433B617B695E
:102DAC0023F0A0037B61BB681B017A6913437B6131
:102DBC00FB683A699A61FB687A691A6200BF1C3732
:102DCC00BD4680BC704780B485B000AF7860396078
:102DDC007B689B68FB60FB6823F07003FB603A68C0
:102DEC00FB68134343F00703FB607B68FA689A6047
:102DFC0000BF1437BD4680BC704780B487B000AFAD
:102E0C00F860B9607A603B60FB689B687B617B69AA
:102E1C0023F47F437B613B681A027B681A43BB68CF
:102E2C0013437A6913437B61FB687A699A6000BF2C
:102E3C001C37BD4680BC704780B485B000AF78604D
:102E4C0039607B6893F83C30012B01D1022341E0BF
:102E5C007B68012283F83C207B68022283F83D20AA
:102E6C007B681B685B68FB607B681B689B68BB604E
:102E7C00FB6823F07003FB603B681B68FA68134324
:102E8C00FB607B681B68FA685A607B681B68144A95
:102E9C00934209D07B681B68B3F1804F04D07B68E8
:102EAC001B68104A93420CD1BB6823F08003BB60B3
:102EBC003B685B68BA681343BB607B681B68BA6885
:102ECC009A607B68012283F83D207B68002283F89E
:102EDC003C20002318461437BD4680BC704700BF09
:102EEC00002C01400004004080B483B000AF786037
:102EFC0000BF0C37BD4680BC704780B483B000AFB8
:102F0C00786000BF0C37BD4680BC704770B500269A
:102F1C000C4D0D4C641BA410A64209D100F022F8F4
:102F2C0000260A4D0A4C641BA410A64205D170BDA4
:102F3C0055F8043B98470136EEE755F8043B9847A3
:102F4C000136F2E7AC2F0008AC2F0008AC2F0008BC
:102F5C00B02F000803460244934200D1704703F897
:102F6C00011BF9E7F8B500BFF8BC08BC9E467047DA
:0C2F7C00F8B500BFF8BC08BC9E467047CA
:102F88000000000000000000010203040607080911
:102F980002030405060708090A0B0C0D0E0F101092
:042FA8000102000022
:042FAC0031010008E7
:042FB0000D01000807
:102FB400000C0140000C0140000C01400000000026
:102FC400002000400080000001000000020000001A
:102FD40003000000040000000700000002000000DD
:102FE4000500000000127A0010000000010000003B
:04000005080018F9DE
:00000001FF
