:020000040800F2
:1000000000280020C9180008591800085F180008C7
:10001000651800086B18000871180008000000003F
:100020000000000000000000000000007718000839
:1000300083180008000000008F1800089B180008B3
:1000400011190008111900081119000811190008E8
:1000500011190008111900081119000811190008D8
:1000600011190008111900081119000811190008C8
:1000700011190008111900081119000811190008B8
:1000800011190008111900081119000811190008A8
:100090001119000811190008111900081119000898
:1000A0001119000811190008111900081119000888
:1000B000A918000811190008000000001119000813
:1000C00011190008000000000000000011190008CC
:1000D00000000000111900081119000800000000BC
:1000E000111900081119000811190008000000007A
:1000F0000000000000000000000000000000000000
:0C01000000000000000000005FF808F1A3
:10010C0010B5054C237833B9044B13B10448AFF345
:10011C0000800123237010BD34000020000000007B
:10012C00402F000808B5034B1BB103490348AFF33C
:10013C00008008BD0000000038000020402F00089F
:10014C0080B483B000AF00237B6048E028497A6814
:10015C001346DB009B1A9B000B4401221A602449B6
:10016C007A681346DB009B1A9B000B440433012274
:10017C001A601F497A681346DB009B1A9B000B44DC
:10018C00083301221A601A497A681346DB009B1A5D
:10019C009B000B440C3301221A6015497A681346F4
:1001AC00DB009B1A9B000B4410334FF4FA721A605D
:1001BC000F497A681346DB009B1A9B000B441433DF
:1001CC0000221A600A497A681346DB009B1A9B00CE
:1001DC000B44183300221A607B6801337B607B6808
:1001EC00032BB3DD00BF00BF0C37BD4680BC70478E
:1001FC008800002080B483B000AF78600E497A6824
:10020C001346DB009B1A9B000B4414331B68012B19
:10021C000BD109497A681346DB009B1A9B000B44EF
:10022C00143300221A60012300E0002318460C3717
:10023C00BD4680BC704700BF8800002080B483B0EE
:10024C0000AF786007497A681346DB009B1A9B0065
:10025C000B44143300221A6000BF0C37BD4680BC1F
:10026C00704700BF8800002080B582B000AF00232B
:10027C007B60E9E079497A681346DB009B1A9B00A6
:10028C000B440433196875487A681346DB009B1AD3
:10029C009B0003440833196070497A681346DB00ED
:1002AC009B1A9B000B4419686C487A681346DB0058
:1002BC009B1A9B00034404331960694A7B6852F80B
:1002CC00232068497B6831F813301946104601F039
:1002DC0005FE0346184661497A681346DB009B1AF3
:1002EC009B000B4418605D497A681346DB009B1A2F
:1002FC009B000B440433196858487A681346DB009A
:10030C009B1A9B0003441B68994240F09A80534906
:10031C007A681346DB009B1A9B000B440433196864
:10032C004E487A681346DB009B1A9B000344083343
:10033C001B68994240F0858048497A681346DB0077
:10034C009B1A9B000B440833196844487A6813467F
:10035C00DB009B1A9B0003440C331B68994232D080
:10036C003E497A681346DB009B1A9B000B4408330A
:10037C0019683A487A681346DB009B1A9B000344C1
:10038C000C33196035497A681346DB009B1A9B00C5
:10039C000B440C331B68002B53D130497A6813463D
:1003AC00DB009B1A9B000B4410334FF4FA721A605B
:1003BC002A497A681346DB009B1A9B000B441433C2
:1003CC0001221A603DE025497A681346DB009B1A2E
:1003DC009B000B4410331B68591E20487A68134647
:1003EC00DB009B1A9B000344103319601B497A688D
:1003FC001346DB009B1A9B000B4410331B68002B2D
:10040C001FD116497A681346DB009B1A9B000B44DC
:10041C0010334FF4FA721A6010497A681346DB00F5
:10042C009B1A9B000B440C331B68002B09D10B4906
:10043C007A681346DB009B1A9B000B441433012291
:10044C001A607B6801337B607B68032B7FF712AFEC
:10045C0000BF00BF0837BD4680BD00BF880000202C
:10046C00000000201000002080B500AF0122082100
:10047C00094801F04AFD01221021074801F045FD11
:10048C0001224021044801F040FD01228021024854
:10049C0001F03BFD00BF80BD0008014080B582B07B
:1004AC0000AF78607B68092B00F2808101A252F8C2
:1004BC0023F000BFE90400083105000879050008A5
:1004CC00C105000809060008510600089906000835
:1004DC00E106000829070008710700080022012125
:1004EC00B54801F012FD00220221B34801F00DFDC8
:1004FC0000220421B04801F008FD00220821AE487A
:10050C0001F003FD00221021AB4801F0FEFC00229B
:10051C002021A94801F0F9FC01224021A64801F054
:10052C00F4FC44E101220121A34801F0EEFC00227D
:10053C000221A14801F0E9FC002204219E4801F0AF
:10054C00E4FC012208219C4801F0DFFC012210216F
:10055C00994801F0DAFC01222021974801F0D5FCE2
:10056C0001224021944801F0D0FC20E1002201211D
:10057C00914801F0CAFC002202218F4801F0C5FC11
:10058C00012204218C4801F0C0FC002208218A4879
:10059C0001F0BBFC00221021874801F0B6FC0122BF
:1005AC002021854801F0B1FC00224021824801F055
:1005BC00ACFCFCE0002201217F4801F0A6FC0022EB
:1005CC0002217D4801F0A1FC002204217A4801F0AF
:1005DC009CFC00220821784801F097FC0122102194
:1005EC00754801F092FC01222021734801F08DFC2A
:1005FC0000224021704801F088FCD8E00122012142
:10060C006D4801F082FC002202216B4801F07DFC58
:10061C0000220421684801F078FC01220821664878
:10062C0001F073FC01221021634801F06EFC0022E2
:10063C002021614801F069FC002240215E4801F054
:10064C0064FCB4E0002201215B4801F05EFC012255
:10065C000221594801F059FC00220421564801F0AE
:10066C0054FC00220821544801F04FFC01221021B7
:10067C00514801F04AFC002220214F4801F045FC72
:10068C00002240214C4801F040FC90E00022012166
:10069C00494801F03AFC01220221474801F035FC9F
:1006AC0000220421444801F030FC00220821424879
:1006BC0001F02BFC002210213F4801F026FC002207
:1006CC0020213D4801F021FC002240213A4801F054
:1006DC001CFC6CE000220121374801F016FC0022C2
:1006EC000221354801F011FC00220421324801F0AE
:1006FC000CFC01220821304801F007FC01221021DA
:10070C002D4801F002FC012220212B4801F0FDFBB9
:10071C0001224021284801F0F8FB48E00022012189
:10072C00254801F0F2FB00220221234801F0EDFBE9
:10073C0000220421204801F0E8FB002208211E4879
:10074C0001F0E3FB002210211B4801F0DEFB00222C
:10075C002021194801F0D9FB00224021164801F054
:10076C00D4FB24E000220121134801F0CEFB00222F
:10077C000221114801F0C9FB002204210E4801F0AE
:10078C00C4FB002208210C4801F0BFFB0122102100
:10079C00094801F0BAFB00222021074801F0B5FB03
:1007AC0000224021044801F0B0FB00E000BF00BF74
:1007BC000837BD4680BD00BF000C014080B485B039
:1007CC0000AFF860B9607A603B60084AFB68136060
:1007DC00064ABB685360054A7B689360034A3B68D2
:1007EC00D36000BF1437BD4680BC70471800002092
:1007FC0080B500AF4C4B1B68032B00F2918001A21B
:10080C0052F823F02108000865080008A908000820
:10081C00ED08000800220821444801F076FB012273
:10082C001021424801F071FB012240213F4801F0A8
:10083C006CFB012280213D4801F067FB3A4B1B68A1
:10084C003B4A52F823301846FFF728FE364B1B68FC
:10085C000133354A136064E001220821334801F06A
:10086C0054FB00221021314801F04FFB01224021A2
:10087C002E4801F04AFB012280212C4801F045FB57
:10088C00294B1B682A4A52F823301846FFF706FEFC
:10089C00254B1B680133244A136042E001220821D6
:1008AC00224801F032FB01221021204801F02DFBDF
:1008BC00002240211D4801F028FB012280211B4809
:1008CC0001F023FB184B1B68194A52F823301846C9
:1008DC00FFF7E4FD144B1B680133134A136020E04F
:1008EC0001220821114801F010FB012210210F48B0
:1008FC0001F00BFB012240210C4801F006FB002209
:10090C0080210A4801F001FB074B1B68084A52F88A
:10091C0023301846FFF7C2FD034B00221A6000E09B
:10092C0000BF00BF80BD00BF500000200008014088
:10093C001800002080B500AF01224FF480611148EF
:10094C0001F0E3FA01224FF400510E4801F0DDFAF8
:10095C0001224FF480710B4801F0D7FA01224FF4B9
:10096C000061084801F0D1FA01224FF400710548EA
:10097C0001F0CBFA01224FF48051024801F0C5FA84
:10098C0000BF80BD0008014080B500AF01224FF4CC
:10099C000051114801F0B9FA01224FF480710E4850
:1009AC0001F0B3FA01224FF400710B4801F0ADFADB
:1009BC0001224FF48051084801F0A7FA00224FF4AD
:1009CC008061054801F0A1FA00224FF40061024851
:1009DC0001F09BFA00BF80BD0008014080B500AF5C
:1009EC0001224FF40051114801F08FFA01224FF40B
:1009FC0080710E4801F089FA01224FF400610B4816
:100A0C0001F083FA01224FF40071084801F07DFADD
:100A1C0000224FF48061054801F077FA00224FF470
:100A2C008051024801F071FA00BF80BD00080140FE
:100A3C0080B500AF01224FF48061114801F065FAD6
:100A4C0001224FF400610E4801F05FFA01224FF4CD
:100A5C0000710B4801F059FA01224FF480510848FB
:100A6C0001F053FA00224FF48071054801F04DFA61
:100A7C0000224FF40051024801F047FA00BF80BD3C
:100A8C000008014080B500AF01224FF4806111488D
:100A9C0001F03BFA01224FF480710E4801F035FA57
:100AAC0001224FF400610B4801F02FFA01224FF4A0
:100ABC008051084801F029FA00224FF400710548D2
:100ACC0001F023FA00224FF40051024801F01DFA04
:100ADC0000BF80BD0008014080B500AF01224FF47B
:100AEC0080711F4801F011FA01224FF400611C487B
:100AFC0001F00BFA01224FF48051194801F005FA6C
:100B0C0001224FF40071164801F0FFF9154B1B68D8
:100B1C00002B02D0012B10D01FE000224FF480617B
:100B2C000F4801F0F2F900224FF400510C4801F08B
:100B3C00ECF90C4B01221A600FE001224FF480619A
:100B4C00074801F0E2F901224FF40051044801F08A
:100B5C00DCF9044B00221A6000BF00BF80BD00BF4F
:100B6C00000801405400002080B500AF01224FF472
:100B7C0080711F4801F0C9F901224FF400611C4833
:100B8C0001F0C3F901224FF48061194801F0BDF95D
:100B9C0001224FF40051164801F0B7F9154B1B68B0
:100BAC00002B02D0012B10D01FE000224FF48051FB
:100BBC000F4801F0AAF900224FF400710C4801F023
:100BCC00A4F90C4B01221A600FE001224FF4805162
:100BDC00074801F09AF901224FF40071044801F022
:100BEC0094F9044B00221A6000BF00BF80BD00BF07
:100BFC00000801405800002080B500AF01224FF4DE
:100C0C0080511F4801F081F901224FF400711C48FA
:100C1C0001F07BF901224FF48061194801F075F95C
:100C2C0001224FF40051164801F06FF9154B1B6867
:100C3C00002B02D0012B10D01FE000224FF480714A
:100C4C000F4801F062F900224FF400610C4801F0EA
:100C5C005CF90C4B01221A600FE001224FF48071F9
:100C6C00074801F052F901224FF40061044801F0E9
:100C7C004CF9044B00221A6000BF00BF80BD00BFBE
:100C8C00000801405C00002080B483B000AF7860A5
:100C9C007B680D4A82FB03129210DB17D31A0B4AA6
:100CAC0013607968084B83FB01239A10CB17D21A77
:100CBC0013469B0013445B00CA1A054B1A6000BF15
:100CCC000C37BD4680BC70476766666674000020B2
:100CDC007800002080B500AFB94B1B68042B00F2E4
:100CEC00B88101A252F823F0090D00087D0D00080F
:100CFC00310E0008E70E0008990F0008FFF71AFEE6
:100D0C00FFF7B2FB002000F007FD0346012B0DD1CD
:100D1C00AB4B01221A60AB4B07221A60AA4B05227F
:100D2C001A604FF4FA71002000F0DEFC012000F094
:100D3C00F3FC0346012B0DD1A24B1868A24B19688A
:100D4C00A04B1A68A04B1B68FFF738FD64210120EB
:100D5C0000F0CAFC122000F0DFFC0346012B40F02F
:100D6C007A81FFF745FD0A21122000F0BDFC72E1EB
:100D7C000020FFF73FFA0346012B12D1934B0222BE
:100D8C001A600020FFF75AFA0121002000F0ACFC99
:100D9C000521012000F0A8FC0A21122000F0A4FC7F
:100DAC0062E1FFF7F1FD122000F0B6FC0346012BC7
:100DBC0005D1FFF71DFD0A21122000F095FC012042
:100DCC0000F0AAFC0346012B17D17E4B1B68013B9C
:100DDC007C4A13607C4B1B68013B7B4A1360794B4C
:100DEC001868794B1968774B1A68774B1B68FFF7B3
:100DFC00E5FC6421012000F077FC002000F08CFC65
:100E0C000346012B40F029816D4B02221A606D4B79
:100E1C0002221A606C4B02221A60C821002000F0DA
:100E2C0063FC1AE10020FFF7E5F90346012B12D110
:100E3C00664B02221A600020FFF700FA0121002005
:100E4C0000F052FC0521012000F04EFC0A2112207A
:100E5C0000F04AFC08E1FFF7C1FD122000F05CFC39
:100E6C000346012B05D1FFF7C3FC1421122000F01F
:100E7C003BFC012000F050FC0346012B17D1514BD9
:100E8C001B68013B4F4A13604F4B1B68013B4E4A9A
:100E9C0013604C4B18684C4B19684A4B1A684A4BF8
:100EAC001B68FFF78BFC6421012000F01DFC002067
:100EBC0000F032FC0346012B40F0D180404B032262
:100ECC001A60404B05221A603F4B07221A604FF400
:100EDC00FA71002000F008FCC1E00020FFF78AF94D
:100EEC000346012B12D1394B02221A600020FFF766
:100EFC00A5F90121002000F0F7FB0521012000F0ED
:100F0C00F3FB0A21122000F0EFFBADE0FFF790FDA0
:100F1C00122000F001FC0346012B05D1FFF768FC01
:100F2C000A21122000F0E0FB012000F0F5FB034643
:100F3C00012B17D1234B1B68013B224A1360224B18
:100F4C001B68013B204A13601E4B18681E4B196826
:100F5C001C4B1A681C4B1B68FFF730FC64210120EA
:100F6C0000F0C2FB002000F0D7FB0346012B78D128
:100F7C00134B04221A60134B02221A60124B0222EA
:100F8C001A60C821002000F0AFFB6AE00020FFF7D8
:100F9C0031F90346012B1BD10C4B02221A600020A5
:100FAC00FFF74CF90121002000F09EFB05210120E8
:100FBC0000F09AFB0A21122000F096FB54E000BFCF
:100FCC0060000020680000206C00002064000020FD
:100FDC00FFF758FD122000F09FFB0346012B05D1B3
:100FEC00FFF706FC0A21122000F07EFB012000F026
:100FFC0093FB0346012B17D11C4B1B68013B1B4A6F
:10100C0013601B4B1B68013B194A1360174B186884
:10101C00174B1968154B1A68154B1B68FFF7CEFB5D
:10102C006421012000F060FB002000F075FB0346FA
:10103C00012B18D10F4B01221A600C4B07221A609E
:10104C000B4B05221A604FF4FA71002000F04CFB98
:10105C0009E000BF08E000BF06E000BF04E000BFED
:10106C0002E000BF00E000BF00BF80BD68000020B0
:10107C006C0000206000002080B500AF002000F064
:10108C004BFB0346012B05D1FFF726FD3221002037
:10109C0000F02AFB012000F03FFB0346002B0BD194
:1010AC000C4B1A680C4B1B6802210020FFF786FBC7
:1010BC000A21012000F018FB122000F02DFB034642
:1010CC00012B05D1FFF794FB0A21122000F00CFB39
:1010DC0000BF80BD740000207800002080B500AFF8
:1010EC00002000F019FB0346012B05D1FFF73CFD56
:1010FC003221002000F0F8FA012000F00DFB03462D
:10110C00002B0BD10C4B1A680C4B1B6803210020D5
:10111C00FFF754FB0A21012000F0E6FA122000F040
:10112C00FBFA0346012B05D1FFF762FB0A211220C3
:10113C0000F0DAFA00BF80BD7400002078000020B7
:10114C0080B500AF002000F0E7FA0346012B05D173
:10115C00FFF752FD3221002000F0C6FA012000F00A
:10116C00DBFA0346002B0BD10C4B1A680C4B1B689B
:10117C0004210020FFF722FB0A21012000F0B4FA21
:10118C00122000F0C9FA0346012B05D1FFF730FB02
:10119C000A21122000F0A8FA00BF80BD74000020C4
:1011AC007800002080B500AF132000F0B5FA03469C
:1011BC00012B07D13221132000F096FA2021B648DA
:1011CC0000F0BBFE0020FFF739F8B44B1B68042B72
:1011DC0000F2558101A252F823F000BFFD11000866
:1011EC004D120008911200083B130008E31300088D
:1011FC000023002200210020FFF7E0FA122000F06B
:10120C008BFA0346012B05D1FFF7F2FA0A211220C3
:10121C0000F06AFA0020FEF7EDFF0346012B40F0C8
:10122C0030819E4B01221A600020FFF707F8012144
:10123C00002000F059FA0521012000F055FA29E1AF
:10124C00FFF748FD0020FEF7D5FF0346012B40F0C9
:10125C001A81924B02221A600020FEF7EFFF012048
:10126C00FEF7ECFF0220FEF7E9FF0121002000F061
:10127C003BFA0521012000F037FA0A21122000F078
:10128C0033FA07E1FFF7F8FE0020FEF7B3FF034641
:10129C00012B1BD1814B03221A600020FEF7CEFFDD
:1012AC000121002000F020FA0521012000F01CFA99
:1012BC000A21122000F018FA794B00221A60794B9F
:1012CC0000221A60784B00221A60E3E00120FEF73E
:1012DC0091FF0346012B1BD1734B1B680133724AE0
:1012EC001360714B1B68632B02DD6F4B00221A607D
:1012FC006D4B1B681846FFF7C7FC694B1A68694BA6
:10130C001B6802210020FFF759FA0120FEF796FF17
:10131C000220FEF76FFF0346012B40F0B680624BB4
:10132C001B68624A13600220FEF788FFADE0FFF7EE
:10133C00D5FE0020FEF75EFF0346012B1BD1574B59
:10134C0004221A600020FEF779FF0121002000F032
:10135C00CBF90521012000F0C7F90A21122000F079
:10136C00C3F94F4B00221A604E4B00221A604E4BB1
:10137C0000221A608EE00120FEF73CFF0346012B91
:10138C001BD1494B1B680133474A1360464B1B6802
:10139C00632B02DD444B00221A60434B1B6818463A
:1013AC00FFF772FC3E4B1A683E4B1B680321002072
:1013BC00FFF704FA0120FEF741FF0220FEF71AFFA7
:1013CC000346012B63D1384B1B68394A136002204A
:1013DC00FEF734FF5BE0FFF7B3FE0020FEF70AFFD9
:1013EC000346012B1BD12D4B01221A600020FEF766
:1013FC0025FF0121002000F077F90521012000F0E4
:10140C0073F90A21122000F06FF9254B00221A60A3
:10141C00244B00221A60244B00221A603AE001206F
:10142C00FEF7E8FE0346012B1BD11F4B1B68013353
:10143C001D4A13601C4B1B68632B02DD1A4B0022E8
:10144C001A60194B1B681846FFF71EFC144B1A68E0
:10145C00144B1B6804210020FFF7B0F90120FEF7A4
:10146C00EDFE0220FEF7C6FE0346012B11D10E4BFA
:10147C001B68104A13600220FEF7E0FE09E000BF73
:10148C0008E000BF06E000BF04E000BF02E000BFC0
:10149C0000E000BF00BF80BD0008014064000020D8
:1014AC007400002078000020700000207C000020D8
:1014BC00800000208400002080B500AF00F024FAEA
:1014CC00FEF73EFE00F014F800F04EF800F098F82D
:1014DC00064801F077F90121132000F005F9642189
:1014EC00122000F001F9FFF75DFEFCE7F800002088
:1014FC0080B590B000AF07F11803282200211846E0
:10150C0001F010FD3B1D00221A605A609A60DA60EF
:10151C001A610223BB610123BB621023FB6200230F
:10152C007B6307F11803184600F020FD0346002BDF
:10153C0001D000F0D3F80F237B600023BB600023A5
:10154C00FB6000233B6100237B613B1D002118469F
:10155C0000F08CFF0346002B01D000F0BFF800BF59
:10156C004037BD4680BD000080B586B000AF07F1A6
:10157C00080300221A605A609A60DA603B46002227
:10158C001A605A601D4B4FF080421A601B4B41F69B
:10159C003F725A60194B00229A60184B0922DA608C
:1015AC00164B00221A61154B00229A61134801F068
:1015BC00B9F80346002B01D000F090F84FF480539B
:1015CC00BB6007F1080319460C4801F037FA0346D3
:1015DC00002B01D000F082F800233B6000237B60DD
:1015EC003B461946054801F00FFC0346002B01D081
:1015FC0000F074F800BF1837BD4680BDF80000201D
:10160C0080B586B000AF07F1080300221A605A605B
:10161C009A60DA60284B9B69274A43F00403936174
:10162C00254B9B6903F004037B607B68224B9B6911
:10163C00214A43F0080393611F4B9B6903F0080395
:10164C003B603B68002243F6F8711C4800F05DFCDF
:10165C0000227F211A4800F058FC43F6F873BB6057
:10166C000123FB6000233B6102237B6107F108032C
:10167C001946124800F0B8FA7F23BB600123FB60C7
:10168C0000233B6102237B6107F1080319460C48D8
:10169C0000F0AAFA4FF46043BB600023FB60012307
:1016AC003B6107F108031946054800F09DFA00BF9D
:1016BC001837BD4680BD00BF001002400008014035
:1016CC00000C014080B582B000AF786000F038F8B3
:1016DC00FEF7CAFD00BF0837BD4680BD80B400AF21
:1016EC0072B600BFFEE7000080B483B000AF786034
:1016FC00396007497B683A6841F82320054A7B68C2
:10170C00002142F8231000BF0C37BD4680BC704747
:10171C00400100209001002080B483B000AF7860BD
:10172C00064A7B6852F82330012B01D1012300E0DB
:10173C00002318460C37BD4680BC70479001002032
:10174C0080B483B000AF00237B601CE0124A7B683E
:10175C0052F82330002B13DD0F4A7B6852F82330EC
:10176C005A1E0D497B6841F823200B4A7B6852F8BE
:10177C002330002B04DC094A7B68012142F823103A
:10178C007B6801337B607B68132BDFDD00BF00BF00
:10179C000C37BD4680BC70474001002090010020F2
:1017AC0080B485B000AF154B9B69144A43F001031C
:1017BC009361124B9B6903F00103BB60BB680F4B39
:1017CC00DB690E4A43F08053D3610C4BDB6903F0A9
:1017DC0080537B607B680A4B5B68FB60FB6823F083
:1017EC00E063FB60FB6843F08063FB60044AFB68CA
:1017FC00536000BF1437BD4680BC704700100240D8
:10180C000000014080B584B000AF78607B681B6835
:10181C00B3F1804F13D10C4BDB690B4A43F001033E
:10182C00D361094BDB6903F00103FB60FB68002209
:10183C0000211C2000F0A1F91C2000F0BAF900BF17
:10184C001037BD4680BD00BF0010024080B400AF11
:10185C00FEE780B400AFFEE780B400AFFEE780B4D3
:10186C0000AFFEE780B400AFFEE780B400AF00BF6E
:10187C00BD4680BC704780B400AF00BFBD4680BC85
:10188C00704780B400AF00BFBD4680BC704780B5C8
:10189C0000AF00F07FF800BF80BD000080B500AF46
:1018AC00024800F0DBFF00BF80BD00BFF800002045
:1018BC0080B400AF00BFBD4680BC7047FFF7F8FF97
:1018CC000B480C490C4A002302E0D458C450043392
:1018DC00C4188C42F9D3094A094C002301E0136067
:1018EC000432A242FBD301F0F9FAFFF7E5FD704791
:1018FC000000002034000020842F00083400002059
:10190C00E4010020FEE7000080B500AF084B1B6827
:10191C00074A43F010031360032000F023F90F2053
:10192C0000F008F8FFF73CFF0023184680BD00BF0D
:10193C000020024080B582B000AF7860124B1A686C
:10194C00124B1B7819464FF47A73B3FBF1F3B2FBCD
:10195C00F3F3184600F03BF90346002B01D00123AA
:10196C000EE07B680F2B0AD8002279684FF0FF300D
:10197C0000F003F9064A7B681360002300E00123A2
:10198C0018460837BD4680BD2800002030000020D6
:10199C002C00002080B400AF054B1B781A46054B79
:1019AC001B681344034A136000BFBD4680BC7047DC
:1019BC0030000020E001002080B400AF024B1B6817
:1019CC001846BD4680BC7047E001002080B485B04D
:1019DC0000AF78607B6803F00703FB600C4BDB689F
:1019EC00BB60BA684FF6FF031340BB60FB681A027A
:1019FC00BB68134343F0BF6343F40033BB60044A3A
:101A0C00BB68D36000BF1437BD4680BC704700BFB5
:101A1C0000ED00E080B400AF044BDB681B0A03F060
:101A2C0007031846BD4680BC704700BF00ED00E0C0
:101A3C0080B483B000AF0346FB7197F90730002BDD
:101A4C000BDBFB7903F01F02064997F907305B09A2
:101A5C00012000FA02F241F8232000BF0C37BD46EA
:101A6C0080BC704700E100E080B483B000AF034657
:101A7C003960FB7197F90730002B0ADB3B68DAB24F
:101A8C000C4997F907301201D2B20B4483F80023AA
:101A9C000AE03B68DAB20849FB7903F00F03043B18
:101AAC001201D2B20B441A7600BF0C37BD4680BC73
:101ABC00704700BF00E100E000ED00E080B489B0A9
:101ACC0000AFF860B9607A60FB6803F00703FB6154
:101ADC00FB69C3F10703042B28BF0423BB61FB691B
:101AEC000433062B02D9FB69033B00E000237B6126
:101AFC004FF0FF32BB6902FA03F3DA43BB681A40BA
:101B0C007B699A404FF0FF317B6901FA03F3D943AB
:101B1C007B680B40134318462437BD4680BC704786
:101B2C0080B582B000AF78607B68013BB3F1807FF9
:101B3C0001D301230FE00A4A7B68013B53600F215C
:101B4C004FF0FF30FFF790FF054B00229A60044BDB
:101B5C0007221A60002318460837BD4680BD00BF17
:101B6C0010E000E080B582B000AF78607868FFF7D5
:101B7C002DFF00BF0837BD4680BD80B586B000AFD5
:101B8C000346B9607A60FB7300237B61FFF742FF69
:101B9C0078617A68B9687869FFF790FF024697F91F
:101BAC000F3011461846FFF75FFF00BF1837BD46D0
:101BBC0080BD80B582B000AF0346FB7197F907304A
:101BCC001846FFF735FF00BF0837BD4680BD80B50E
:101BDC0082B000AF78607868FFF7A2FF0346184622
:101BEC000837BD4680BD000080B48BB000AF786074
:101BFC00396000237B6200233B6248E101227B6A4F
:101C0C0002FA03F3FB613B681B68FA691340BB6182
:101C1C00BA69FB699A4240F037813B685B68A34A1A
:101C2C0093425ED0A14A934275D8A14A934258D0B0
:101C3C009F4A93426FD89F4A934252D09D4A9342F7
:101C4C0069D89D4A93424CD09B4A934263D89B4A95
:101C5C00934246D0994A93425DD8122B2AD8122B24
:101C6C0059D801A252F823F0EF1C0008C91C000837
:101C7C00DB1C00081D1D0008231D0008231D000887
:101C8C00231D0008231D0008231D0008231D000828
:101C9C00231D0008231D0008231D0008231D000818
:101CAC00231D0008231D0008231D0008D11C00085B
:101CBC00E51C0008824A934213D02CE03B68DB6899
:101CCC003B6229E03B68DB6804333B6224E03B6801
:101CDC00DB6808333B621FE03B68DB680C333B621C
:101CEC001AE03B689B68002B02D104233B6213E093
:101CFC003B689B68012B05D108233B627B68FA6922
:101D0C001A6109E008233B627B68FA695A6103E0B7
:101D1C0000233B6200E000BFBB69FF2B01D87B684E
:101D2C0001E07B6804337B61BB69FF2B02D87B6AC3
:101D3C009B0002E07B6A083B9B003B617B691A6855
:101D4C000F213B6901FA03F3DB431A40396A3B6903
:101D5C0001FA03F31A437B691A603B685B6803F072
:101D6C008053002B00F09080564B9B69554A43F0F2
:101D7C0001039361534B9B6903F00103BB60BB6888
:101D8C00514A7B6A9B08023352F82330FB607B6A12
:101D9C0003F003039B000F2202FA03F3DB43FA6800
:101DAC001340FB607B68494A93420DD07B68484ADC
:101DBC00934207D07B68474A934201D1022304E047
:101DCC00032302E0012300E000237A6A02F00302FD
:101DDC0092009340FA681343FB603B497B6A9B0873
:101DEC000233FA6841F823203B685B6803F48013E4
:101DFC00002B06D0384B9A683749BB6913438B606C
:101E0C0006E0354B9A68BB69DB43334913408B6062
:101E1C003B685B6803F40013002B06D02E4BDA688A
:101E2C002D49BB691343CB6006E02B4BDA68BB69C9
:101E3C00DB4329491340CB603B685B6803F40033F8
:101E4C00002B06D0244B5A682349BB6913434B60C3
:101E5C0006E0214B5A68BB69DB431F4913404B60BA
:101E6C003B685B6803F48033002B06D01A4B1A686E
:101E7C001949BB6913430B6006E0174B1A68BB6921
:101E8C00DB43154913400B607B6A01337B623B6873
:101E9C001A687B6A22FA03F3002B7FF4AFAE00BF03
:101EAC0000BF2C37BD4680BC704700BF000032100D
:101EBC000000311000002210000021100000121050
:101ECC000000111000100240000001400008014009
:101EDC00000C0140001001400004014080B485B0AA
:101EEC0000AF78600B467B807B689A687B881340D8
:101EFC00002B02D00123FB7301E00023FB73FB7B5F
:101F0C0018461437BD4680BC704780B483B000AF10
:101F1C0078600B467B8013467B707B78002B03D05C
:101F2C007A887B681A6103E07B881A047B681A61E3
:101F3C0000BF0C37BD4680BC704780B485B000AF85
:101F4C0078600B467B807B68DB68FB607A88FB687B
:101F5C0013401A04FB68D9437B880B401A437B68F7
:101F6C001A6100BF1437BD4680BC704780B586B07F
:101F7C0000AF78607B68002B01D101236CE27B6899
:101F8C001B6803F00103002B00F08780924B5B6809
:101F9C0003F00C03042B0CD08F4B5B6803F00C0389
:101FAC00082B12D18C4B5B6803F48033B3F5803F64
:101FBC000BD1894B1B6803F40033002B6CD07B686E
:101FCC005B68002B68D1012346E27B685B68B3F544
:101FDC00803F06D1804B1B687F4A43F480331360EB
:101FEC002EE07B685B68002B0CD17B4B1B687A4A1C
:101FFC0023F480331360784B1B68774A23F48023D7
:10200C0013601DE07B685B68B3F5A02F0CD1724B9D
:10201C001B68714A43F4802313606F4B1B686E4A34
:10202C0043F4803313600BE06B4B1B686A4A23F458
:10203C0080331360684B1B68674A23F4802313605A
:10204C007B685B68002B13D0FFF7B6FC386108E0A7
:10205C00FFF7B2FC02463B69D31A642B01D9032368
:10206C00FAE15D4B1B6803F40033002BF0D014E055
:10207C00FFF7A2FC386108E0FFF79EFC02463B69C3
:10208C00D31A642B01D90323E6E1534B1B6803F4E9
:10209C000033002BF0D100E000BF7B681B6803F01D
:1020AC000203002B63D04C4B5B6803F00C03002B3A
:1020BC000BD0494B5B6803F00C03082B1CD1464B2F
:1020CC005B6803F48033002B16D1434B1B6803F081
:1020DC000203002B05D07B681B69012B01D0012367
:1020EC00BAE13D4B1B6823F0F8027B685B69DB00AF
:1020FC00394913430B603AE07B681B69002B20D0F5
:10210C00364B01221A60FFF757FC386108E0FFF7E5
:10211C0053FC02463B69D31A022B01D903239BE1E2
:10212C002D4B1B6803F00203002BF0D02A4B1B68CD
:10213C0023F0F8027B685B69DB00274913430B60D3
:10214C0015E0264B00221A60FFF736FC386108E0D8
:10215C00FFF732FC02463B69D31A022B01D9032349
:10216C007AE11D4B1B6803F00203002BF0D17B6856
:10217C001B6803F00803002B3AD07B689B69002B8B
:10218C0019D0174B01221A60FFF716FC386108E0D2
:10219C00FFF712FC02463B69D31A022B01D9032329
:1021AC005AE10D4B5B6A03F00203002BF0D00120C7
:1021BC0000F09AFA1CE00A4B00221A60FFF7FCFBB5
:1021CC0038610FE0FFF7F8FB02463B69D31A022B8C
:1021DC0008D9032340E100BF001002400000424236
:1021EC00800442429E4B5B6A03F00203002BE9D150
:1021FC007B681B6803F00403002B00F0A68000230F
:10220C00FB75974BDB6903F08053002B0DD1944B7E
:10221C00DB69934A43F08053D361914BDB6903F044
:10222C008053BB60BB680123FB758E4B1B6803F4AA
:10223C008073002B18D18B4B1B688A4A43F4807334
:10224C001360FFF7B9FB386108E0FFF7B5FB0246F6
:10225C003B69D31A642B01D90323FDE0814B1B6826
:10226C0003F48073002BF0D07B68DB68012B06D164
:10227C007B4B1B6A7A4A43F0010313622DE07B68A7
:10228C00DB68002B0CD1764B1B6A754A23F00103DB
:10229C001362734B1B6A724A23F0040313621CE033
:1022AC007B68DB68052B0CD16D4B1B6A6C4A43F0C9
:1022BC00040313626A4B1B6A694A43F001031362FD
:1022CC000BE0674B1B6A664A23F001031362644BF5
:1022DC001B6A634A23F0040313627B68DB68002BE0
:1022EC0015D0FFF769FB38610AE0FFF765FB024682
:1022FC003B69D31A41F28832934201D90323ABE0F4
:10230C00574B1B6A03F00203002BEED014E0FFF7CF
:10231C0053FB38610AE0FFF74FFB02463B69D31AC7
:10232C0041F28832934201D9032395E04C4B1B6A4E
:10233C0003F00203002BEED1FB7D012B05D1484BA2
:10234C00DB69474A23F08053D3617B68DB69002B40
:10235C0000F08180424B5B6803F00C03082B61D0CA
:10236C007B68DB69022B46D13F4B00221A60FFF7DA
:10237C0023FB386108E0FFF71FFB02463B69D31AC9
:10238C00022B01D9032367E0354B1B6803F0007364
:10239C00002BF0D17B681B6AB3F5803F08D1304B22
:1023AC005B6823F400327B689B682D4913434B60B8
:1023BC002B4B5B6823F474127B68196A7B685B6A2D
:1023CC000B43274913434B60274B01221A60FFF73D
:1023DC00F3FA386108E0FFF7EFFA02463B69D31ACB
:1023EC00022B01D9032337E01D4B1B6803F000734C
:1023FC00002BF0D02FE01C4B00221A60FFF7DCFA08
:10240C00386108E0FFF7D8FA02463B69D31A022B71
:10241C0001D9032320E0124B1B6803F00073002B3F
:10242C00F0D118E07B68DB69012B01D1012313E0AB
:10243C000B4B5B68FB60FB6803F480327B681B6AA8
:10244C009A4206D1FB6803F470127B685B6A9A426D
:10245C0001D0012300E0002318461837BD4680BD8B
:10246C0000100240007000406000424280B584B011
:10247C0000AF786039607B68002B01D10123D0E07C
:10248C006A4B1B6803F007033A689A4210D9674BF2
:10249C001B6823F0070265493B6813430B60634BD1
:1024AC001B6803F007033A689A4201D00123B8E095
:1024BC007B681B6803F00203002B20D07B681B6831
:1024CC0003F00403002B05D0594B5B68584A43F4C6
:1024DC00E06353607B681B6803F00803002B05D096
:1024EC00534B5B68524A43F460535360504B5B68E8
:1024FC0023F0F0027B689B684D4913434B607B686B
:10250C001B6803F00103002B40D07B685B68012B38
:10251C0007D1474B1B6803F40033002B15D1012363
:10252C007FE07B685B68022B07D1414B1B6803F093
:10253C000073002B09D1012373E03D4B1B6803F0A2
:10254C000203002B01D101236BE0394B5B6823F0B4
:10255C0003027B685B68364913434B60FFF72CFA28
:10256C00F8600AE0FFF728FA0246FB68D31A41F23A
:10257C008832934201D9032353E02D4B5B6803F05F
:10258C000C027B685B689B009A42EBD1274B1B6863
:10259C0003F007033A689A4210D2244B1B6823F0CD
:1025AC00070222493B6813430B60204B1B6803F066
:1025BC0007033A689A4201D0012332E07B681B681A
:1025CC0003F00403002B08D0194B5B6823F4E06282
:1025DC007B68DB68164913434B607B681B6803F010
:1025EC000803002B09D0124B5B6823F460527B6804
:1025FC001B69DB000E4913434B6000F021F80246C7
:10260C000B4B5B681B0903F00F030A49CB5C22FAE6
:10261C0003F3094A1360094B1B681846FFF78AF944
:10262C00002318461037BD4680BD00BF0020024075
:10263C0000100240582F0008280000202C00002019
:10264C0080B487B000AF0023FB600023BB60002385
:10265C007B6100237B6000233B611E4B5B68FB604E
:10266C00FB6803F00C03042B02D0082B03D027E0EB
:10267C00194B3B6127E0FB689B0C03F00F03174AD7
:10268C00D35C7B60FB6803F48033002B10D0114BC0
:10269C005B685B0C03F00103114AD35CBB607B6885
:1026AC000D4A02FB03F2BB68B2FBF3F37B6104E05F
:1026BC007B680C4A02FB03F37B617B693B6102E0A4
:1026CC00054B3B6100BF3B6918461C37BD4680BCBF
:1026DC00704700BF0010024000127A00682F0008FB
:1026EC00782F000800093D0080B485B000AF7860F9
:1026FC000A4B1B680A4AA2FB03235B0A7A6802FB9B
:10270C0003F3FB6000BFFB685A1EFA60002BF9D183
:10271C0000BF00BF1437BD4680BC704728000020A6
:10272C00D34D621080B582B000AF78607B68002B0F
:10273C0001D1012341E07B6893F83D30DBB2002BE3
:10274C0006D17B68002283F83C207868FFF75AF8A2
:10275C007B68022283F83D207B681A687B6804330F
:10276C001946104600F056FA7B68012283F8462081
:10277C007B68012283F83E207B68012283F83F208E
:10278C007B68012283F840207B68012283F841207A
:10279C007B68012283F842207B68012283F8432066
:1027AC007B68012283F844207B68012283F8452052
:1027BC007B68012283F83D20002318460837BD466C
:1027CC0080BD000080B485B000AF78607B6893F862
:1027DC003D30DBB2012B01D0012335E07B680222B6
:1027EC0083F83D207B681B68DA687B681B6842F0C5
:1027FC000102DA607B681B68164A934209D07B6839
:10280C001B68B3F1804F04D07B681B68124A93425B
:10281C0011D17B681B689B6803F00703FB60FB68A6
:10282C00062B10D07B681B681A687B681B6842F00B
:10283C0001021A6007E07B681B681A687B681B68DA
:10284C0042F001021A60002318461437BD4680BCC2
:10285C00704700BF002C01400004004080B584B0DC
:10286C0000AF78607B681B68DB68FB607B681B686B
:10287C001B69BB60BB6803F00203002B20D0FB6814
:10288C0003F00203002B1BD07B681B686FF0020265
:10289C001A617B6801221A777B681B689B6903F0BD
:1028AC000303002B03D0786800F098F905E07868F2
:1028BC0000F08BF9786800F09AF97B6800221A779F
:1028CC00BB6803F00403002B20D0FB6803F0040367
:1028DC00002B1BD07B681B686FF004021A617B68AD
:1028EC0002221A777B681B689B6903F44073002BE8
:1028FC0003D0786800F072F905E0786800F065F9AB
:10290C00786800F074F97B6800221A77BB6803F0D2
:10291C000803002B20D0FB6803F00803002B1BD00E
:10292C007B681B686FF008021A617B6804221A77B7
:10293C007B681B68DB6903F00303002B03D078680A
:10294C0000F04CF905E0786800F03FF9786800F089
:10295C004EF97B6800221A77BB6803F01003002B3A
:10296C0020D0FB6803F01003002B1BD07B681B6886
:10297C006FF010021A617B6808221A777B681B685B
:10298C00DB6903F44073002B03D0786800F026F960
:10299C0005E0786800F019F9786800F028F97B6890
:1029AC0000221A77BB6803F00103002B0CD0FB68E4
:1029BC0003F00103002B07D07B681B686FF001024A
:1029CC001A617868FEF77EFEBB6803F08003002B6B
:1029DC000CD0FB6803F08003002B07D07B681B68CE
:1029EC006FF080021A61786800F06FFABB6803F030
:1029FC004003002B0CD0FB6803F04003002B07D0E6
:102A0C007B681B686FF040021A61786800F0F8F878
:102A1C00BB6803F02003002B0CD0FB6803F02003F1
:102A2C00002B07D07B681B686FF020021A61786856
:102A3C0000F042FA00BF1037BD4680BD80B584B0AF
:102A4C0000AF786039600023FB737B6893F83C30EF
:102A5C00012B01D10223B4E07B68012283F83C20D6
:102A6C007B68022283F83D207B681B689B68BB60F7
:102A7C00BB6823F07703BB60BB6823F47F43BB6068
:102A8C007B681B68BA689A603B681B68B3F5005F8B
:102A9C003ED0B3F5005F00F28780B3F5805F00F0A5
:102AAC008680B3F5805F7FD8702B1AD0702B7BD8C3
:102ABC00602B50D0602B77D8502B3CD0502B73D838
:102ACC00402B58D0402B6FD8302B64D0302B6BD888
:102ADC00202B60D0202B67D8002B5CD0102B5AD029
:102AEC0062E07B6818683B6899683B685A683B6889
:102AFC00DB6800F06AF97B681B689B68BB60BB688D
:102B0C0043F07703BB607B681B68BA689A604FE040
:102B1C007B6818683B6899683B685A683B68DB6857
:102B2C0000F053F97B681B689A687B681B6842F459
:102B3C0080429A603CE07B6818683B6859683B6847
:102B4C00DB681A4600F0CAF87B681B6850211846EF
:102B5C0000F021F92CE07B6818683B6859683B68E9
:102B6C00DB681A4600F0E8F87B681B6860211846A1
:102B7C0000F011F91CE07B6818683B6859683B68E9
:102B8C00DB681A4600F0AAF87B681B6840211846DF
:102B9C0000F001F90CE07B681A683B681B68194669
:102BAC00104600F0F8F803E00123FB7300E000BFCF
:102BBC007B68012283F83D207B68002283F83C204F
:102BCC00FB7B18461037BD4680BD80B483B000AF88
:102BDC00786000BF0C37BD4680BC704780B483B0B2
:102BEC0000AF786000BF0C37BD4680BC704780B426
:102BFC0083B000AF786000BF0C37BD4680BC704717
:102C0C0080B483B000AF786000BF0C37BD4680BC89
:102C1C007047000080B485B000AF786039607B6885
:102C2C001B68FB607B682B4A934207D07B68B3F12F
:102C3C00804F03D07B68284A934208D1FB6823F06D
:102C4C007003FB603B685B68FA681343FB607B684E
:102C5C00204A934207D07B68B3F1804F03D07B6846
:102C6C001D4A934208D1FB6823F44073FB603B6818
:102C7C00DB68FA681343FB60FB6823F080023B6857
:102C8C005B691343FB607B68FA681A603B689A685F
:102C9C007B68DA623B681A687B689A627B680D4ACB
:102CAC00934203D13B681A697B681A637B680122E3
:102CBC005A617B681B6903F00103002B05D07B680C
:102CCC001B6923F001027B681A6100BF1437BD46F3
:102CDC0080BC7047002C01400004004080B487B0D9
:102CEC0000AFF860B9607A60FB681B6A7B61FB68B7
:102CFC001B6A23F00102FB681A62FB689B693B614B
:102D0C003B6923F0F0033B617B681B013A69134379
:102D1C003B617B6923F00A037B617A69BB681343CF
:102D2C007B61FB683A699A61FB687A691A6200BF39
:102D3C001C37BD4680BC704780B487B000AFF860CC
:102D4C00B9607A60FB681B6A7B61FB681B6A23F0C5
:102D5C001002FB681A62FB689B693B613B6923F4B8
:102D6C0070433B617B681B033A6913433B617B698E
:102D7C0023F0A0037B61BB681B017A6913437B6161
:102D8C00FB683A699A61FB687A691A6200BF1C3762
:102D9C00BD4680BC704780B485B000AF78603960A8
:102DAC007B689B68FB60FB6823F07003FB603A68F0
:102DBC00FB68134343F00703FB607B68FA689A6077
:102DCC0000BF1437BD4680BC704780B487B000AFDD
:102DDC00F860B9607A603B60FB689B687B617B69DB
:102DEC0023F47F437B613B681A027B681A43BB6800
:102DFC0013437A6913437B61FB687A699A6000BF5D
:102E0C001C37BD4680BC704780B485B000AF78607D
:102E1C0039607B6893F83C30012B01D1022341E0EF
:102E2C007B68012283F83C207B68022283F83D20DA
:102E3C007B681B685B68FB607B681B689B68BB607E
:102E4C00FB6823F07003FB603B681B68FA68134354
:102E5C00FB607B681B68FA685A607B681B68144AC5
:102E6C00934209D07B681B68B3F1804F04D07B6818
:102E7C001B68104A93420CD1BB6823F08003BB60E3
:102E8C003B685B68BA681343BB607B681B68BA68B5
:102E9C009A607B68012283F83D207B68002283F8CE
:102EAC003C20002318461437BD4680BC704700BF39
:102EBC00002C01400004004080B483B000AF786067
:102ECC0000BF0C37BD4680BC704780B483B000AFE8
:102EDC00786000BF0C37BD4680BC704770B50026CB
:102EEC000C4D0D4C641BA410A64209D100F022F825
:102EFC0000260A4D0A4C641BA410A64205D170BDD5
:102F0C0055F8043B98470136EEE755F8043B9847D3
:102F1C000136F2E77C2F00087C2F00087C2F00087C
:102F2C00802F000803460244934200D1704703F8F7
:102F3C00011BF9E7F8B500BFF8BC08BC9E4670470A
:0C2F4C00F8B500BFF8BC08BC9E467047FA
:102F58000000000000000000010203040607080941
:102F680002030405060708090A0B0C0D0E0F1010C2
:042F78000102000052
:042F7C003101000817
:042F80000D01000837
:102F8400000C0140000C0140000C01400000000056
:102F9400002000400080000001000000020000004A
:102FA400030000000400000000127A00100000007A
:042FB4000100000018
:04000005080018C90E
:00000001FF
